{
  "_format": "hh-sol-artifact-1",
  "contractName": "PredictionMarket",
  "sourceName": "src/contracts/PredictionMarket.sol",
  "abi": [
    {
      "inputs": [
        {
          "internalType": "address",
          "name": "_usdcAddress",
          "type": "address"
        },
        {
          "internalType": "address",
          "name": "_usdtAddress",
          "type": "address"
        }
      ],
      "stateMutability": "nonpayable",
      "type": "constructor"
    },
    {
      "anonymous": false,
      "inputs": [
        {
          "indexed": true,
          "internalType": "address",
          "name": "user",
          "type": "address"
        },
        {
          "indexed": false,
          "internalType": "enum PredictionMarket.TokenType",
          "name": "tokenType",
          "type": "uint8"
        },
        {
          "indexed": false,
          "internalType": "uint256",
          "name": "newBalance",
          "type": "uint256"
        }
      ],
      "name": "BalanceUpdated",
      "type": "event"
    },
    {
      "anonymous": false,
      "inputs": [
        {
          "indexed": true,
          "internalType": "uint256",
          "name": "poolId",
          "type": "uint256"
        },
        {
          "indexed": false,
          "internalType": "enum PredictionMarket.Asset",
          "name": "asset",
          "type": "uint8"
        },
        {
          "indexed": false,
          "internalType": "uint256",
          "name": "finalPrice",
          "type": "uint256"
        },
        {
          "indexed": false,
          "internalType": "uint256",
          "name": "threshold",
          "type": "uint256"
        },
        {
          "indexed": false,
          "internalType": "uint256",
          "name": "totalWinnings",
          "type": "uint256"
        },
        {
          "indexed": false,
          "internalType": "uint256",
          "name": "commission",
          "type": "uint256"
        }
      ],
      "name": "PoolResolved",
      "type": "event"
    },
    {
      "anonymous": false,
      "inputs": [
        {
          "indexed": true,
          "internalType": "address",
          "name": "user",
          "type": "address"
        },
        {
          "indexed": true,
          "internalType": "uint256",
          "name": "poolId",
          "type": "uint256"
        },
        {
          "indexed": false,
          "internalType": "enum PredictionMarket.Asset",
          "name": "asset",
          "type": "uint8"
        },
        {
          "indexed": false,
          "internalType": "uint256",
          "name": "threshold",
          "type": "uint256"
        },
        {
          "indexed": false,
          "internalType": "enum PredictionMarket.Direction",
          "name": "direction",
          "type": "uint8"
        },
        {
          "indexed": false,
          "internalType": "uint256",
          "name": "amount",
          "type": "uint256"
        },
        {
          "indexed": false,
          "internalType": "enum PredictionMarket.TokenType",
          "name": "tokenType",
          "type": "uint8"
        }
      ],
      "name": "PredictionCreated",
      "type": "event"
    },
    {
      "anonymous": false,
      "inputs": [
        {
          "indexed": true,
          "internalType": "address",
          "name": "user",
          "type": "address"
        },
        {
          "indexed": true,
          "internalType": "uint256",
          "name": "poolId",
          "type": "uint256"
        },
        {
          "indexed": false,
          "internalType": "uint256",
          "name": "amount",
          "type": "uint256"
        },
        {
          "indexed": false,
          "internalType": "enum PredictionMarket.TokenType",
          "name": "tokenType",
          "type": "uint8"
        }
      ],
      "name": "RewardDistributed",
      "type": "event"
    },
    {
      "anonymous": false,
      "inputs": [
        {
          "indexed": true,
          "internalType": "bytes32",
          "name": "role",
          "type": "bytes32"
        },
        {
          "indexed": true,
          "internalType": "bytes32",
          "name": "previousAdminRole",
          "type": "bytes32"
        },
        {
          "indexed": true,
          "internalType": "bytes32",
          "name": "newAdminRole",
          "type": "bytes32"
        }
      ],
      "name": "RoleAdminChanged",
      "type": "event"
    },
    {
      "anonymous": false,
      "inputs": [
        {
          "indexed": true,
          "internalType": "bytes32",
          "name": "role",
          "type": "bytes32"
        },
        {
          "indexed": true,
          "internalType": "address",
          "name": "account",
          "type": "address"
        },
        {
          "indexed": true,
          "internalType": "address",
          "name": "sender",
          "type": "address"
        }
      ],
      "name": "RoleGranted",
      "type": "event"
    },
    {
      "anonymous": false,
      "inputs": [
        {
          "indexed": true,
          "internalType": "bytes32",
          "name": "role",
          "type": "bytes32"
        },
        {
          "indexed": true,
          "internalType": "address",
          "name": "account",
          "type": "address"
        },
        {
          "indexed": true,
          "internalType": "address",
          "name": "sender",
          "type": "address"
        }
      ],
      "name": "RoleRevoked",
      "type": "event"
    },
    {
      "inputs": [],
      "name": "ADMIN_ROLE",
      "outputs": [
        {
          "internalType": "bytes32",
          "name": "",
          "type": "bytes32"
        }
      ],
      "stateMutability": "view",
      "type": "function"
    },
    {
      "inputs": [],
      "name": "COMMISSION_DENOMINATOR",
      "outputs": [
        {
          "internalType": "uint256",
          "name": "",
          "type": "uint256"
        }
      ],
      "stateMutability": "view",
      "type": "function"
    },
    {
      "inputs": [],
      "name": "COMMISSION_RATE",
      "outputs": [
        {
          "internalType": "uint256",
          "name": "",
          "type": "uint256"
        }
      ],
      "stateMutability": "view",
      "type": "function"
    },
    {
      "inputs": [],
      "name": "DEFAULT_ADMIN_ROLE",
      "outputs": [
        {
          "internalType": "bytes32",
          "name": "",
          "type": "bytes32"
        }
      ],
      "stateMutability": "view",
      "type": "function"
    },
    {
      "inputs": [
        {
          "internalType": "enum PredictionMarket.Asset",
          "name": "_asset",
          "type": "uint8"
        },
        {
          "internalType": "uint256",
          "name": "_threshold",
          "type": "uint256"
        },
        {
          "internalType": "enum PredictionMarket.Direction",
          "name": "_direction",
          "type": "uint8"
        },
        {
          "internalType": "enum PredictionMarket.TimeInterval",
          "name": "_interval",
          "type": "uint8"
        },
        {
          "internalType": "enum PredictionMarket.TokenType",
          "name": "_tokenType",
          "type": "uint8"
        },
        {
          "internalType": "uint256",
          "name": "_amount",
          "type": "uint256"
        }
      ],
      "name": "createPrediction",
      "outputs": [
        {
          "internalType": "uint256",
          "name": "",
          "type": "uint256"
        }
      ],
      "stateMutability": "nonpayable",
      "type": "function"
    },
    {
      "inputs": [
        {
          "internalType": "uint256",
          "name": "_poolId",
          "type": "uint256"
        }
      ],
      "name": "getPoolDetails",
      "outputs": [
        {
          "internalType": "enum PredictionMarket.Asset",
          "name": "asset",
          "type": "uint8"
        },
        {
          "internalType": "uint256",
          "name": "threshold",
          "type": "uint256"
        },
        {
          "internalType": "uint256",
          "name": "abovePool",
          "type": "uint256"
        },
        {
          "internalType": "uint256",
          "name": "belowPool",
          "type": "uint256"
        },
        {
          "internalType": "bool",
          "name": "resolved",
          "type": "bool"
        },
        {
          "internalType": "uint256",
          "name": "finalPrice",
          "type": "uint256"
        }
      ],
      "stateMutability": "view",
      "type": "function"
    },
    {
      "inputs": [
        {
          "internalType": "bytes32",
          "name": "role",
          "type": "bytes32"
        }
      ],
      "name": "getRoleAdmin",
      "outputs": [
        {
          "internalType": "bytes32",
          "name": "",
          "type": "bytes32"
        }
      ],
      "stateMutability": "view",
      "type": "function"
    },
    {
      "inputs": [
        {
          "internalType": "address",
          "name": "_user",
          "type": "address"
        }
      ],
      "name": "getUserPoints",
      "outputs": [
        {
          "internalType": "uint256",
          "name": "",
          "type": "uint256"
        }
      ],
      "stateMutability": "view",
      "type": "function"
    },
    {
      "inputs": [
        {
          "internalType": "address",
          "name": "_user",
          "type": "address"
        }
      ],
      "name": "getUserPredictions",
      "outputs": [
        {
          "components": [
            {
              "internalType": "address",
              "name": "user",
              "type": "address"
            },
            {
              "internalType": "enum PredictionMarket.Asset",
              "name": "asset",
              "type": "uint8"
            },
            {
              "internalType": "uint256",
              "name": "threshold",
              "type": "uint256"
            },
            {
              "internalType": "enum PredictionMarket.Direction",
              "name": "direction",
              "type": "uint8"
            },
            {
              "internalType": "enum PredictionMarket.TimeInterval",
              "name": "interval",
              "type": "uint8"
            },
            {
              "internalType": "enum PredictionMarket.TokenType",
              "name": "tokenType",
              "type": "uint8"
            },
            {
              "internalType": "uint256",
              "name": "amount",
              "type": "uint256"
            },
            {
              "internalType": "uint256",
              "name": "timestamp",
              "type": "uint256"
            },
            {
              "internalType": "uint256",
              "name": "poolId",
              "type": "uint256"
            }
          ],
          "internalType": "struct PredictionMarket.Prediction[]",
          "name": "",
          "type": "tuple[]"
        }
      ],
      "stateMutability": "view",
      "type": "function"
    },
    {
      "inputs": [
        {
          "internalType": "bytes32",
          "name": "role",
          "type": "bytes32"
        },
        {
          "internalType": "address",
          "name": "account",
          "type": "address"
        }
      ],
      "name": "grantRole",
      "outputs": [],
      "stateMutability": "nonpayable",
      "type": "function"
    },
    {
      "inputs": [
        {
          "internalType": "bytes32",
          "name": "role",
          "type": "bytes32"
        },
        {
          "internalType": "address",
          "name": "account",
          "type": "address"
        }
      ],
      "name": "hasRole",
      "outputs": [
        {
          "internalType": "bool",
          "name": "",
          "type": "bool"
        }
      ],
      "stateMutability": "view",
      "type": "function"
    },
    {
      "inputs": [],
      "name": "nextPoolId",
      "outputs": [
        {
          "internalType": "uint256",
          "name": "",
          "type": "uint256"
        }
      ],
      "stateMutability": "view",
      "type": "function"
    },
    {
      "inputs": [
        {
          "internalType": "uint256",
          "name": "",
          "type": "uint256"
        }
      ],
      "name": "pools",
      "outputs": [
        {
          "internalType": "enum PredictionMarket.Asset",
          "name": "asset",
          "type": "uint8"
        },
        {
          "internalType": "uint256",
          "name": "threshold",
          "type": "uint256"
        },
        {
          "internalType": "enum PredictionMarket.TimeInterval",
          "name": "interval",
          "type": "uint8"
        },
        {
          "internalType": "enum PredictionMarket.TokenType",
          "name": "tokenType",
          "type": "uint8"
        },
        {
          "internalType": "uint256",
          "name": "timestamp",
          "type": "uint256"
        },
        {
          "internalType": "uint256",
          "name": "abovePool",
          "type": "uint256"
        },
        {
          "internalType": "uint256",
          "name": "belowPool",
          "type": "uint256"
        },
        {
          "internalType": "bool",
          "name": "resolved",
          "type": "bool"
        },
        {
          "internalType": "uint256",
          "name": "finalPrice",
          "type": "uint256"
        }
      ],
      "stateMutability": "view",
      "type": "function"
    },
    {
      "inputs": [
        {
          "internalType": "bytes32",
          "name": "role",
          "type": "bytes32"
        },
        {
          "internalType": "address",
          "name": "account",
          "type": "address"
        }
      ],
      "name": "renounceRole",
      "outputs": [],
      "stateMutability": "nonpayable",
      "type": "function"
    },
    {
      "inputs": [
        {
          "internalType": "uint256",
          "name": "_poolId",
          "type": "uint256"
        },
        {
          "internalType": "uint256",
          "name": "_actualPrice",
          "type": "uint256"
        }
      ],
      "name": "resolvePool",
      "outputs": [],
      "stateMutability": "nonpayable",
      "type": "function"
    },
    {
      "inputs": [
        {
          "internalType": "bytes32",
          "name": "role",
          "type": "bytes32"
        },
        {
          "internalType": "address",
          "name": "account",
          "type": "address"
        }
      ],
      "name": "revokeRole",
      "outputs": [],
      "stateMutability": "nonpayable",
      "type": "function"
    },
    {
      "inputs": [
        {
          "internalType": "bytes4",
          "name": "interfaceId",
          "type": "bytes4"
        }
      ],
      "name": "supportsInterface",
      "outputs": [
        {
          "internalType": "bool",
          "name": "",
          "type": "bool"
        }
      ],
      "stateMutability": "view",
      "type": "function"
    },
    {
      "inputs": [
        {
          "internalType": "enum PredictionMarket.TokenType",
          "name": "",
          "type": "uint8"
        }
      ],
      "name": "tokenAddresses",
      "outputs": [
        {
          "internalType": "address",
          "name": "",
          "type": "address"
        }
      ],
      "stateMutability": "view",
      "type": "function"
    },
    {
      "inputs": [
        {
          "internalType": "enum PredictionMarket.TokenType",
          "name": "_tokenType",
          "type": "uint8"
        },
        {
          "internalType": "address",
          "name": "_newAddress",
          "type": "address"
        }
      ],
      "name": "updateTokenAddress",
      "outputs": [],
      "stateMutability": "nonpayable",
      "type": "function"
    },
    {
      "inputs": [
        {
          "internalType": "address",
          "name": "",
          "type": "address"
        }
      ],
      "name": "userPoints",
      "outputs": [
        {
          "internalType": "uint256",
          "name": "",
          "type": "uint256"
        }
      ],
      "stateMutability": "view",
      "type": "function"
    },
    {
      "inputs": [
        {
          "internalType": "address",
          "name": "",
          "type": "address"
        },
        {
          "internalType": "uint256",
          "name": "",
          "type": "uint256"
        }
      ],
      "name": "userPredictions",
      "outputs": [
        {
          "internalType": "address",
          "name": "user",
          "type": "address"
        },
        {
          "internalType": "enum PredictionMarket.Asset",
          "name": "asset",
          "type": "uint8"
        },
        {
          "internalType": "uint256",
          "name": "threshold",
          "type": "uint256"
        },
        {
          "internalType": "enum PredictionMarket.Direction",
          "name": "direction",
          "type": "uint8"
        },
        {
          "internalType": "enum PredictionMarket.TimeInterval",
          "name": "interval",
          "type": "uint8"
        },
        {
          "internalType": "enum PredictionMarket.TokenType",
          "name": "tokenType",
          "type": "uint8"
        },
        {
          "internalType": "uint256",
          "name": "amount",
          "type": "uint256"
        },
        {
          "internalType": "uint256",
          "name": "timestamp",
          "type": "uint256"
        },
        {
          "internalType": "uint256",
          "name": "poolId",
          "type": "uint256"
        }
      ],
      "stateMutability": "view",
      "type": "function"
    },
    {
      "inputs": [
        {
          "internalType": "enum PredictionMarket.TokenType",
          "name": "_tokenType",
          "type": "uint8"
        },
        {
          "internalType": "uint256",
          "name": "_amount",
          "type": "uint256"
        }
      ],
      "name": "withdrawCommission",
      "outputs": [],
      "stateMutability": "nonpayable",
      "type": "function"
    }
  ],
  "bytecode": "0x6080346200017c5762001d5190601f38839003908101601f19168201906001600160401b038211838310176200018157808391604095869485528339810103126200017c576200004f8162000197565b6200005e602080930162000197565b91600180556005600091828052828152858320338452815260ff86842054161562000144575b7fa49807205ce4d355092ef5a8a18f56e8913cf4a201fbe287825b095693c21775808452838252868420338552825260ff8785205416156200010a575b508280525283812080546001600160a01b039384166001600160a01b0319918216179091556001825290849020805493909216921691909117905551611b849081620001ad8239f35b8084528382528684203385528252868420600160ff198254161790553390339060008051602062001d318339815191528680a438620000c1565b8280528281528583203384528152858320600160ff1982541617905533338460008051602062001d318339815191528180a462000084565b600080fd5b634e487b7160e01b600052604160045260246000fd5b51906001600160a01b03821682036200017c5756fe608080604052600436101561001357600080fd5b60003560e01c90816301ffc9a7146112bf5750806318e56131146112a15780631a454ea614611285578063248a9ca3146112565780632f2ff15d146111a357806336568abe146111115780633b1dbfcc146110f55780633de6f3791461105857806375b238fc1461101d57806391d1485414610fd05780639a749db014610b0c5780639a78a85814610a5c578063a217fddf14610a40578063a505f689146105b6578063ac4afa381461050c578063aeefe31f146101ee578063b8764c391461049a578063c285f853146102af578063cf0d743714610269578063d547741f14610228578063f50ddbc7146101ee5763f6c331791461011157600080fd5b346101e95760403660031901126101e95761012a611328565b6024359060018060a01b038091166000526003602052604060002080548310156101e9576101209261015b91611355565b508054906001810154600282015460ff81169060ff808260081c169160101c16916003850154936101a860056004880154970154976040519981168a5260ff60208b019160a01c1661133e565b60408801526101b68161134b565b60608701526101c48161134b565b60808601526101d28161134b565b60a085015260c084015260e0830152610100820152f35b600080fd5b346101e95760203660031901126101e9576001600160a01b0361020f611328565b1660005260046020526020604060002054604051908152f35b346101e95760403660031901126101e957610267600435610247611312565b908060005260006020526102626001604060002001546115b9565b611742565b005b346101e95760203660031901126101e95760043560028110156101e95761028f8161134b565b6000526005602052602060018060a01b0360406000205416604051908152f35b346101e9576020806003193601126101e9576001600160a01b0390816102d3611328565b166000526003808252604060002090815467ffffffffffffffff811161048457604051939160059061030983831b850187611720565b82865283860191829560005284600020916000935b8585106103e15750505050505060405192818401908285525180915260408401929160005b8281106103505785850386f35b909192938261012060019287518a8151168252610373848201518584019061133e565b604081015160408301526060808201519061038d8261134b565b830152608080820151906103a08261134b565b83015260a080820151906103b38261134b565b83015260c0818101519083015260e08082015190830152610100908101519082015201950193929101610343565b60068760019260409b999b516103f6816116e7565b8d8854908116825260ff6104128160a093841c16868501611942565b868a0154604084015260028a015481811661042c8161134b565b6060850152818160081c166104408161134b565b608085015260101c16906104538261134b565b8201528588015460c0820152600488015460e08201528688015461010082015281520194019401939297959761031e565b634e487b7160e01b600052604160045260246000fd5b346101e95760203660031901126101e957600435600052600260205260c0604060002060ff815416906001810154906004810154600582015490600b60ff600a85015416930154936104ef604051809761133e565b6020860152604085015260608401521515608083015260a0820152f35b346101e95760203660031901126101e9576004356000526002602052610120604060002060ff81541690600181015490600281015460ff8082169160081c166003830154600484015491600585015493600b60ff600a8801541696015496610577604051809a61133e565b60208901526105858161134b565b60408801526105938161134b565b6060870152608086015260a085015260c0840152151560e0830152610100820152f35b346101e95760403660031901126101e9576105cf611387565b6105d761194e565b60043560005260026020526040600020600a8101805460ff81166109fb57602435156109c55760019060ff1916179055602435600b82015560018101546024351190816000146109ba576004810154915b80156109af576005820154915b81156109a55760068101905b6040518083602082955493848152019060005260206000209260005b81811061098357505061067292500383611720565b6005840293808504600514811517156108a65780606486048103116108a6576106a190606486049003866117b6565b9160005b815181101561092157600581901b8201602001516001600160a01b031690851561090a578160005260088401602052604060002054915b8215801580610901575b6106fc575b50506106f791506119a4565b6106a5565b8387810204871417156108a65788156108eb5760ff600286015460081c166107238161134b565b600090815260056020908152604080832054905163a9059cbb60e01b81526001600160a01b0385811660048301528a88028e90046024830152909116959290919082906044908290895af1801561089a57610786916000916108bc575b506119b3565b816000526004602052604060002093845490600a820182116108a657602495600a60209301905560ff600289015460081c16928c8a60405192020481526107cc8461134b565b8383820152847fcb5f2f472080f2f19d29d0043fd09dbfa0211bd5cb956788902a32ea50d8a59c604060043593a3604051958680926370a0823160e01b82528660048301525afa93841561089a57600094610865575b50604080516106f7957fbd654b55d2a05b8f862e2e2c9fae42214f49c31ef0b1310a690e6db5785dd587936108568161134b565b82526020820152a288806106eb565b93506020843d602011610892575b8161088060209383611720565b810103126101e9579251926040610822565b3d9150610873565b6040513d6000823e3d90fd5b634e487b7160e01b600052601160045260246000fd5b6108de915060203d6020116108e4575b6108d68183611720565b8101906118e3565b8c610780565b503d6108cc565b634e487b7160e01b600052601260045260246000fd5b508915156106e6565b8160005260098401602052604060002054916106dc565b8260648786600160ff85541694015461093d604051809661133e565b6024356020860152604085015260608401520460808201527fad7d5aacbe56d28fa9a202ec0dc05dbbfb4f870b381c9000e52a4b808cffb92660a060043592a260018055005b84546001600160a01b031683526001948501948794506020909301920161065d565b6007810190610641565b600482015491610635565b600581015491610628565b60405162461bcd60e51b815260206004820152600e60248201526d11d958d95c9cda5e88199a5e585d60921b6044820152606490fd5b60405162461bcd60e51b815260206004820152601c60248201527f486176757a207a6174656e20736f6e75636c616e646972696c6d6973000000006044820152606490fd5b346101e95760003660031901126101e957602060405160008152f35b346101e95760403660031901126101e95760043560028110156101e957610a81611387565b610a8961194e565b610a928161134b565b600090815260056020908152604080832054905163a9059cbb60e01b8152336004820152602480359082015292839160449183916001600160a01b03165af1801561089a57610ae891600091610aee57506119b3565b60018055005b610b06915060203d81116108e4576108d68183611720565b82610780565b346101e95760c03660031901126101e957600360043510156101e957600260443510156101e957600260643510156101e957600260843510156101e957610b5161194e565b60a43515610f8b5760243515610f4f57610b6c60843561134b565b60843560009081526005602090815260408083205490516323b872dd60e01b815233600482015230602482015260a435604482015292839160649183916001600160a01b03165af190811561089a57600091610f30575b5015610eeb57610bdd6084356064356024356004356119f4565b8060005260026020526040600020610bf660443561134b565b604435610e8a5760048101610c0e60a43582546117b6565b90556008810190336000528160205260406000205415610e76575b50336000526020526040600020610c4360a43582546117b6565b90555b60405190610c53826116e7565b3382526020820191610c6760043584611942565b6024356040820152610c7a60443561134b565b6044356060820152610c8d60643561134b565b6064356080820152610ca060843561134b565b60843560a082015260a43560c08201524260e08201528161010082015233600052600360205260406000208054600160401b81101561048457610ce891600182018155611355565b919091610e6057805182546001600160a01b039091166001600160a01b031982168117845594519094916003821015610e4a576020956005936101009360ff60a01b9060a01b16916affffffffffffffffffffff60a81b161717845560408101516001850155600284016060820151610d608161134b565b610d698161134b565b815461ff00608085015191610d7d8361134b565b610d868361134b565b60ff62ff000060a0880151610d9a8161134b565b610da38161134b565b60101b1694169062ffffff1916179160081b161717905560c0810151600385015560e08101516004850155015191015580604051610de38160043561133e565b60243584820152610df560443561134b565b604435604082015260a4356060820152610e1060843561134b565b60843560808201527f5e1e3e5a1884501b032aeadf4d458f1ff589ad1479d8c88f2b58d0592c6159a260a03392a360018055604051908152f35b634e487b7160e01b600052602160045260246000fd5b634e487b7160e01b600052600060045260246000fd5b610e849060063391016118fb565b82610c29565b60058101610e9b60a43582546117b6565b90556009810190336000528160205260406000205415610ed7575b50336000526020526040600020610ed060a43582546117b6565b9055610c46565b610ee59060073391016118fb565b82610eb6565b60405162461bcd60e51b815260206004820152601960248201527f546f6b656e207472616e73666572692062617361726973697a000000000000006044820152606490fd5b610f49915060203d6020116108e4576108d68183611720565b81610bc3565b60405162461bcd60e51b815260206004820152601460248201527322b9b4b5903232b3b2b9349033b2b1b2b939b4bd60611b6044820152606490fd5b60405162461bcd60e51b815260206004820152601c60248201527f4d696b74617220736966697264616e20627579756b206f6c6d616c69000000006044820152606490fd5b346101e95760403660031901126101e957610fe9611312565b600435600052600060205260406000209060018060a01b0316600052602052602060ff604060002054166040519015158152f35b346101e95760003660031901126101e95760206040517fa49807205ce4d355092ef5a8a18f56e8913cf4a201fbe287825b095693c217758152f35b346101e95760403660031901126101e95760043560028110156101e95761107d611312565b611085611387565b6001600160a01b03169081156110bf5761109e8161134b565b600090815260056020526040902080546001600160a01b0319169091179055005b60405162461bcd60e51b815260206004820152600e60248201526d476563657273697a20616472657360901b6044820152606490fd5b346101e95760003660031901126101e957602060405160648152f35b346101e95760403660031901126101e95761112a611312565b336001600160a01b038216036111465761026790600435611742565b60405162461bcd60e51b815260206004820152602f60248201527f416363657373436f6e74726f6c3a2063616e206f6e6c792072656e6f756e636560448201526e103937b632b9903337b91039b2b63360891b6064820152608490fd5b346101e95760403660031901126101e9576004356111bf611312565b8160005260006020526111d96001604060002001546115b9565b81600052600060205260406000209060018060a01b0316908160005260205260ff604060002054161561120857005b8160005260006020526040600020816000526020526040600020600160ff1982541617905533917f2f8788117e7eff1d82e926ec794901d17c78024a50270940304540a733656f0d600080a4005b346101e95760203660031901126101e95760043560005260006020526020600160406000200154604051908152f35b346101e95760003660031901126101e957602060405160058152f35b346101e95760003660031901126101e9576020600654604051908152f35b346101e95760203660031901126101e9576004359063ffffffff60e01b82168092036101e957602091637965db0b60e01b8114908115611301575b5015158152f35b6301ffc9a760e01b149050836112fa565b602435906001600160a01b03821682036101e957565b600435906001600160a01b03821682036101e957565b906003821015610e4a5752565b60021115610e4a57565b8054821015611371576000526006602060002091020190600090565b634e487b7160e01b600052603260045260246000fd5b3360009081527f7d7ffb7a348e1c6a02869081a26547b49160dd3df72d1d75a570eb9b698292ec6020908152604080832054909291907fa49807205ce4d355092ef5a8a18f56e8913cf4a201fbe287825b095693c217759060ff16156113ed5750505050565b6113f6336117d4565b9084519061140382611704565b604282528382019460603687378251156115a557603086538251906001918210156115a55790607860218501536041915b818311611537575050506114f557846114c360486114e79360449798519889916114b48984019876020b1b1b2b9b9a1b7b73a3937b61d1030b1b1b7bab73a1604d1b8a5261148b815180928d6037890191016116c4565b8401917001034b99036b4b9b9b4b733903937b6329607d1b6037840152518093868401906116c4565b01036028810189520187611720565b5194859362461bcd60e51b85526004850152518092816024860152858501906116c4565b601f01601f19168101030190fd5b60648386519062461bcd60e51b825280600483015260248201527f537472696e67733a20686578206c656e67746820696e73756666696369656e746044820152fd5b909192600f81166010811015611591576f181899199a1a9b1b9c1cb0b131b232b360811b901a61156785876117c3565b5360041c92801561157d57600019019190611434565b634e487b7160e01b82526011600452602482fd5b634e487b7160e01b83526032600452602483fd5b634e487b7160e01b81526032600452602490fd5b60008181526020818152604092838320338452825260ff8484205416156115e05750505050565b6115e9336117d4565b908451906115f682611704565b604282528382019460603687378251156115a557603086538251906001918210156115a55790607860218501536041915b81831161167e575050506114f557846114c360486114e79360449798519889916114b48984019876020b1b1b2b9b9a1b7b73a3937b61d1030b1b1b7bab73a1604d1b8a5261148b815180928d6037890191016116c4565b909192600f81166010811015611591576f181899199a1a9b1b9c1cb0b131b232b360811b901a6116ae85876117c3565b5360041c92801561157d57600019019190611627565b60005b8381106116d75750506000910152565b81810151838201526020016116c7565b610120810190811067ffffffffffffffff82111761048457604052565b6080810190811067ffffffffffffffff82111761048457604052565b90601f8019910116810190811067ffffffffffffffff82111761048457604052565b9060009180835282602052604083209160018060a01b03169182845260205260ff60408420541661177257505050565b80835282602052604083208284526020526040832060ff1981541690557ff6391f5c32d9c69d2a47ea670b442974b53935d1edc7fd64eb21e047a839171b339380a4565b919082018092116108a657565b908151811015611371570160200190565b604051906060820182811067ffffffffffffffff82111761048457604052602a82526020820160403682378251156113715760309053815160019081101561137157607860218401536029905b8082116118755750506118315790565b606460405162461bcd60e51b815260206004820152602060248201527f537472696e67733a20686578206c656e67746820696e73756666696369656e746044820152fd5b9091600f811660108110156118ce576f181899199a1a9b1b9c1cb0b131b232b360811b901a6118a484866117c3565b5360041c9180156118b9576000190190611821565b60246000634e487b7160e01b81526011600452fd5b60246000634e487b7160e01b81526032600452fd5b908160209103126101e9575180151581036101e95790565b805490600160401b8210156104845760018201808255821015611371576000526020600020019060018060a01b03166bffffffffffffffffffffffff60a01b825416179055565b6003821015610e4a5752565b60026001541461195f576002600155565b60405162461bcd60e51b815260206004820152601f60248201527f5265656e7472616e637947756172643a207265656e7472616e742063616c6c006044820152606490fd5b60001981146108a65760010190565b156119ba57565b60405162461bcd60e51b81526020600482015260126024820152712a3930b739b332b9103130b9b0b934b9b4bd60711b6044820152606490fd5b91600093600654945b858110611a7f5750611a0e856119a4565b6006558460005260026020526040600020916003851015610e4a57600a9360ff199560ff87865416911617845560018401556002830191611a4e8261134b565b60ff61ff00845492611a5f8161134b565b60081b1692169061ffff1916171790554260038201550190815416905590565b806000526002806020528260406000209160ff9081600a85015416159384611b2a575b84611b1c575b84611afa575b84611ad3575b50505050611aca57611ac5906119a4565b6119fd565b94505050505090565b9091929350015460081c16611ae78261134b565b611af08161134b565b1482388080611ab4565b935086828286015416611b0c8261134b565b611b158161134b565b1493611aae565b600181015489149450611aa8565b8054909450821692506003808a1015610e4a57831015610e4a578886931493611aa256fea26469706673582212202b96709d9200fd9ea8dcf71ac92e868d3b9a7e0c46704acbd81737d9f592d1ca64736f6c634300081400332f8788117e7eff1d82e926ec794901d17c78024a50270940304540a733656f0d",
  "linkReferences": {},
  "deployedLinkReferences": {}
}