{
  "_format": "hh-sol-artifact-1",
  "contractName": "PredictionMarket",
  "sourceName": "src/contracts/PredictionMarket.sol",
  "abi": [
    {
      "inputs": [
        {
          "internalType": "address",
          "name": "_usdcAddress",
          "type": "address"
        },
        {
          "internalType": "address",
          "name": "_usdtAddress",
          "type": "address"
        }
      ],
      "stateMutability": "nonpayable",
      "type": "constructor"
    },
    {
      "anonymous": false,
      "inputs": [
        {
          "indexed": true,
          "internalType": "bytes32",
          "name": "role",
          "type": "bytes32"
        },
        {
          "indexed": true,
          "internalType": "bytes32",
          "name": "previousAdminRole",
          "type": "bytes32"
        },
        {
          "indexed": true,
          "internalType": "bytes32",
          "name": "newAdminRole",
          "type": "bytes32"
        }
      ],
      "name": "RoleAdminChanged",
      "type": "event"
    },
    {
      "anonymous": false,
      "inputs": [
        {
          "indexed": true,
          "internalType": "bytes32",
          "name": "role",
          "type": "bytes32"
        },
        {
          "indexed": true,
          "internalType": "address",
          "name": "account",
          "type": "address"
        },
        {
          "indexed": true,
          "internalType": "address",
          "name": "sender",
          "type": "address"
        }
      ],
      "name": "RoleGranted",
      "type": "event"
    },
    {
      "anonymous": false,
      "inputs": [
        {
          "indexed": true,
          "internalType": "bytes32",
          "name": "role",
          "type": "bytes32"
        },
        {
          "indexed": true,
          "internalType": "address",
          "name": "account",
          "type": "address"
        },
        {
          "indexed": true,
          "internalType": "address",
          "name": "sender",
          "type": "address"
        }
      ],
      "name": "RoleRevoked",
      "type": "event"
    },
    {
      "inputs": [],
      "name": "ADMIN_ROLE",
      "outputs": [
        {
          "internalType": "bytes32",
          "name": "",
          "type": "bytes32"
        }
      ],
      "stateMutability": "view",
      "type": "function"
    },
    {
      "inputs": [],
      "name": "COMMISSION_DENOMINATOR",
      "outputs": [
        {
          "internalType": "uint256",
          "name": "",
          "type": "uint256"
        }
      ],
      "stateMutability": "view",
      "type": "function"
    },
    {
      "inputs": [],
      "name": "COMMISSION_RATE",
      "outputs": [
        {
          "internalType": "uint256",
          "name": "",
          "type": "uint256"
        }
      ],
      "stateMutability": "view",
      "type": "function"
    },
    {
      "inputs": [],
      "name": "DEFAULT_ADMIN_ROLE",
      "outputs": [
        {
          "internalType": "bytes32",
          "name": "",
          "type": "bytes32"
        }
      ],
      "stateMutability": "view",
      "type": "function"
    },
    {
      "inputs": [
        {
          "internalType": "bytes32",
          "name": "",
          "type": "bytes32"
        }
      ],
      "name": "activePoolIds",
      "outputs": [
        {
          "internalType": "uint256",
          "name": "",
          "type": "uint256"
        }
      ],
      "stateMutability": "view",
      "type": "function"
    },
    {
      "inputs": [
        {
          "internalType": "enum PredictionMarket.Asset",
          "name": "_asset",
          "type": "uint8"
        },
        {
          "internalType": "uint256",
          "name": "_threshold",
          "type": "uint256"
        },
        {
          "internalType": "enum PredictionMarket.Direction",
          "name": "_direction",
          "type": "uint8"
        },
        {
          "internalType": "enum PredictionMarket.TimeInterval",
          "name": "_interval",
          "type": "uint8"
        },
        {
          "internalType": "enum PredictionMarket.TokenType",
          "name": "_tokenType",
          "type": "uint8"
        },
        {
          "internalType": "uint256",
          "name": "_amount",
          "type": "uint256"
        }
      ],
      "name": "createPrediction",
      "outputs": [
        {
          "internalType": "uint256",
          "name": "",
          "type": "uint256"
        }
      ],
      "stateMutability": "nonpayable",
      "type": "function"
    },
    {
      "inputs": [
        {
          "internalType": "bytes32",
          "name": "role",
          "type": "bytes32"
        }
      ],
      "name": "getRoleAdmin",
      "outputs": [
        {
          "internalType": "bytes32",
          "name": "",
          "type": "bytes32"
        }
      ],
      "stateMutability": "view",
      "type": "function"
    },
    {
      "inputs": [
        {
          "internalType": "bytes32",
          "name": "role",
          "type": "bytes32"
        },
        {
          "internalType": "address",
          "name": "account",
          "type": "address"
        }
      ],
      "name": "grantRole",
      "outputs": [],
      "stateMutability": "nonpayable",
      "type": "function"
    },
    {
      "inputs": [
        {
          "internalType": "bytes32",
          "name": "role",
          "type": "bytes32"
        },
        {
          "internalType": "address",
          "name": "account",
          "type": "address"
        }
      ],
      "name": "hasRole",
      "outputs": [
        {
          "internalType": "bool",
          "name": "",
          "type": "bool"
        }
      ],
      "stateMutability": "view",
      "type": "function"
    },
    {
      "inputs": [],
      "name": "nextPoolId",
      "outputs": [
        {
          "internalType": "uint256",
          "name": "",
          "type": "uint256"
        }
      ],
      "stateMutability": "view",
      "type": "function"
    },
    {
      "inputs": [
        {
          "internalType": "uint256",
          "name": "",
          "type": "uint256"
        }
      ],
      "name": "pools",
      "outputs": [
        {
          "internalType": "enum PredictionMarket.Asset",
          "name": "asset",
          "type": "uint8"
        },
        {
          "internalType": "uint256",
          "name": "threshold",
          "type": "uint256"
        },
        {
          "internalType": "enum PredictionMarket.TimeInterval",
          "name": "interval",
          "type": "uint8"
        },
        {
          "internalType": "enum PredictionMarket.TokenType",
          "name": "tokenType",
          "type": "uint8"
        },
        {
          "internalType": "uint256",
          "name": "timestamp",
          "type": "uint256"
        },
        {
          "internalType": "uint256",
          "name": "abovePool",
          "type": "uint256"
        },
        {
          "internalType": "uint256",
          "name": "belowPool",
          "type": "uint256"
        },
        {
          "internalType": "bool",
          "name": "resolved",
          "type": "bool"
        },
        {
          "internalType": "uint256",
          "name": "finalPrice",
          "type": "uint256"
        }
      ],
      "stateMutability": "view",
      "type": "function"
    },
    {
      "inputs": [
        {
          "internalType": "bytes32",
          "name": "role",
          "type": "bytes32"
        },
        {
          "internalType": "address",
          "name": "account",
          "type": "address"
        }
      ],
      "name": "renounceRole",
      "outputs": [],
      "stateMutability": "nonpayable",
      "type": "function"
    },
    {
      "inputs": [
        {
          "internalType": "uint256",
          "name": "_poolId",
          "type": "uint256"
        },
        {
          "internalType": "uint256",
          "name": "_actualPrice",
          "type": "uint256"
        }
      ],
      "name": "resolvePool",
      "outputs": [],
      "stateMutability": "nonpayable",
      "type": "function"
    },
    {
      "inputs": [
        {
          "internalType": "bytes32",
          "name": "role",
          "type": "bytes32"
        },
        {
          "internalType": "address",
          "name": "account",
          "type": "address"
        }
      ],
      "name": "revokeRole",
      "outputs": [],
      "stateMutability": "nonpayable",
      "type": "function"
    },
    {
      "inputs": [
        {
          "internalType": "bytes4",
          "name": "interfaceId",
          "type": "bytes4"
        }
      ],
      "name": "supportsInterface",
      "outputs": [
        {
          "internalType": "bool",
          "name": "",
          "type": "bool"
        }
      ],
      "stateMutability": "view",
      "type": "function"
    },
    {
      "inputs": [
        {
          "internalType": "enum PredictionMarket.TokenType",
          "name": "",
          "type": "uint8"
        }
      ],
      "name": "tokenAddresses",
      "outputs": [
        {
          "internalType": "address",
          "name": "",
          "type": "address"
        }
      ],
      "stateMutability": "view",
      "type": "function"
    },
    {
      "inputs": [
        {
          "internalType": "address",
          "name": "",
          "type": "address"
        }
      ],
      "name": "userPoints",
      "outputs": [
        {
          "internalType": "uint256",
          "name": "",
          "type": "uint256"
        }
      ],
      "stateMutability": "view",
      "type": "function"
    },
    {
      "inputs": [
        {
          "internalType": "address",
          "name": "",
          "type": "address"
        },
        {
          "internalType": "uint256",
          "name": "",
          "type": "uint256"
        }
      ],
      "name": "userPredictions",
      "outputs": [
        {
          "internalType": "address",
          "name": "user",
          "type": "address"
        },
        {
          "internalType": "enum PredictionMarket.Asset",
          "name": "asset",
          "type": "uint8"
        },
        {
          "internalType": "uint256",
          "name": "threshold",
          "type": "uint256"
        },
        {
          "internalType": "enum PredictionMarket.Direction",
          "name": "direction",
          "type": "uint8"
        },
        {
          "internalType": "enum PredictionMarket.TimeInterval",
          "name": "interval",
          "type": "uint8"
        },
        {
          "internalType": "enum PredictionMarket.TokenType",
          "name": "tokenType",
          "type": "uint8"
        },
        {
          "internalType": "uint256",
          "name": "amount",
          "type": "uint256"
        },
        {
          "internalType": "uint256",
          "name": "timestamp",
          "type": "uint256"
        },
        {
          "internalType": "uint256",
          "name": "poolId",
          "type": "uint256"
        }
      ],
      "stateMutability": "view",
      "type": "function"
    }
  ],
  "bytecode": "0x6080346200017d576200174590601f38839003908101601f19168201906001600160401b038211838310176200018257808391604095869485528339810103126200017d576200004f8162000198565b6200005e602080930162000198565b9183600191828055826007556005600091828052828152838320338452815260ff84842054161562000146575b7fa49807205ce4d355092ef5a8a18f56e8913cf4a201fbe287825b095693c21775808452838252848420338552825260ff8585205416156200010d575b508280525281812080546001600160a01b039586166001600160a01b031991821617909155928152208054939092169216919091179055516115779081620001ae8239f35b80845283825284842033855282528484208660ff1982541617905533903390600080516020620017258339815191528680a438620000c8565b82805282815283832033845281528383208560ff19825416179055333384600080516020620017258339815191528180a46200008b565b600080fd5b634e487b7160e01b600052604160045260246000fd5b51906001600160a01b03821682036200017d5756fe608080604052600436101561001357600080fd5b60003560e01c90816301ffc9a714610e215750806318e5613114610e035780631a454ea614610de7578063248a9ca314610db85780632f2ff15d14610d0557806336568abe14610c735780633b1dbfcc14610c5757806375b238fc14610c1c57806391d1485414610bcf5780639a749db01461065a578063a217fddf1461063e578063a505f68914610359578063ac4afa38146102af578063cf0d743714610269578063d547741f14610228578063f50ddbc7146101ee578063f6c33179146101165763f9862a16146100e557600080fd5b346101115760203660031901126101115760043560005260066020526020604060002054604051908152f35b600080fd5b346101115760403660031901126101115761012f610e8a565b6024359060018060a01b03809116600052600360205260406000208054831015610111576101209261016091610ecd565b508054906001810154600282015460ff81169060ff808260081c169160101c16916003850154936101ad60056004880154970154976040519981168a5260ff60208b019160a01c16610ea0565b60408801526101bb81610ec3565b60608701526101c981610ec3565b60808601526101d781610ec3565b60a085015260c084015260e0830152610100820152f35b34610111576020366003190112610111576001600160a01b0361020f610e8a565b1660005260046020526020604060002054604051908152f35b3461011157604036600319011261011157610267600435610247610e74565b90806000526000602052610262600160406000200154610ee9565b611138565b005b346101115760203660031901126101115760043560028110156101115761028f81610ec3565b6000526005602052602060018060a01b0360406000205416604051908152f35b34610111576020366003190112610111576004356000526002602052610120604060002060ff81541690600181015490600281015460ff8082169160081c166003830154600484015491600585015493600b60ff600a880154169601549661031a604051809a610ea0565b602089015261032881610ec3565b604088015261033681610ec3565b6060870152608086015260a085015260c0840152151560e0830152610100820152f35b34610111576040366003190112610111573360009081527f7d7ffb7a348e1c6a02869081a26547b49160dd3df72d1d75a570eb9b698292ec60209081526040909120547fa49807205ce4d355092ef5a8a18f56e8913cf4a201fbe287825b095693c217759060ff161561049e57506103cf611320565b60043560005260028152604060002090600a82019182549260ff841661045957600160069460ff1916179055602435600b82015560ff81541661044260026001840154930154916104346040519384928784019660ff808460081c1693169188611407565b03601f1981018352826110ea565b519020600052526000604081205560018055600080f35b60405162461bcd60e51b815260048101849052601c60248201527f486176757a207a6174656e20736f6e75636c616e646972696c6d6973000000006044820152606490fd5b6104a7336111ca565b604051906104b4826110b8565b604282528382019260603685378251156106285760308453825160019081101561062857607860218501536041905b8082116105ce57505061058b57610587936105379361056f93610560604894604051978576020b1b1b2b9b9a1b7b73a3937b61d1030b1b1b7bab73a1604d1b8a978801528251928391603789019101611095565b8401917001034b99036b4b9b9b4b733903937b6329607d1b603784015251809386840190611095565b010360288101845201826110ea565b60405162461bcd60e51b81529182916004830161110c565b0390fd5b6064846040519062461bcd60e51b825280600483015260248201527f537472696e67733a20686578206c656e67746820696e73756666696369656e746044820152fd5b9091600f81166010811015610628576f181899199a1a9b1b9c1cb0b131b232b360811b901a6105fd84876111b9565b5360041c9180156106125760001901906104e3565b634e487b7160e01b600052601160045260246000fd5b634e487b7160e01b600052603260045260246000fd5b3461011157600036600319011261011157602060405160008152f35b346101115760c036600319011261011157600360043510156101115760026044351015610111576002606435101561011157600260843510156101115761069f611320565b60a43515610b8a576024803515610b4f576106bb608435610ec3565b608435600052600560205260018060a01b0360406000205416604051906323b872dd60e01b6020830152338383015230604483015260a4356064830152606482528160a081011067ffffffffffffffff60a084011117610a125760a0820160e083011067ffffffffffffffff60e084011117610a125760e08201604052602060a08301527f5361666545524332303a206c6f772d6c6576656c2063616c6c206661696c656460c083015260008083516020850182855af13d15610b40573d9067ffffffffffffffff8211610b2b5760a06107b994604051936107a76020601f19601f84011601866110ea565b84523d6000602086013e5b0192611376565b8051908115918215610b08575b505015610ab1576107e06084356064358335600435611447565b80600052600260205260406000206107f9604435610ec3565b604435610a50576004810161081160a43582546111ac565b90556008810190336000528160205260406000205415610a3c575b5033600052602052604060002061084660a43582546111ac565b90555b33600052600360205260406000209160405190610120820182811067ffffffffffffffff821117610a27576040523382526020820160043581526040830182358152606084019061089b604435610ec3565b604435825260808501906108b0606435610ec3565b606435825260a08601906108c5608435610ec3565b608435825260c087019460a435865260e088019642885261010089019a8a8c52805490600160401b821015610a12579061090491600182018155610ecd565b9990996109fd575189546001600160a01b039091166001600160a01b0319821681178b55925190929160038210156109e957509160209b9795939160059997959360ff60a01b9060a01b16916affffffffffffffffffffff60a81b161717895551600189015561ff006002890193519261097d84610ec3565b61098684610ec3565b60ff62ff0000865492519461099a86610ec3565b6109a386610ec3565b516109ad81610ec3565b6109b681610ec3565b60101b1694169062ffffff1916179160081b16171790555160038501555160048401555191015560018055604051908152f35b634e487b7160e01b60009081526021600452fd5b50634e487b7160e01b60005260006004526000fd5b82634e487b7160e01b60005260416004526000fd5b50634e487b7160e01b60009081526041600452fd5b610a4a9060063391016112d9565b8361082c565b60058101610a6160a43582546111ac565b90556009810190336000528160205260406000205415610a9d575b50336000526020526040600020610a9660a43582546111ac565b9055610849565b610aab9060073391016112d9565b83610a7c565b608490602a6040519162461bcd60e51b8352602060048401528201527f5361666545524332303a204552433230206f7065726174696f6e20646964206e6044820152691bdd081cdd58d8d9595960b21b6064820152fd5b8192509060209181010312610111576020015180151581036101115782806107c6565b84634e487b7160e01b60005260416004526000fd5b916107b99260a06060926107b2565b60649060146040519162461bcd60e51b8352602060048401528201527322b9b4b5903232b3b2b9349033b2b1b2b939b4bd60611b6044820152fd5b60405162461bcd60e51b815260206004820152601c60248201527f4d696b74617220736966697264616e20627579756b206f6c6d616c69000000006044820152606490fd5b3461011157604036600319011261011157610be8610e74565b600435600052600060205260406000209060018060a01b0316600052602052602060ff604060002054166040519015158152f35b346101115760003660031901126101115760206040517fa49807205ce4d355092ef5a8a18f56e8913cf4a201fbe287825b095693c217758152f35b3461011157600036600319011261011157602060405160648152f35b3461011157604036600319011261011157610c8c610e74565b336001600160a01b03821603610ca85761026790600435611138565b60405162461bcd60e51b815260206004820152602f60248201527f416363657373436f6e74726f6c3a2063616e206f6e6c792072656e6f756e636560448201526e103937b632b9903337b91039b2b63360891b6064820152608490fd5b3461011157604036600319011261011157600435610d21610e74565b816000526000602052610d3b600160406000200154610ee9565b81600052600060205260406000209060018060a01b0316908160005260205260ff6040600020541615610d6a57005b8160005260006020526040600020816000526020526040600020600160ff1982541617905533917f2f8788117e7eff1d82e926ec794901d17c78024a50270940304540a733656f0d600080a4005b346101115760203660031901126101115760043560005260006020526020600160406000200154604051908152f35b3461011157600036600319011261011157602060405160058152f35b34610111576000366003190112610111576020600754604051908152f35b34610111576020366003190112610111576004359063ffffffff60e01b821680920361011157602091637965db0b60e01b8114908115610e63575b5015158152f35b6301ffc9a760e01b14905083610e5c565b602435906001600160a01b038216820361011157565b600435906001600160a01b038216820361011157565b906003821015610ead5752565b634e487b7160e01b600052602160045260246000fd5b60021115610ead57565b8054821015610628576000526006602060002091020190600090565b6000818152602090808252604092838220338352835260ff848320541615610f115750505050565b610f1a336111ca565b845191610f26836110b8565b6042835284830193606036863783511561108157603085538351906001918210156110815790607860218601536041915b81831161101357505050610fd157610537938593610fbb93610fac6048946105879951988576020b1b1b2b9b9a1b7b73a3937b61d1030b1b1b7bab73a1604d1b8b978801528251928391603789019101611095565b010360288101855201836110ea565b5162461bcd60e51b81529182916004830161110c565b60648486519062461bcd60e51b825280600483015260248201527f537472696e67733a20686578206c656e67746820696e73756666696369656e746044820152fd5b909192600f8116601081101561106d576f181899199a1a9b1b9c1cb0b131b232b360811b901a61104385886111b9565b5360041c92801561105957600019019190610f57565b634e487b7160e01b82526011600452602482fd5b634e487b7160e01b83526032600452602483fd5b634e487b7160e01b81526032600452602490fd5b60005b8381106110a85750506000910152565b8181015183820152602001611098565b6080810190811067ffffffffffffffff8211176110d457604052565b634e487b7160e01b600052604160045260246000fd5b90601f8019910116810190811067ffffffffffffffff8211176110d457604052565b6040916020825261112c8151809281602086015260208686019101611095565b601f01601f1916010190565b9060009180835282602052604083209160018060a01b03169182845260205260ff60408420541661116857505050565b80835282602052604083208284526020526040832060ff1981541690557ff6391f5c32d9c69d2a47ea670b442974b53935d1edc7fd64eb21e047a839171b339380a4565b9190820180921161061257565b908151811015610628570160200190565b604051906060820182811067ffffffffffffffff8211176110d457604052602a82526020820160403682378251156106285760309053815160019081101561062857607860218401536029905b80821161126b5750506112275790565b606460405162461bcd60e51b815260206004820152602060248201527f537472696e67733a20686578206c656e67746820696e73756666696369656e746044820152fd5b9091600f811660108110156112c4576f181899199a1a9b1b9c1cb0b131b232b360811b901a61129a84866111b9565b5360041c9180156112af576000190190611217565b60246000634e487b7160e01b81526011600452fd5b60246000634e487b7160e01b81526032600452fd5b805490600160401b8210156110d45760018201808255821015610628576000526020600020019060018060a01b03166bffffffffffffffffffffffff60a01b825416179055565b600260015414611331576002600155565b60405162461bcd60e51b815260206004820152601f60248201527f5265656e7472616e637947756172643a207265656e7472616e742063616c6c006044820152606490fd5b919290156113d8575081511561138a575090565b3b156113935790565b60405162461bcd60e51b815260206004820152601d60248201527f416464726573733a2063616c6c20746f206e6f6e2d636f6e74726163740000006044820152606490fd5b8251909150156113eb5750805190602001fd5b60405162461bcd60e51b8152908190610587906004830161110c565b929093916003851015610ead5760239460f81b8452600184015261142a81610ec3565b60f81b602183015261143b81610ec3565b60f81b60228201520190565b9291926040516020810190611463816104348789888888611407565b5190209160009383855260066020526040852054806115375750600754956000198714611523576001870160075586865260026020526040862092600385101561150f579287969492600a926040979560ff199560ff878654169116178455600184015560028301916114d582610ec3565b60ff61ff008454926114e681610ec3565b60081b1692169061ffff1916171790554260038201550190815416905581526006602052205590565b634e487b7160e01b87526021600452602487fd5b634e487b7160e01b86526011600452602486fd5b955050505050509056fea26469706673582212203005512a4b8c0bf5cf89584fa6425a7e0d1bf09441ae5737c3e89b36b58988b764736f6c634300081400332f8788117e7eff1d82e926ec794901d17c78024a50270940304540a733656f0d",
  "linkReferences": {},
  "deployedLinkReferences": {}
}