{"src/contracts/PredictionMarket.sol":{"PredictionMarket":{"abi":[{"inputs":[{"internalType":"address","name":"_usdcAddress","type":"address"},{"internalType":"address","name":"_usdtAddress","type":"address"}],"stateMutability":"nonpayable","type":"constructor"},{"anonymous":false,"inputs":[{"indexed":true,"internalType":"address","name":"user","type":"address"},{"indexed":false,"internalType":"enum PredictionMarket.TokenType","name":"tokenType","type":"uint8"},{"indexed":false,"internalType":"uint256","name":"newBalance","type":"uint256"}],"name":"BalanceUpdated","type":"event"},{"anonymous":false,"inputs":[{"indexed":true,"internalType":"uint256","name":"poolId","type":"uint256"},{"indexed":false,"internalType":"enum PredictionMarket.Asset","name":"asset","type":"uint8"},{"indexed":false,"internalType":"uint256","name":"finalPrice","type":"uint256"},{"indexed":false,"internalType":"uint256","name":"threshold","type":"uint256"},{"indexed":false,"internalType":"uint256","name":"totalWinnings","type":"uint256"},{"indexed":false,"internalType":"uint256","name":"commission","type":"uint256"}],"name":"PoolResolved","type":"event"},{"anonymous":false,"inputs":[{"indexed":true,"internalType":"address","name":"user","type":"address"},{"indexed":true,"internalType":"uint256","name":"poolId","type":"uint256"},{"indexed":false,"internalType":"enum PredictionMarket.Asset","name":"asset","type":"uint8"},{"indexed":false,"internalType":"uint256","name":"threshold","type":"uint256"},{"indexed":false,"internalType":"enum PredictionMarket.Direction","name":"direction","type":"uint8"},{"indexed":false,"internalType":"uint256","name":"amount","type":"uint256"},{"indexed":false,"internalType":"enum PredictionMarket.TokenType","name":"tokenType","type":"uint8"}],"name":"PredictionCreated","type":"event"},{"anonymous":false,"inputs":[{"indexed":true,"internalType":"address","name":"user","type":"address"},{"indexed":true,"internalType":"uint256","name":"poolId","type":"uint256"},{"indexed":false,"internalType":"uint256","name":"amount","type":"uint256"},{"indexed":false,"internalType":"enum PredictionMarket.TokenType","name":"tokenType","type":"uint8"}],"name":"RewardDistributed","type":"event"},{"anonymous":false,"inputs":[{"indexed":true,"internalType":"bytes32","name":"role","type":"bytes32"},{"indexed":true,"internalType":"bytes32","name":"previousAdminRole","type":"bytes32"},{"indexed":true,"internalType":"bytes32","name":"newAdminRole","type":"bytes32"}],"name":"RoleAdminChanged","type":"event"},{"anonymous":false,"inputs":[{"indexed":true,"internalType":"bytes32","name":"role","type":"bytes32"},{"indexed":true,"internalType":"address","name":"account","type":"address"},{"indexed":true,"internalType":"address","name":"sender","type":"address"}],"name":"RoleGranted","type":"event"},{"anonymous":false,"inputs":[{"indexed":true,"internalType":"bytes32","name":"role","type":"bytes32"},{"indexed":true,"internalType":"address","name":"account","type":"address"},{"indexed":true,"internalType":"address","name":"sender","type":"address"}],"name":"RoleRevoked","type":"event"},{"inputs":[],"name":"ADMIN_ROLE","outputs":[{"internalType":"bytes32","name":"","type":"bytes32"}],"stateMutability":"view","type":"function"},{"inputs":[],"name":"COMMISSION_DENOMINATOR","outputs":[{"internalType":"uint256","name":"","type":"uint256"}],"stateMutability":"view","type":"function"},{"inputs":[],"name":"COMMISSION_RATE","outputs":[{"internalType":"uint256","name":"","type":"uint256"}],"stateMutability":"view","type":"function"},{"inputs":[],"name":"DEFAULT_ADMIN_ROLE","outputs":[{"internalType":"bytes32","name":"","type":"bytes32"}],"stateMutability":"view","type":"function"},{"inputs":[{"internalType":"enum PredictionMarket.Asset","name":"_asset","type":"uint8"},{"internalType":"uint256","name":"_threshold","type":"uint256"},{"internalType":"enum PredictionMarket.Direction","name":"_direction","type":"uint8"},{"internalType":"enum PredictionMarket.TimeInterval","name":"_interval","type":"uint8"},{"internalType":"enum PredictionMarket.TokenType","name":"_tokenType","type":"uint8"},{"internalType":"uint256","name":"_amount","type":"uint256"}],"name":"createPrediction","outputs":[{"internalType":"uint256","name":"","type":"uint256"}],"stateMutability":"nonpayable","type":"function"},{"inputs":[{"internalType":"uint256","name":"_poolId","type":"uint256"}],"name":"getPoolDetails","outputs":[{"internalType":"enum PredictionMarket.Asset","name":"asset","type":"uint8"},{"internalType":"uint256","name":"threshold","type":"uint256"},{"internalType":"uint256","name":"abovePool","type":"uint256"},{"internalType":"uint256","name":"belowPool","type":"uint256"},{"internalType":"bool","name":"resolved","type":"bool"},{"internalType":"uint256","name":"finalPrice","type":"uint256"}],"stateMutability":"view","type":"function"},{"inputs":[{"internalType":"bytes32","name":"role","type":"bytes32"}],"name":"getRoleAdmin","outputs":[{"internalType":"bytes32","name":"","type":"bytes32"}],"stateMutability":"view","type":"function"},{"inputs":[{"internalType":"address","name":"_user","type":"address"}],"name":"getUserPoints","outputs":[{"internalType":"uint256","name":"","type":"uint256"}],"stateMutability":"view","type":"function"},{"inputs":[{"internalType":"address","name":"_user","type":"address"}],"name":"getUserPredictions","outputs":[{"components":[{"internalType":"address","name":"user","type":"address"},{"internalType":"enum PredictionMarket.Asset","name":"asset","type":"uint8"},{"internalType":"uint256","name":"threshold","type":"uint256"},{"internalType":"enum PredictionMarket.Direction","name":"direction","type":"uint8"},{"internalType":"enum PredictionMarket.TimeInterval","name":"interval","type":"uint8"},{"internalType":"enum PredictionMarket.TokenType","name":"tokenType","type":"uint8"},{"internalType":"uint256","name":"amount","type":"uint256"},{"internalType":"uint256","name":"timestamp","type":"uint256"},{"internalType":"uint256","name":"poolId","type":"uint256"}],"internalType":"struct PredictionMarket.Prediction[]","name":"","type":"tuple[]"}],"stateMutability":"view","type":"function"},{"inputs":[{"internalType":"bytes32","name":"role","type":"bytes32"},{"internalType":"address","name":"account","type":"address"}],"name":"grantRole","outputs":[],"stateMutability":"nonpayable","type":"function"},{"inputs":[{"internalType":"bytes32","name":"role","type":"bytes32"},{"internalType":"address","name":"account","type":"address"}],"name":"hasRole","outputs":[{"internalType":"bool","name":"","type":"bool"}],"stateMutability":"view","type":"function"},{"inputs":[],"name":"nextPoolId","outputs":[{"internalType":"uint256","name":"","type":"uint256"}],"stateMutability":"view","type":"function"},{"inputs":[{"internalType":"uint256","name":"","type":"uint256"}],"name":"pools","outputs":[{"internalType":"enum PredictionMarket.Asset","name":"asset","type":"uint8"},{"internalType":"uint256","name":"threshold","type":"uint256"},{"internalType":"enum PredictionMarket.TimeInterval","name":"interval","type":"uint8"},{"internalType":"enum PredictionMarket.TokenType","name":"tokenType","type":"uint8"},{"internalType":"uint256","name":"timestamp","type":"uint256"},{"internalType":"uint256","name":"abovePool","type":"uint256"},{"internalType":"uint256","name":"belowPool","type":"uint256"},{"internalType":"bool","name":"resolved","type":"bool"},{"internalType":"uint256","name":"finalPrice","type":"uint256"}],"stateMutability":"view","type":"function"},{"inputs":[{"internalType":"bytes32","name":"role","type":"bytes32"},{"internalType":"address","name":"account","type":"address"}],"name":"renounceRole","outputs":[],"stateMutability":"nonpayable","type":"function"},{"inputs":[{"internalType":"uint256","name":"_poolId","type":"uint256"},{"internalType":"uint256","name":"_actualPrice","type":"uint256"}],"name":"resolvePool","outputs":[],"stateMutability":"nonpayable","type":"function"},{"inputs":[{"internalType":"bytes32","name":"role","type":"bytes32"},{"internalType":"address","name":"account","type":"address"}],"name":"revokeRole","outputs":[],"stateMutability":"nonpayable","type":"function"},{"inputs":[{"internalType":"bytes4","name":"interfaceId","type":"bytes4"}],"name":"supportsInterface","outputs":[{"internalType":"bool","name":"","type":"bool"}],"stateMutability":"view","type":"function"},{"inputs":[{"internalType":"enum PredictionMarket.TokenType","name":"","type":"uint8"}],"name":"tokenAddresses","outputs":[{"internalType":"address","name":"","type":"address"}],"stateMutability":"view","type":"function"},{"inputs":[{"internalType":"enum PredictionMarket.TokenType","name":"_tokenType","type":"uint8"},{"internalType":"address","name":"_newAddress","type":"address"}],"name":"updateTokenAddress","outputs":[],"stateMutability":"nonpayable","type":"function"},{"inputs":[{"internalType":"address","name":"","type":"address"}],"name":"userPoints","outputs":[{"internalType":"uint256","name":"","type":"uint256"}],"stateMutability":"view","type":"function"},{"inputs":[{"internalType":"address","name":"","type":"address"},{"internalType":"uint256","name":"","type":"uint256"}],"name":"userPredictions","outputs":[{"internalType":"address","name":"user","type":"address"},{"internalType":"enum PredictionMarket.Asset","name":"asset","type":"uint8"},{"internalType":"uint256","name":"threshold","type":"uint256"},{"internalType":"enum PredictionMarket.Direction","name":"direction","type":"uint8"},{"internalType":"enum PredictionMarket.TimeInterval","name":"interval","type":"uint8"},{"internalType":"enum PredictionMarket.TokenType","name":"tokenType","type":"uint8"},{"internalType":"uint256","name":"amount","type":"uint256"},{"internalType":"uint256","name":"timestamp","type":"uint256"},{"internalType":"uint256","name":"poolId","type":"uint256"}],"stateMutability":"view","type":"function"},{"inputs":[{"internalType":"enum PredictionMarket.TokenType","name":"_tokenType","type":"uint8"},{"internalType":"uint256","name":"_amount","type":"uint256"}],"name":"withdrawCommission","outputs":[],"stateMutability":"nonpayable","type":"function"}],"evm":{"bytecode":{"linkReferences":{},"object":"6080346200017c5762001d5190601f38839003908101601f19168201906001600160401b038211838310176200018157808391604095869485528339810103126200017c576200004f8162000197565b6200005e602080930162000197565b91600180556005600091828052828152858320338452815260ff86842054161562000144575b7fa49807205ce4d355092ef5a8a18f56e8913cf4a201fbe287825b095693c21775808452838252868420338552825260ff8785205416156200010a575b508280525283812080546001600160a01b039384166001600160a01b0319918216179091556001825290849020805493909216921691909117905551611b849081620001ad8239f35b8084528382528684203385528252868420600160ff198254161790553390339060008051602062001d318339815191528680a438620000c1565b8280528281528583203384528152858320600160ff1982541617905533338460008051602062001d318339815191528180a462000084565b600080fd5b634e487b7160e01b600052604160045260246000fd5b51906001600160a01b03821682036200017c5756fe608080604052600436101561001357600080fd5b60003560e01c90816301ffc9a7146112bf5750806318e56131146112a15780631a454ea614611285578063248a9ca3146112565780632f2ff15d146111a357806336568abe146111115780633b1dbfcc146110f55780633de6f3791461105857806375b238fc1461101d57806391d1485414610fd05780639a749db014610b0c5780639a78a85814610a5c578063a217fddf14610a40578063a505f689146105b6578063ac4afa381461050c578063aeefe31f146101ee578063b8764c391461049a578063c285f853146102af578063cf0d743714610269578063d547741f14610228578063f50ddbc7146101ee5763f6c331791461011157600080fd5b346101e95760403660031901126101e95761012a611328565b6024359060018060a01b038091166000526003602052604060002080548310156101e9576101209261015b91611355565b508054906001810154600282015460ff81169060ff808260081c169160101c16916003850154936101a860056004880154970154976040519981168a5260ff60208b019160a01c1661133e565b60408801526101b68161134b565b60608701526101c48161134b565b60808601526101d28161134b565b60a085015260c084015260e0830152610100820152f35b600080fd5b346101e95760203660031901126101e9576001600160a01b0361020f611328565b1660005260046020526020604060002054604051908152f35b346101e95760403660031901126101e957610267600435610247611312565b908060005260006020526102626001604060002001546115b9565b611742565b005b346101e95760203660031901126101e95760043560028110156101e95761028f8161134b565b6000526005602052602060018060a01b0360406000205416604051908152f35b346101e9576020806003193601126101e9576001600160a01b0390816102d3611328565b166000526003808252604060002090815467ffffffffffffffff811161048457604051939160059061030983831b850187611720565b82865283860191829560005284600020916000935b8585106103e15750505050505060405192818401908285525180915260408401929160005b8281106103505785850386f35b909192938261012060019287518a8151168252610373848201518584019061133e565b604081015160408301526060808201519061038d8261134b565b830152608080820151906103a08261134b565b83015260a080820151906103b38261134b565b83015260c0818101519083015260e08082015190830152610100908101519082015201950193929101610343565b60068760019260409b999b516103f6816116e7565b8d8854908116825260ff6104128160a093841c16868501611942565b868a0154604084015260028a015481811661042c8161134b565b6060850152818160081c166104408161134b565b608085015260101c16906104538261134b565b8201528588015460c0820152600488015460e08201528688015461010082015281520194019401939297959761031e565b634e487b7160e01b600052604160045260246000fd5b346101e95760203660031901126101e957600435600052600260205260c0604060002060ff815416906001810154906004810154600582015490600b60ff600a85015416930154936104ef604051809761133e565b6020860152604085015260608401521515608083015260a0820152f35b346101e95760203660031901126101e9576004356000526002602052610120604060002060ff81541690600181015490600281015460ff8082169160081c166003830154600484015491600585015493600b60ff600a8801541696015496610577604051809a61133e565b60208901526105858161134b565b60408801526105938161134b565b6060870152608086015260a085015260c0840152151560e0830152610100820152f35b346101e95760403660031901126101e9576105cf611387565b6105d761194e565b60043560005260026020526040600020600a8101805460ff81166109fb57602435156109c55760019060ff1916179055602435600b82015560018101546024351190816000146109ba576004810154915b80156109af576005820154915b81156109a55760068101905b6040518083602082955493848152019060005260206000209260005b81811061098357505061067292500383611720565b6005840293808504600514811517156108a65780606486048103116108a6576106a190606486049003866117b6565b9160005b815181101561092157600581901b8201602001516001600160a01b031690851561090a578160005260088401602052604060002054915b8215801580610901575b6106fc575b50506106f791506119a4565b6106a5565b8387810204871417156108a65788156108eb5760ff600286015460081c166107238161134b565b600090815260056020908152604080832054905163a9059cbb60e01b81526001600160a01b0385811660048301528a88028e90046024830152909116959290919082906044908290895af1801561089a57610786916000916108bc575b506119b3565b816000526004602052604060002093845490600a820182116108a657602495600a60209301905560ff600289015460081c16928c8a60405192020481526107cc8461134b565b8383820152847fcb5f2f472080f2f19d29d0043fd09dbfa0211bd5cb956788902a32ea50d8a59c604060043593a3604051958680926370a0823160e01b82528660048301525afa93841561089a57600094610865575b50604080516106f7957fbd654b55d2a05b8f862e2e2c9fae42214f49c31ef0b1310a690e6db5785dd587936108568161134b565b82526020820152a288806106eb565b93506020843d602011610892575b8161088060209383611720565b810103126101e9579251926040610822565b3d9150610873565b6040513d6000823e3d90fd5b634e487b7160e01b600052601160045260246000fd5b6108de915060203d6020116108e4575b6108d68183611720565b8101906118e3565b8c610780565b503d6108cc565b634e487b7160e01b600052601260045260246000fd5b508915156106e6565b8160005260098401602052604060002054916106dc565b8260648786600160ff85541694015461093d604051809661133e565b6024356020860152604085015260608401520460808201527fad7d5aacbe56d28fa9a202ec0dc05dbbfb4f870b381c9000e52a4b808cffb92660a060043592a260018055005b84546001600160a01b031683526001948501948794506020909301920161065d565b6007810190610641565b600482015491610635565b600581015491610628565b60405162461bcd60e51b815260206004820152600e60248201526d11d958d95c9cda5e88199a5e585d60921b6044820152606490fd5b60405162461bcd60e51b815260206004820152601c60248201527f486176757a207a6174656e20736f6e75636c616e646972696c6d6973000000006044820152606490fd5b346101e95760003660031901126101e957602060405160008152f35b346101e95760403660031901126101e95760043560028110156101e957610a81611387565b610a8961194e565b610a928161134b565b600090815260056020908152604080832054905163a9059cbb60e01b8152336004820152602480359082015292839160449183916001600160a01b03165af1801561089a57610ae891600091610aee57506119b3565b60018055005b610b06915060203d81116108e4576108d68183611720565b82610780565b346101e95760c03660031901126101e957600360043510156101e957600260443510156101e957600260643510156101e957600260843510156101e957610b5161194e565b60a43515610f8b5760243515610f4f57610b6c60843561134b565b60843560009081526005602090815260408083205490516323b872dd60e01b815233600482015230602482015260a435604482015292839160649183916001600160a01b03165af190811561089a57600091610f30575b5015610eeb57610bdd6084356064356024356004356119f4565b8060005260026020526040600020610bf660443561134b565b604435610e8a5760048101610c0e60a43582546117b6565b90556008810190336000528160205260406000205415610e76575b50336000526020526040600020610c4360a43582546117b6565b90555b60405190610c53826116e7565b3382526020820191610c6760043584611942565b6024356040820152610c7a60443561134b565b6044356060820152610c8d60643561134b565b6064356080820152610ca060843561134b565b60843560a082015260a43560c08201524260e08201528161010082015233600052600360205260406000208054600160401b81101561048457610ce891600182018155611355565b919091610e6057805182546001600160a01b039091166001600160a01b031982168117845594519094916003821015610e4a576020956005936101009360ff60a01b9060a01b16916affffffffffffffffffffff60a81b161717845560408101516001850155600284016060820151610d608161134b565b610d698161134b565b815461ff00608085015191610d7d8361134b565b610d868361134b565b60ff62ff000060a0880151610d9a8161134b565b610da38161134b565b60101b1694169062ffffff1916179160081b161717905560c0810151600385015560e08101516004850155015191015580604051610de38160043561133e565b60243584820152610df560443561134b565b604435604082015260a4356060820152610e1060843561134b565b60843560808201527f5e1e3e5a1884501b032aeadf4d458f1ff589ad1479d8c88f2b58d0592c6159a260a03392a360018055604051908152f35b634e487b7160e01b600052602160045260246000fd5b634e487b7160e01b600052600060045260246000fd5b610e849060063391016118fb565b82610c29565b60058101610e9b60a43582546117b6565b90556009810190336000528160205260406000205415610ed7575b50336000526020526040600020610ed060a43582546117b6565b9055610c46565b610ee59060073391016118fb565b82610eb6565b60405162461bcd60e51b815260206004820152601960248201527f546f6b656e207472616e73666572692062617361726973697a000000000000006044820152606490fd5b610f49915060203d6020116108e4576108d68183611720565b81610bc3565b60405162461bcd60e51b815260206004820152601460248201527322b9b4b5903232b3b2b9349033b2b1b2b939b4bd60611b6044820152606490fd5b60405162461bcd60e51b815260206004820152601c60248201527f4d696b74617220736966697264616e20627579756b206f6c6d616c69000000006044820152606490fd5b346101e95760403660031901126101e957610fe9611312565b600435600052600060205260406000209060018060a01b0316600052602052602060ff604060002054166040519015158152f35b346101e95760003660031901126101e95760206040517fa49807205ce4d355092ef5a8a18f56e8913cf4a201fbe287825b095693c217758152f35b346101e95760403660031901126101e95760043560028110156101e95761107d611312565b611085611387565b6001600160a01b03169081156110bf5761109e8161134b565b600090815260056020526040902080546001600160a01b0319169091179055005b60405162461bcd60e51b815260206004820152600e60248201526d476563657273697a20616472657360901b6044820152606490fd5b346101e95760003660031901126101e957602060405160648152f35b346101e95760403660031901126101e95761112a611312565b336001600160a01b038216036111465761026790600435611742565b60405162461bcd60e51b815260206004820152602f60248201527f416363657373436f6e74726f6c3a2063616e206f6e6c792072656e6f756e636560448201526e103937b632b9903337b91039b2b63360891b6064820152608490fd5b346101e95760403660031901126101e9576004356111bf611312565b8160005260006020526111d96001604060002001546115b9565b81600052600060205260406000209060018060a01b0316908160005260205260ff604060002054161561120857005b8160005260006020526040600020816000526020526040600020600160ff1982541617905533917f2f8788117e7eff1d82e926ec794901d17c78024a50270940304540a733656f0d600080a4005b346101e95760203660031901126101e95760043560005260006020526020600160406000200154604051908152f35b346101e95760003660031901126101e957602060405160058152f35b346101e95760003660031901126101e9576020600654604051908152f35b346101e95760203660031901126101e9576004359063ffffffff60e01b82168092036101e957602091637965db0b60e01b8114908115611301575b5015158152f35b6301ffc9a760e01b149050836112fa565b602435906001600160a01b03821682036101e957565b600435906001600160a01b03821682036101e957565b906003821015610e4a5752565b60021115610e4a57565b8054821015611371576000526006602060002091020190600090565b634e487b7160e01b600052603260045260246000fd5b3360009081527f7d7ffb7a348e1c6a02869081a26547b49160dd3df72d1d75a570eb9b698292ec6020908152604080832054909291907fa49807205ce4d355092ef5a8a18f56e8913cf4a201fbe287825b095693c217759060ff16156113ed5750505050565b6113f6336117d4565b9084519061140382611704565b604282528382019460603687378251156115a557603086538251906001918210156115a55790607860218501536041915b818311611537575050506114f557846114c360486114e79360449798519889916114b48984019876020b1b1b2b9b9a1b7b73a3937b61d1030b1b1b7bab73a1604d1b8a5261148b815180928d6037890191016116c4565b8401917001034b99036b4b9b9b4b733903937b6329607d1b6037840152518093868401906116c4565b01036028810189520187611720565b5194859362461bcd60e51b85526004850152518092816024860152858501906116c4565b601f01601f19168101030190fd5b60648386519062461bcd60e51b825280600483015260248201527f537472696e67733a20686578206c656e67746820696e73756666696369656e746044820152fd5b909192600f81166010811015611591576f181899199a1a9b1b9c1cb0b131b232b360811b901a61156785876117c3565b5360041c92801561157d57600019019190611434565b634e487b7160e01b82526011600452602482fd5b634e487b7160e01b83526032600452602483fd5b634e487b7160e01b81526032600452602490fd5b60008181526020818152604092838320338452825260ff8484205416156115e05750505050565b6115e9336117d4565b908451906115f682611704565b604282528382019460603687378251156115a557603086538251906001918210156115a55790607860218501536041915b81831161167e575050506114f557846114c360486114e79360449798519889916114b48984019876020b1b1b2b9b9a1b7b73a3937b61d1030b1b1b7bab73a1604d1b8a5261148b815180928d6037890191016116c4565b909192600f81166010811015611591576f181899199a1a9b1b9c1cb0b131b232b360811b901a6116ae85876117c3565b5360041c92801561157d57600019019190611627565b60005b8381106116d75750506000910152565b81810151838201526020016116c7565b610120810190811067ffffffffffffffff82111761048457604052565b6080810190811067ffffffffffffffff82111761048457604052565b90601f8019910116810190811067ffffffffffffffff82111761048457604052565b9060009180835282602052604083209160018060a01b03169182845260205260ff60408420541661177257505050565b80835282602052604083208284526020526040832060ff1981541690557ff6391f5c32d9c69d2a47ea670b442974b53935d1edc7fd64eb21e047a839171b339380a4565b919082018092116108a657565b908151811015611371570160200190565b604051906060820182811067ffffffffffffffff82111761048457604052602a82526020820160403682378251156113715760309053815160019081101561137157607860218401536029905b8082116118755750506118315790565b606460405162461bcd60e51b815260206004820152602060248201527f537472696e67733a20686578206c656e67746820696e73756666696369656e746044820152fd5b9091600f811660108110156118ce576f181899199a1a9b1b9c1cb0b131b232b360811b901a6118a484866117c3565b5360041c9180156118b9576000190190611821565b60246000634e487b7160e01b81526011600452fd5b60246000634e487b7160e01b81526032600452fd5b908160209103126101e9575180151581036101e95790565b805490600160401b8210156104845760018201808255821015611371576000526020600020019060018060a01b03166bffffffffffffffffffffffff60a01b825416179055565b6003821015610e4a5752565b60026001541461195f576002600155565b60405162461bcd60e51b815260206004820152601f60248201527f5265656e7472616e637947756172643a207265656e7472616e742063616c6c006044820152606490fd5b60001981146108a65760010190565b156119ba57565b60405162461bcd60e51b81526020600482015260126024820152712a3930b739b332b9103130b9b0b934b9b4bd60711b6044820152606490fd5b91600093600654945b858110611a7f5750611a0e856119a4565b6006558460005260026020526040600020916003851015610e4a57600a9360ff199560ff87865416911617845560018401556002830191611a4e8261134b565b60ff61ff00845492611a5f8161134b565b60081b1692169061ffff1916171790554260038201550190815416905590565b806000526002806020528260406000209160ff9081600a85015416159384611b2a575b84611b1c575b84611afa575b84611ad3575b50505050611aca57611ac5906119a4565b6119fd565b94505050505090565b9091929350015460081c16611ae78261134b565b611af08161134b565b1482388080611ab4565b935086828286015416611b0c8261134b565b611b158161134b565b1493611aae565b600181015489149450611aa8565b8054909450821692506003808a1015610e4a57831015610e4a578886931493611aa256fea26469706673582212202b96709d9200fd9ea8dcf71ac92e868d3b9a7e0c46704acbd81737d9f592d1ca64736f6c634300081400332f8788117e7eff1d82e926ec794901d17c78024a50270940304540a733656f0d","opcodes":"PUSH1 0x80 CALLVALUE PUSH3 0x17C JUMPI PUSH3 0x1D51 SWAP1 PUSH1 0x1F CODESIZE DUP4 SWAP1 SUB SWAP1 DUP2 ADD PUSH1 0x1F NOT AND DUP3 ADD SWAP1 PUSH1 0x1 PUSH1 0x1 PUSH1 0x40 SHL SUB DUP3 GT DUP4 DUP4 LT OR PUSH3 0x181 JUMPI DUP1 DUP4 SWAP2 PUSH1 0x40 SWAP6 DUP7 SWAP5 DUP6 MSTORE DUP4 CODECOPY DUP2 ADD SUB SLT PUSH3 0x17C JUMPI PUSH3 0x4F DUP2 PUSH3 0x197 JUMP JUMPDEST PUSH3 0x5E PUSH1 0x20 DUP1 SWAP4 ADD PUSH3 0x197 JUMP JUMPDEST SWAP2 PUSH1 0x1 DUP1 SSTORE PUSH1 0x5 PUSH1 0x0 SWAP2 DUP3 DUP1 MSTORE DUP3 DUP2 MSTORE DUP6 DUP4 KECCAK256 CALLER DUP5 MSTORE DUP2 MSTORE PUSH1 0xFF DUP7 DUP5 KECCAK256 SLOAD AND ISZERO PUSH3 0x144 JUMPI JUMPDEST PUSH32 0xA49807205CE4D355092EF5A8A18F56E8913CF4A201FBE287825B095693C21775 DUP1 DUP5 MSTORE DUP4 DUP3 MSTORE DUP7 DUP5 KECCAK256 CALLER DUP6 MSTORE DUP3 MSTORE PUSH1 0xFF DUP8 DUP6 KECCAK256 SLOAD AND ISZERO PUSH3 0x10A JUMPI JUMPDEST POP DUP3 DUP1 MSTORE MSTORE DUP4 DUP2 KECCAK256 DUP1 SLOAD PUSH1 0x1 PUSH1 0x1 PUSH1 0xA0 SHL SUB SWAP4 DUP5 AND PUSH1 0x1 PUSH1 0x1 PUSH1 0xA0 SHL SUB NOT SWAP2 DUP3 AND OR SWAP1 SWAP2 SSTORE PUSH1 0x1 DUP3 MSTORE SWAP1 DUP5 SWAP1 KECCAK256 DUP1 SLOAD SWAP4 SWAP1 SWAP3 AND SWAP3 AND SWAP2 SWAP1 SWAP2 OR SWAP1 SSTORE MLOAD PUSH2 0x1B84 SWAP1 DUP2 PUSH3 0x1AD DUP3 CODECOPY RETURN JUMPDEST DUP1 DUP5 MSTORE DUP4 DUP3 MSTORE DUP7 DUP5 KECCAK256 CALLER DUP6 MSTORE DUP3 MSTORE DUP7 DUP5 KECCAK256 PUSH1 0x1 PUSH1 0xFF NOT DUP3 SLOAD AND OR SWAP1 SSTORE CALLER SWAP1 CALLER SWAP1 PUSH1 0x0 DUP1 MLOAD PUSH1 0x20 PUSH3 0x1D31 DUP4 CODECOPY DUP2 MLOAD SWAP2 MSTORE DUP7 DUP1 LOG4 CODESIZE PUSH3 0xC1 JUMP JUMPDEST DUP3 DUP1 MSTORE DUP3 DUP2 MSTORE DUP6 DUP4 KECCAK256 CALLER DUP5 MSTORE DUP2 MSTORE DUP6 DUP4 KECCAK256 PUSH1 0x1 PUSH1 0xFF NOT DUP3 SLOAD AND OR SWAP1 SSTORE CALLER CALLER DUP5 PUSH1 0x0 DUP1 MLOAD PUSH1 0x20 PUSH3 0x1D31 DUP4 CODECOPY DUP2 MLOAD SWAP2 MSTORE DUP2 DUP1 LOG4 PUSH3 0x84 JUMP JUMPDEST PUSH1 0x0 DUP1 REVERT JUMPDEST PUSH4 0x4E487B71 PUSH1 0xE0 SHL PUSH1 0x0 MSTORE PUSH1 0x41 PUSH1 0x4 MSTORE PUSH1 0x24 PUSH1 0x0 REVERT JUMPDEST MLOAD SWAP1 PUSH1 0x1 PUSH1 0x1 PUSH1 0xA0 SHL SUB DUP3 AND DUP3 SUB PUSH3 0x17C JUMPI JUMP INVALID PUSH1 0x80 DUP1 PUSH1 0x40 MSTORE PUSH1 0x4 CALLDATASIZE LT ISZERO PUSH2 0x13 JUMPI PUSH1 0x0 DUP1 REVERT JUMPDEST PUSH1 0x0 CALLDATALOAD PUSH1 0xE0 SHR SWAP1 DUP2 PUSH4 0x1FFC9A7 EQ PUSH2 0x12BF JUMPI POP DUP1 PUSH4 0x18E56131 EQ PUSH2 0x12A1 JUMPI DUP1 PUSH4 0x1A454EA6 EQ PUSH2 0x1285 JUMPI DUP1 PUSH4 0x248A9CA3 EQ PUSH2 0x1256 JUMPI DUP1 PUSH4 0x2F2FF15D EQ PUSH2 0x11A3 JUMPI DUP1 PUSH4 0x36568ABE EQ PUSH2 0x1111 JUMPI DUP1 PUSH4 0x3B1DBFCC EQ PUSH2 0x10F5 JUMPI DUP1 PUSH4 0x3DE6F379 EQ PUSH2 0x1058 JUMPI DUP1 PUSH4 0x75B238FC EQ PUSH2 0x101D JUMPI DUP1 PUSH4 0x91D14854 EQ PUSH2 0xFD0 JUMPI DUP1 PUSH4 0x9A749DB0 EQ PUSH2 0xB0C JUMPI DUP1 PUSH4 0x9A78A858 EQ PUSH2 0xA5C JUMPI DUP1 PUSH4 0xA217FDDF EQ PUSH2 0xA40 JUMPI DUP1 PUSH4 0xA505F689 EQ PUSH2 0x5B6 JUMPI DUP1 PUSH4 0xAC4AFA38 EQ PUSH2 0x50C JUMPI DUP1 PUSH4 0xAEEFE31F EQ PUSH2 0x1EE JUMPI DUP1 PUSH4 0xB8764C39 EQ PUSH2 0x49A JUMPI DUP1 PUSH4 0xC285F853 EQ PUSH2 0x2AF JUMPI DUP1 PUSH4 0xCF0D7437 EQ PUSH2 0x269 JUMPI DUP1 PUSH4 0xD547741F EQ PUSH2 0x228 JUMPI DUP1 PUSH4 0xF50DDBC7 EQ PUSH2 0x1EE JUMPI PUSH4 0xF6C33179 EQ PUSH2 0x111 JUMPI PUSH1 0x0 DUP1 REVERT JUMPDEST CALLVALUE PUSH2 0x1E9 JUMPI PUSH1 0x40 CALLDATASIZE PUSH1 0x3 NOT ADD SLT PUSH2 0x1E9 JUMPI PUSH2 0x12A PUSH2 0x1328 JUMP JUMPDEST PUSH1 0x24 CALLDATALOAD SWAP1 PUSH1 0x1 DUP1 PUSH1 0xA0 SHL SUB DUP1 SWAP2 AND PUSH1 0x0 MSTORE PUSH1 0x3 PUSH1 0x20 MSTORE PUSH1 0x40 PUSH1 0x0 KECCAK256 DUP1 SLOAD DUP4 LT ISZERO PUSH2 0x1E9 JUMPI PUSH2 0x120 SWAP3 PUSH2 0x15B SWAP2 PUSH2 0x1355 JUMP JUMPDEST POP DUP1 SLOAD SWAP1 PUSH1 0x1 DUP2 ADD SLOAD PUSH1 0x2 DUP3 ADD SLOAD PUSH1 0xFF DUP2 AND SWAP1 PUSH1 0xFF DUP1 DUP3 PUSH1 0x8 SHR AND SWAP2 PUSH1 0x10 SHR AND SWAP2 PUSH1 0x3 DUP6 ADD SLOAD SWAP4 PUSH2 0x1A8 PUSH1 0x5 PUSH1 0x4 DUP9 ADD SLOAD SWAP8 ADD SLOAD SWAP8 PUSH1 0x40 MLOAD SWAP10 DUP2 AND DUP11 MSTORE PUSH1 0xFF PUSH1 0x20 DUP12 ADD SWAP2 PUSH1 0xA0 SHR AND PUSH2 0x133E JUMP JUMPDEST PUSH1 0x40 DUP9 ADD MSTORE PUSH2 0x1B6 DUP2 PUSH2 0x134B JUMP JUMPDEST PUSH1 0x60 DUP8 ADD MSTORE PUSH2 0x1C4 DUP2 PUSH2 0x134B JUMP JUMPDEST PUSH1 0x80 DUP7 ADD MSTORE PUSH2 0x1D2 DUP2 PUSH2 0x134B JUMP JUMPDEST PUSH1 0xA0 DUP6 ADD MSTORE PUSH1 0xC0 DUP5 ADD MSTORE PUSH1 0xE0 DUP4 ADD MSTORE PUSH2 0x100 DUP3 ADD MSTORE RETURN JUMPDEST PUSH1 0x0 DUP1 REVERT JUMPDEST CALLVALUE PUSH2 0x1E9 JUMPI PUSH1 0x20 CALLDATASIZE PUSH1 0x3 NOT ADD SLT PUSH2 0x1E9 JUMPI PUSH1 0x1 PUSH1 0x1 PUSH1 0xA0 SHL SUB PUSH2 0x20F PUSH2 0x1328 JUMP JUMPDEST AND PUSH1 0x0 MSTORE PUSH1 0x4 PUSH1 0x20 MSTORE PUSH1 0x20 PUSH1 0x40 PUSH1 0x0 KECCAK256 SLOAD PUSH1 0x40 MLOAD SWAP1 DUP2 MSTORE RETURN JUMPDEST CALLVALUE PUSH2 0x1E9 JUMPI PUSH1 0x40 CALLDATASIZE PUSH1 0x3 NOT ADD SLT PUSH2 0x1E9 JUMPI PUSH2 0x267 PUSH1 0x4 CALLDATALOAD PUSH2 0x247 PUSH2 0x1312 JUMP JUMPDEST SWAP1 DUP1 PUSH1 0x0 MSTORE PUSH1 0x0 PUSH1 0x20 MSTORE PUSH2 0x262 PUSH1 0x1 PUSH1 0x40 PUSH1 0x0 KECCAK256 ADD SLOAD PUSH2 0x15B9 JUMP JUMPDEST PUSH2 0x1742 JUMP JUMPDEST STOP JUMPDEST CALLVALUE PUSH2 0x1E9 JUMPI PUSH1 0x20 CALLDATASIZE PUSH1 0x3 NOT ADD SLT PUSH2 0x1E9 JUMPI PUSH1 0x4 CALLDATALOAD PUSH1 0x2 DUP2 LT ISZERO PUSH2 0x1E9 JUMPI PUSH2 0x28F DUP2 PUSH2 0x134B JUMP JUMPDEST PUSH1 0x0 MSTORE PUSH1 0x5 PUSH1 0x20 MSTORE PUSH1 0x20 PUSH1 0x1 DUP1 PUSH1 0xA0 SHL SUB PUSH1 0x40 PUSH1 0x0 KECCAK256 SLOAD AND PUSH1 0x40 MLOAD SWAP1 DUP2 MSTORE RETURN JUMPDEST CALLVALUE PUSH2 0x1E9 JUMPI PUSH1 0x20 DUP1 PUSH1 0x3 NOT CALLDATASIZE ADD SLT PUSH2 0x1E9 JUMPI PUSH1 0x1 PUSH1 0x1 PUSH1 0xA0 SHL SUB SWAP1 DUP2 PUSH2 0x2D3 PUSH2 0x1328 JUMP JUMPDEST AND PUSH1 0x0 MSTORE PUSH1 0x3 DUP1 DUP3 MSTORE PUSH1 0x40 PUSH1 0x0 KECCAK256 SWAP1 DUP2 SLOAD PUSH8 0xFFFFFFFFFFFFFFFF DUP2 GT PUSH2 0x484 JUMPI PUSH1 0x40 MLOAD SWAP4 SWAP2 PUSH1 0x5 SWAP1 PUSH2 0x309 DUP4 DUP4 SHL DUP6 ADD DUP8 PUSH2 0x1720 JUMP JUMPDEST DUP3 DUP7 MSTORE DUP4 DUP7 ADD SWAP2 DUP3 SWAP6 PUSH1 0x0 MSTORE DUP5 PUSH1 0x0 KECCAK256 SWAP2 PUSH1 0x0 SWAP4 JUMPDEST DUP6 DUP6 LT PUSH2 0x3E1 JUMPI POP POP POP POP POP POP PUSH1 0x40 MLOAD SWAP3 DUP2 DUP5 ADD SWAP1 DUP3 DUP6 MSTORE MLOAD DUP1 SWAP2 MSTORE PUSH1 0x40 DUP5 ADD SWAP3 SWAP2 PUSH1 0x0 JUMPDEST DUP3 DUP2 LT PUSH2 0x350 JUMPI DUP6 DUP6 SUB DUP7 RETURN JUMPDEST SWAP1 SWAP2 SWAP3 SWAP4 DUP3 PUSH2 0x120 PUSH1 0x1 SWAP3 DUP8 MLOAD DUP11 DUP2 MLOAD AND DUP3 MSTORE PUSH2 0x373 DUP5 DUP3 ADD MLOAD DUP6 DUP5 ADD SWAP1 PUSH2 0x133E JUMP JUMPDEST PUSH1 0x40 DUP2 ADD MLOAD PUSH1 0x40 DUP4 ADD MSTORE PUSH1 0x60 DUP1 DUP3 ADD MLOAD SWAP1 PUSH2 0x38D DUP3 PUSH2 0x134B JUMP JUMPDEST DUP4 ADD MSTORE PUSH1 0x80 DUP1 DUP3 ADD MLOAD SWAP1 PUSH2 0x3A0 DUP3 PUSH2 0x134B JUMP JUMPDEST DUP4 ADD MSTORE PUSH1 0xA0 DUP1 DUP3 ADD MLOAD SWAP1 PUSH2 0x3B3 DUP3 PUSH2 0x134B JUMP JUMPDEST DUP4 ADD MSTORE PUSH1 0xC0 DUP2 DUP2 ADD MLOAD SWAP1 DUP4 ADD MSTORE PUSH1 0xE0 DUP1 DUP3 ADD MLOAD SWAP1 DUP4 ADD MSTORE PUSH2 0x100 SWAP1 DUP2 ADD MLOAD SWAP1 DUP3 ADD MSTORE ADD SWAP6 ADD SWAP4 SWAP3 SWAP2 ADD PUSH2 0x343 JUMP JUMPDEST PUSH1 0x6 DUP8 PUSH1 0x1 SWAP3 PUSH1 0x40 SWAP12 SWAP10 SWAP12 MLOAD PUSH2 0x3F6 DUP2 PUSH2 0x16E7 JUMP JUMPDEST DUP14 DUP9 SLOAD SWAP1 DUP2 AND DUP3 MSTORE PUSH1 0xFF PUSH2 0x412 DUP2 PUSH1 0xA0 SWAP4 DUP5 SHR AND DUP7 DUP6 ADD PUSH2 0x1942 JUMP JUMPDEST DUP7 DUP11 ADD SLOAD PUSH1 0x40 DUP5 ADD MSTORE PUSH1 0x2 DUP11 ADD SLOAD DUP2 DUP2 AND PUSH2 0x42C DUP2 PUSH2 0x134B JUMP JUMPDEST PUSH1 0x60 DUP6 ADD MSTORE DUP2 DUP2 PUSH1 0x8 SHR AND PUSH2 0x440 DUP2 PUSH2 0x134B JUMP JUMPDEST PUSH1 0x80 DUP6 ADD MSTORE PUSH1 0x10 SHR AND SWAP1 PUSH2 0x453 DUP3 PUSH2 0x134B JUMP JUMPDEST DUP3 ADD MSTORE DUP6 DUP9 ADD SLOAD PUSH1 0xC0 DUP3 ADD MSTORE PUSH1 0x4 DUP9 ADD SLOAD PUSH1 0xE0 DUP3 ADD MSTORE DUP7 DUP9 ADD SLOAD PUSH2 0x100 DUP3 ADD MSTORE DUP2 MSTORE ADD SWAP5 ADD SWAP5 ADD SWAP4 SWAP3 SWAP8 SWAP6 SWAP8 PUSH2 0x31E JUMP JUMPDEST PUSH4 0x4E487B71 PUSH1 0xE0 SHL PUSH1 0x0 MSTORE PUSH1 0x41 PUSH1 0x4 MSTORE PUSH1 0x24 PUSH1 0x0 REVERT JUMPDEST CALLVALUE PUSH2 0x1E9 JUMPI PUSH1 0x20 CALLDATASIZE PUSH1 0x3 NOT ADD SLT PUSH2 0x1E9 JUMPI PUSH1 0x4 CALLDATALOAD PUSH1 0x0 MSTORE PUSH1 0x2 PUSH1 0x20 MSTORE PUSH1 0xC0 PUSH1 0x40 PUSH1 0x0 KECCAK256 PUSH1 0xFF DUP2 SLOAD AND SWAP1 PUSH1 0x1 DUP2 ADD SLOAD SWAP1 PUSH1 0x4 DUP2 ADD SLOAD PUSH1 0x5 DUP3 ADD SLOAD SWAP1 PUSH1 0xB PUSH1 0xFF PUSH1 0xA DUP6 ADD SLOAD AND SWAP4 ADD SLOAD SWAP4 PUSH2 0x4EF PUSH1 0x40 MLOAD DUP1 SWAP8 PUSH2 0x133E JUMP JUMPDEST PUSH1 0x20 DUP7 ADD MSTORE PUSH1 0x40 DUP6 ADD MSTORE PUSH1 0x60 DUP5 ADD MSTORE ISZERO ISZERO PUSH1 0x80 DUP4 ADD MSTORE PUSH1 0xA0 DUP3 ADD MSTORE RETURN JUMPDEST CALLVALUE PUSH2 0x1E9 JUMPI PUSH1 0x20 CALLDATASIZE PUSH1 0x3 NOT ADD SLT PUSH2 0x1E9 JUMPI PUSH1 0x4 CALLDATALOAD PUSH1 0x0 MSTORE PUSH1 0x2 PUSH1 0x20 MSTORE PUSH2 0x120 PUSH1 0x40 PUSH1 0x0 KECCAK256 PUSH1 0xFF DUP2 SLOAD AND SWAP1 PUSH1 0x1 DUP2 ADD SLOAD SWAP1 PUSH1 0x2 DUP2 ADD SLOAD PUSH1 0xFF DUP1 DUP3 AND SWAP2 PUSH1 0x8 SHR AND PUSH1 0x3 DUP4 ADD SLOAD PUSH1 0x4 DUP5 ADD SLOAD SWAP2 PUSH1 0x5 DUP6 ADD SLOAD SWAP4 PUSH1 0xB PUSH1 0xFF PUSH1 0xA DUP9 ADD SLOAD AND SWAP7 ADD SLOAD SWAP7 PUSH2 0x577 PUSH1 0x40 MLOAD DUP1 SWAP11 PUSH2 0x133E JUMP JUMPDEST PUSH1 0x20 DUP10 ADD MSTORE PUSH2 0x585 DUP2 PUSH2 0x134B JUMP JUMPDEST PUSH1 0x40 DUP9 ADD MSTORE PUSH2 0x593 DUP2 PUSH2 0x134B JUMP JUMPDEST PUSH1 0x60 DUP8 ADD MSTORE PUSH1 0x80 DUP7 ADD MSTORE PUSH1 0xA0 DUP6 ADD MSTORE PUSH1 0xC0 DUP5 ADD MSTORE ISZERO ISZERO PUSH1 0xE0 DUP4 ADD MSTORE PUSH2 0x100 DUP3 ADD MSTORE RETURN JUMPDEST CALLVALUE PUSH2 0x1E9 JUMPI PUSH1 0x40 CALLDATASIZE PUSH1 0x3 NOT ADD SLT PUSH2 0x1E9 JUMPI PUSH2 0x5CF PUSH2 0x1387 JUMP JUMPDEST PUSH2 0x5D7 PUSH2 0x194E JUMP JUMPDEST PUSH1 0x4 CALLDATALOAD PUSH1 0x0 MSTORE PUSH1 0x2 PUSH1 0x20 MSTORE PUSH1 0x40 PUSH1 0x0 KECCAK256 PUSH1 0xA DUP2 ADD DUP1 SLOAD PUSH1 0xFF DUP2 AND PUSH2 0x9FB JUMPI PUSH1 0x24 CALLDATALOAD ISZERO PUSH2 0x9C5 JUMPI PUSH1 0x1 SWAP1 PUSH1 0xFF NOT AND OR SWAP1 SSTORE PUSH1 0x24 CALLDATALOAD PUSH1 0xB DUP3 ADD SSTORE PUSH1 0x1 DUP2 ADD SLOAD PUSH1 0x24 CALLDATALOAD GT SWAP1 DUP2 PUSH1 0x0 EQ PUSH2 0x9BA JUMPI PUSH1 0x4 DUP2 ADD SLOAD SWAP2 JUMPDEST DUP1 ISZERO PUSH2 0x9AF JUMPI PUSH1 0x5 DUP3 ADD SLOAD SWAP2 JUMPDEST DUP2 ISZERO PUSH2 0x9A5 JUMPI PUSH1 0x6 DUP2 ADD SWAP1 JUMPDEST PUSH1 0x40 MLOAD DUP1 DUP4 PUSH1 0x20 DUP3 SWAP6 SLOAD SWAP4 DUP5 DUP2 MSTORE ADD SWAP1 PUSH1 0x0 MSTORE PUSH1 0x20 PUSH1 0x0 KECCAK256 SWAP3 PUSH1 0x0 JUMPDEST DUP2 DUP2 LT PUSH2 0x983 JUMPI POP POP PUSH2 0x672 SWAP3 POP SUB DUP4 PUSH2 0x1720 JUMP JUMPDEST PUSH1 0x5 DUP5 MUL SWAP4 DUP1 DUP6 DIV PUSH1 0x5 EQ DUP2 ISZERO OR ISZERO PUSH2 0x8A6 JUMPI DUP1 PUSH1 0x64 DUP7 DIV DUP2 SUB GT PUSH2 0x8A6 JUMPI PUSH2 0x6A1 SWAP1 PUSH1 0x64 DUP7 DIV SWAP1 SUB DUP7 PUSH2 0x17B6 JUMP JUMPDEST SWAP2 PUSH1 0x0 JUMPDEST DUP2 MLOAD DUP2 LT ISZERO PUSH2 0x921 JUMPI PUSH1 0x5 DUP2 SWAP1 SHL DUP3 ADD PUSH1 0x20 ADD MLOAD PUSH1 0x1 PUSH1 0x1 PUSH1 0xA0 SHL SUB AND SWAP1 DUP6 ISZERO PUSH2 0x90A JUMPI DUP2 PUSH1 0x0 MSTORE PUSH1 0x8 DUP5 ADD PUSH1 0x20 MSTORE PUSH1 0x40 PUSH1 0x0 KECCAK256 SLOAD SWAP2 JUMPDEST DUP3 ISZERO DUP1 ISZERO DUP1 PUSH2 0x901 JUMPI JUMPDEST PUSH2 0x6FC JUMPI JUMPDEST POP POP PUSH2 0x6F7 SWAP2 POP PUSH2 0x19A4 JUMP JUMPDEST PUSH2 0x6A5 JUMP JUMPDEST DUP4 DUP8 DUP2 MUL DIV DUP8 EQ OR ISZERO PUSH2 0x8A6 JUMPI DUP9 ISZERO PUSH2 0x8EB JUMPI PUSH1 0xFF PUSH1 0x2 DUP7 ADD SLOAD PUSH1 0x8 SHR AND PUSH2 0x723 DUP2 PUSH2 0x134B JUMP JUMPDEST PUSH1 0x0 SWAP1 DUP2 MSTORE PUSH1 0x5 PUSH1 0x20 SWAP1 DUP2 MSTORE PUSH1 0x40 DUP1 DUP4 KECCAK256 SLOAD SWAP1 MLOAD PUSH4 0xA9059CBB PUSH1 0xE0 SHL DUP2 MSTORE PUSH1 0x1 PUSH1 0x1 PUSH1 0xA0 SHL SUB DUP6 DUP2 AND PUSH1 0x4 DUP4 ADD MSTORE DUP11 DUP9 MUL DUP15 SWAP1 DIV PUSH1 0x24 DUP4 ADD MSTORE SWAP1 SWAP2 AND SWAP6 SWAP3 SWAP1 SWAP2 SWAP1 DUP3 SWAP1 PUSH1 0x44 SWAP1 DUP3 SWAP1 DUP10 GAS CALL DUP1 ISZERO PUSH2 0x89A JUMPI PUSH2 0x786 SWAP2 PUSH1 0x0 SWAP2 PUSH2 0x8BC JUMPI JUMPDEST POP PUSH2 0x19B3 JUMP JUMPDEST DUP2 PUSH1 0x0 MSTORE PUSH1 0x4 PUSH1 0x20 MSTORE PUSH1 0x40 PUSH1 0x0 KECCAK256 SWAP4 DUP5 SLOAD SWAP1 PUSH1 0xA DUP3 ADD DUP3 GT PUSH2 0x8A6 JUMPI PUSH1 0x24 SWAP6 PUSH1 0xA PUSH1 0x20 SWAP4 ADD SWAP1 SSTORE PUSH1 0xFF PUSH1 0x2 DUP10 ADD SLOAD PUSH1 0x8 SHR AND SWAP3 DUP13 DUP11 PUSH1 0x40 MLOAD SWAP3 MUL DIV DUP2 MSTORE PUSH2 0x7CC DUP5 PUSH2 0x134B JUMP JUMPDEST DUP4 DUP4 DUP3 ADD MSTORE DUP5 PUSH32 0xCB5F2F472080F2F19D29D0043FD09DBFA0211BD5CB956788902A32EA50D8A59C PUSH1 0x40 PUSH1 0x4 CALLDATALOAD SWAP4 LOG3 PUSH1 0x40 MLOAD SWAP6 DUP7 DUP1 SWAP3 PUSH4 0x70A08231 PUSH1 0xE0 SHL DUP3 MSTORE DUP7 PUSH1 0x4 DUP4 ADD MSTORE GAS STATICCALL SWAP4 DUP5 ISZERO PUSH2 0x89A JUMPI PUSH1 0x0 SWAP5 PUSH2 0x865 JUMPI JUMPDEST POP PUSH1 0x40 DUP1 MLOAD PUSH2 0x6F7 SWAP6 PUSH32 0xBD654B55D2A05B8F862E2E2C9FAE42214F49C31EF0B1310A690E6DB5785DD587 SWAP4 PUSH2 0x856 DUP2 PUSH2 0x134B JUMP JUMPDEST DUP3 MSTORE PUSH1 0x20 DUP3 ADD MSTORE LOG2 DUP9 DUP1 PUSH2 0x6EB JUMP JUMPDEST SWAP4 POP PUSH1 0x20 DUP5 RETURNDATASIZE PUSH1 0x20 GT PUSH2 0x892 JUMPI JUMPDEST DUP2 PUSH2 0x880 PUSH1 0x20 SWAP4 DUP4 PUSH2 0x1720 JUMP JUMPDEST DUP2 ADD SUB SLT PUSH2 0x1E9 JUMPI SWAP3 MLOAD SWAP3 PUSH1 0x40 PUSH2 0x822 JUMP JUMPDEST RETURNDATASIZE SWAP2 POP PUSH2 0x873 JUMP JUMPDEST PUSH1 0x40 MLOAD RETURNDATASIZE PUSH1 0x0 DUP3 RETURNDATACOPY RETURNDATASIZE SWAP1 REVERT JUMPDEST PUSH4 0x4E487B71 PUSH1 0xE0 SHL PUSH1 0x0 MSTORE PUSH1 0x11 PUSH1 0x4 MSTORE PUSH1 0x24 PUSH1 0x0 REVERT JUMPDEST PUSH2 0x8DE SWAP2 POP PUSH1 0x20 RETURNDATASIZE PUSH1 0x20 GT PUSH2 0x8E4 JUMPI JUMPDEST PUSH2 0x8D6 DUP2 DUP4 PUSH2 0x1720 JUMP JUMPDEST DUP2 ADD SWAP1 PUSH2 0x18E3 JUMP JUMPDEST DUP13 PUSH2 0x780 JUMP JUMPDEST POP RETURNDATASIZE PUSH2 0x8CC JUMP JUMPDEST PUSH4 0x4E487B71 PUSH1 0xE0 SHL PUSH1 0x0 MSTORE PUSH1 0x12 PUSH1 0x4 MSTORE PUSH1 0x24 PUSH1 0x0 REVERT JUMPDEST POP DUP10 ISZERO ISZERO PUSH2 0x6E6 JUMP JUMPDEST DUP2 PUSH1 0x0 MSTORE PUSH1 0x9 DUP5 ADD PUSH1 0x20 MSTORE PUSH1 0x40 PUSH1 0x0 KECCAK256 SLOAD SWAP2 PUSH2 0x6DC JUMP JUMPDEST DUP3 PUSH1 0x64 DUP8 DUP7 PUSH1 0x1 PUSH1 0xFF DUP6 SLOAD AND SWAP5 ADD SLOAD PUSH2 0x93D PUSH1 0x40 MLOAD DUP1 SWAP7 PUSH2 0x133E JUMP JUMPDEST PUSH1 0x24 CALLDATALOAD PUSH1 0x20 DUP7 ADD MSTORE PUSH1 0x40 DUP6 ADD MSTORE PUSH1 0x60 DUP5 ADD MSTORE DIV PUSH1 0x80 DUP3 ADD MSTORE PUSH32 0xAD7D5AACBE56D28FA9A202EC0DC05DBBFB4F870B381C9000E52A4B808CFFB926 PUSH1 0xA0 PUSH1 0x4 CALLDATALOAD SWAP3 LOG2 PUSH1 0x1 DUP1 SSTORE STOP JUMPDEST DUP5 SLOAD PUSH1 0x1 PUSH1 0x1 PUSH1 0xA0 SHL SUB AND DUP4 MSTORE PUSH1 0x1 SWAP5 DUP6 ADD SWAP5 DUP8 SWAP5 POP PUSH1 0x20 SWAP1 SWAP4 ADD SWAP3 ADD PUSH2 0x65D JUMP JUMPDEST PUSH1 0x7 DUP2 ADD SWAP1 PUSH2 0x641 JUMP JUMPDEST PUSH1 0x4 DUP3 ADD SLOAD SWAP2 PUSH2 0x635 JUMP JUMPDEST PUSH1 0x5 DUP2 ADD SLOAD SWAP2 PUSH2 0x628 JUMP JUMPDEST PUSH1 0x40 MLOAD PUSH3 0x461BCD PUSH1 0xE5 SHL DUP2 MSTORE PUSH1 0x20 PUSH1 0x4 DUP3 ADD MSTORE PUSH1 0xE PUSH1 0x24 DUP3 ADD MSTORE PUSH14 0x11D958D95C9CDA5E88199A5E585D PUSH1 0x92 SHL PUSH1 0x44 DUP3 ADD MSTORE PUSH1 0x64 SWAP1 REVERT JUMPDEST PUSH1 0x40 MLOAD PUSH3 0x461BCD PUSH1 0xE5 SHL DUP2 MSTORE PUSH1 0x20 PUSH1 0x4 DUP3 ADD MSTORE PUSH1 0x1C PUSH1 0x24 DUP3 ADD MSTORE PUSH32 0x486176757A207A6174656E20736F6E75636C616E646972696C6D697300000000 PUSH1 0x44 DUP3 ADD MSTORE PUSH1 0x64 SWAP1 REVERT JUMPDEST CALLVALUE PUSH2 0x1E9 JUMPI PUSH1 0x0 CALLDATASIZE PUSH1 0x3 NOT ADD SLT PUSH2 0x1E9 JUMPI PUSH1 0x20 PUSH1 0x40 MLOAD PUSH1 0x0 DUP2 MSTORE RETURN JUMPDEST CALLVALUE PUSH2 0x1E9 JUMPI PUSH1 0x40 CALLDATASIZE PUSH1 0x3 NOT ADD SLT PUSH2 0x1E9 JUMPI PUSH1 0x4 CALLDATALOAD PUSH1 0x2 DUP2 LT ISZERO PUSH2 0x1E9 JUMPI PUSH2 0xA81 PUSH2 0x1387 JUMP JUMPDEST PUSH2 0xA89 PUSH2 0x194E JUMP JUMPDEST PUSH2 0xA92 DUP2 PUSH2 0x134B JUMP JUMPDEST PUSH1 0x0 SWAP1 DUP2 MSTORE PUSH1 0x5 PUSH1 0x20 SWAP1 DUP2 MSTORE PUSH1 0x40 DUP1 DUP4 KECCAK256 SLOAD SWAP1 MLOAD PUSH4 0xA9059CBB PUSH1 0xE0 SHL DUP2 MSTORE CALLER PUSH1 0x4 DUP3 ADD MSTORE PUSH1 0x24 DUP1 CALLDATALOAD SWAP1 DUP3 ADD MSTORE SWAP3 DUP4 SWAP2 PUSH1 0x44 SWAP2 DUP4 SWAP2 PUSH1 0x1 PUSH1 0x1 PUSH1 0xA0 SHL SUB AND GAS CALL DUP1 ISZERO PUSH2 0x89A JUMPI PUSH2 0xAE8 SWAP2 PUSH1 0x0 SWAP2 PUSH2 0xAEE JUMPI POP PUSH2 0x19B3 JUMP JUMPDEST PUSH1 0x1 DUP1 SSTORE STOP JUMPDEST PUSH2 0xB06 SWAP2 POP PUSH1 0x20 RETURNDATASIZE DUP2 GT PUSH2 0x8E4 JUMPI PUSH2 0x8D6 DUP2 DUP4 PUSH2 0x1720 JUMP JUMPDEST DUP3 PUSH2 0x780 JUMP JUMPDEST CALLVALUE PUSH2 0x1E9 JUMPI PUSH1 0xC0 CALLDATASIZE PUSH1 0x3 NOT ADD SLT PUSH2 0x1E9 JUMPI PUSH1 0x3 PUSH1 0x4 CALLDATALOAD LT ISZERO PUSH2 0x1E9 JUMPI PUSH1 0x2 PUSH1 0x44 CALLDATALOAD LT ISZERO PUSH2 0x1E9 JUMPI PUSH1 0x2 PUSH1 0x64 CALLDATALOAD LT ISZERO PUSH2 0x1E9 JUMPI PUSH1 0x2 PUSH1 0x84 CALLDATALOAD LT ISZERO PUSH2 0x1E9 JUMPI PUSH2 0xB51 PUSH2 0x194E JUMP JUMPDEST PUSH1 0xA4 CALLDATALOAD ISZERO PUSH2 0xF8B JUMPI PUSH1 0x24 CALLDATALOAD ISZERO PUSH2 0xF4F JUMPI PUSH2 0xB6C PUSH1 0x84 CALLDATALOAD PUSH2 0x134B JUMP JUMPDEST PUSH1 0x84 CALLDATALOAD PUSH1 0x0 SWAP1 DUP2 MSTORE PUSH1 0x5 PUSH1 0x20 SWAP1 DUP2 MSTORE PUSH1 0x40 DUP1 DUP4 KECCAK256 SLOAD SWAP1 MLOAD PUSH4 0x23B872DD PUSH1 0xE0 SHL DUP2 MSTORE CALLER PUSH1 0x4 DUP3 ADD MSTORE ADDRESS PUSH1 0x24 DUP3 ADD MSTORE PUSH1 0xA4 CALLDATALOAD PUSH1 0x44 DUP3 ADD MSTORE SWAP3 DUP4 SWAP2 PUSH1 0x64 SWAP2 DUP4 SWAP2 PUSH1 0x1 PUSH1 0x1 PUSH1 0xA0 SHL SUB AND GAS CALL SWAP1 DUP2 ISZERO PUSH2 0x89A JUMPI PUSH1 0x0 SWAP2 PUSH2 0xF30 JUMPI JUMPDEST POP ISZERO PUSH2 0xEEB JUMPI PUSH2 0xBDD PUSH1 0x84 CALLDATALOAD PUSH1 0x64 CALLDATALOAD PUSH1 0x24 CALLDATALOAD PUSH1 0x4 CALLDATALOAD PUSH2 0x19F4 JUMP JUMPDEST DUP1 PUSH1 0x0 MSTORE PUSH1 0x2 PUSH1 0x20 MSTORE PUSH1 0x40 PUSH1 0x0 KECCAK256 PUSH2 0xBF6 PUSH1 0x44 CALLDATALOAD PUSH2 0x134B JUMP JUMPDEST PUSH1 0x44 CALLDATALOAD PUSH2 0xE8A JUMPI PUSH1 0x4 DUP2 ADD PUSH2 0xC0E PUSH1 0xA4 CALLDATALOAD DUP3 SLOAD PUSH2 0x17B6 JUMP JUMPDEST SWAP1 SSTORE PUSH1 0x8 DUP2 ADD SWAP1 CALLER PUSH1 0x0 MSTORE DUP2 PUSH1 0x20 MSTORE PUSH1 0x40 PUSH1 0x0 KECCAK256 SLOAD ISZERO PUSH2 0xE76 JUMPI JUMPDEST POP CALLER PUSH1 0x0 MSTORE PUSH1 0x20 MSTORE PUSH1 0x40 PUSH1 0x0 KECCAK256 PUSH2 0xC43 PUSH1 0xA4 CALLDATALOAD DUP3 SLOAD PUSH2 0x17B6 JUMP JUMPDEST SWAP1 SSTORE JUMPDEST PUSH1 0x40 MLOAD SWAP1 PUSH2 0xC53 DUP3 PUSH2 0x16E7 JUMP JUMPDEST CALLER DUP3 MSTORE PUSH1 0x20 DUP3 ADD SWAP2 PUSH2 0xC67 PUSH1 0x4 CALLDATALOAD DUP5 PUSH2 0x1942 JUMP JUMPDEST PUSH1 0x24 CALLDATALOAD PUSH1 0x40 DUP3 ADD MSTORE PUSH2 0xC7A PUSH1 0x44 CALLDATALOAD PUSH2 0x134B JUMP JUMPDEST PUSH1 0x44 CALLDATALOAD PUSH1 0x60 DUP3 ADD MSTORE PUSH2 0xC8D PUSH1 0x64 CALLDATALOAD PUSH2 0x134B JUMP JUMPDEST PUSH1 0x64 CALLDATALOAD PUSH1 0x80 DUP3 ADD MSTORE PUSH2 0xCA0 PUSH1 0x84 CALLDATALOAD PUSH2 0x134B JUMP JUMPDEST PUSH1 0x84 CALLDATALOAD PUSH1 0xA0 DUP3 ADD MSTORE PUSH1 0xA4 CALLDATALOAD PUSH1 0xC0 DUP3 ADD MSTORE TIMESTAMP PUSH1 0xE0 DUP3 ADD MSTORE DUP2 PUSH2 0x100 DUP3 ADD MSTORE CALLER PUSH1 0x0 MSTORE PUSH1 0x3 PUSH1 0x20 MSTORE PUSH1 0x40 PUSH1 0x0 KECCAK256 DUP1 SLOAD PUSH1 0x1 PUSH1 0x40 SHL DUP2 LT ISZERO PUSH2 0x484 JUMPI PUSH2 0xCE8 SWAP2 PUSH1 0x1 DUP3 ADD DUP2 SSTORE PUSH2 0x1355 JUMP JUMPDEST SWAP2 SWAP1 SWAP2 PUSH2 0xE60 JUMPI DUP1 MLOAD DUP3 SLOAD PUSH1 0x1 PUSH1 0x1 PUSH1 0xA0 SHL SUB SWAP1 SWAP2 AND PUSH1 0x1 PUSH1 0x1 PUSH1 0xA0 SHL SUB NOT DUP3 AND DUP2 OR DUP5 SSTORE SWAP5 MLOAD SWAP1 SWAP5 SWAP2 PUSH1 0x3 DUP3 LT ISZERO PUSH2 0xE4A JUMPI PUSH1 0x20 SWAP6 PUSH1 0x5 SWAP4 PUSH2 0x100 SWAP4 PUSH1 0xFF PUSH1 0xA0 SHL SWAP1 PUSH1 0xA0 SHL AND SWAP2 PUSH11 0xFFFFFFFFFFFFFFFFFFFFFF PUSH1 0xA8 SHL AND OR OR DUP5 SSTORE PUSH1 0x40 DUP2 ADD MLOAD PUSH1 0x1 DUP6 ADD SSTORE PUSH1 0x2 DUP5 ADD PUSH1 0x60 DUP3 ADD MLOAD PUSH2 0xD60 DUP2 PUSH2 0x134B JUMP JUMPDEST PUSH2 0xD69 DUP2 PUSH2 0x134B JUMP JUMPDEST DUP2 SLOAD PUSH2 0xFF00 PUSH1 0x80 DUP6 ADD MLOAD SWAP2 PUSH2 0xD7D DUP4 PUSH2 0x134B JUMP JUMPDEST PUSH2 0xD86 DUP4 PUSH2 0x134B JUMP JUMPDEST PUSH1 0xFF PUSH3 0xFF0000 PUSH1 0xA0 DUP9 ADD MLOAD PUSH2 0xD9A DUP2 PUSH2 0x134B JUMP JUMPDEST PUSH2 0xDA3 DUP2 PUSH2 0x134B JUMP JUMPDEST PUSH1 0x10 SHL AND SWAP5 AND SWAP1 PUSH3 0xFFFFFF NOT AND OR SWAP2 PUSH1 0x8 SHL AND OR OR SWAP1 SSTORE PUSH1 0xC0 DUP2 ADD MLOAD PUSH1 0x3 DUP6 ADD SSTORE PUSH1 0xE0 DUP2 ADD MLOAD PUSH1 0x4 DUP6 ADD SSTORE ADD MLOAD SWAP2 ADD SSTORE DUP1 PUSH1 0x40 MLOAD PUSH2 0xDE3 DUP2 PUSH1 0x4 CALLDATALOAD PUSH2 0x133E JUMP JUMPDEST PUSH1 0x24 CALLDATALOAD DUP5 DUP3 ADD MSTORE PUSH2 0xDF5 PUSH1 0x44 CALLDATALOAD PUSH2 0x134B JUMP JUMPDEST PUSH1 0x44 CALLDATALOAD PUSH1 0x40 DUP3 ADD MSTORE PUSH1 0xA4 CALLDATALOAD PUSH1 0x60 DUP3 ADD MSTORE PUSH2 0xE10 PUSH1 0x84 CALLDATALOAD PUSH2 0x134B JUMP JUMPDEST PUSH1 0x84 CALLDATALOAD PUSH1 0x80 DUP3 ADD MSTORE PUSH32 0x5E1E3E5A1884501B032AEADF4D458F1FF589AD1479D8C88F2B58D0592C6159A2 PUSH1 0xA0 CALLER SWAP3 LOG3 PUSH1 0x1 DUP1 SSTORE PUSH1 0x40 MLOAD SWAP1 DUP2 MSTORE RETURN JUMPDEST PUSH4 0x4E487B71 PUSH1 0xE0 SHL PUSH1 0x0 MSTORE PUSH1 0x21 PUSH1 0x4 MSTORE PUSH1 0x24 PUSH1 0x0 REVERT JUMPDEST PUSH4 0x4E487B71 PUSH1 0xE0 SHL PUSH1 0x0 MSTORE PUSH1 0x0 PUSH1 0x4 MSTORE PUSH1 0x24 PUSH1 0x0 REVERT JUMPDEST PUSH2 0xE84 SWAP1 PUSH1 0x6 CALLER SWAP2 ADD PUSH2 0x18FB JUMP JUMPDEST DUP3 PUSH2 0xC29 JUMP JUMPDEST PUSH1 0x5 DUP2 ADD PUSH2 0xE9B PUSH1 0xA4 CALLDATALOAD DUP3 SLOAD PUSH2 0x17B6 JUMP JUMPDEST SWAP1 SSTORE PUSH1 0x9 DUP2 ADD SWAP1 CALLER PUSH1 0x0 MSTORE DUP2 PUSH1 0x20 MSTORE PUSH1 0x40 PUSH1 0x0 KECCAK256 SLOAD ISZERO PUSH2 0xED7 JUMPI JUMPDEST POP CALLER PUSH1 0x0 MSTORE PUSH1 0x20 MSTORE PUSH1 0x40 PUSH1 0x0 KECCAK256 PUSH2 0xED0 PUSH1 0xA4 CALLDATALOAD DUP3 SLOAD PUSH2 0x17B6 JUMP JUMPDEST SWAP1 SSTORE PUSH2 0xC46 JUMP JUMPDEST PUSH2 0xEE5 SWAP1 PUSH1 0x7 CALLER SWAP2 ADD PUSH2 0x18FB JUMP JUMPDEST DUP3 PUSH2 0xEB6 JUMP JUMPDEST PUSH1 0x40 MLOAD PUSH3 0x461BCD PUSH1 0xE5 SHL DUP2 MSTORE PUSH1 0x20 PUSH1 0x4 DUP3 ADD MSTORE PUSH1 0x19 PUSH1 0x24 DUP3 ADD MSTORE PUSH32 0x546F6B656E207472616E73666572692062617361726973697A00000000000000 PUSH1 0x44 DUP3 ADD MSTORE PUSH1 0x64 SWAP1 REVERT JUMPDEST PUSH2 0xF49 SWAP2 POP PUSH1 0x20 RETURNDATASIZE PUSH1 0x20 GT PUSH2 0x8E4 JUMPI PUSH2 0x8D6 DUP2 DUP4 PUSH2 0x1720 JUMP JUMPDEST DUP2 PUSH2 0xBC3 JUMP JUMPDEST PUSH1 0x40 MLOAD PUSH3 0x461BCD PUSH1 0xE5 SHL DUP2 MSTORE PUSH1 0x20 PUSH1 0x4 DUP3 ADD MSTORE PUSH1 0x14 PUSH1 0x24 DUP3 ADD MSTORE PUSH20 0x22B9B4B5903232B3B2B9349033B2B1B2B939B4BD PUSH1 0x61 SHL PUSH1 0x44 DUP3 ADD MSTORE PUSH1 0x64 SWAP1 REVERT JUMPDEST PUSH1 0x40 MLOAD PUSH3 0x461BCD PUSH1 0xE5 SHL DUP2 MSTORE PUSH1 0x20 PUSH1 0x4 DUP3 ADD MSTORE PUSH1 0x1C PUSH1 0x24 DUP3 ADD MSTORE PUSH32 0x4D696B74617220736966697264616E20627579756B206F6C6D616C6900000000 PUSH1 0x44 DUP3 ADD MSTORE PUSH1 0x64 SWAP1 REVERT JUMPDEST CALLVALUE PUSH2 0x1E9 JUMPI PUSH1 0x40 CALLDATASIZE PUSH1 0x3 NOT ADD SLT PUSH2 0x1E9 JUMPI PUSH2 0xFE9 PUSH2 0x1312 JUMP JUMPDEST PUSH1 0x4 CALLDATALOAD PUSH1 0x0 MSTORE PUSH1 0x0 PUSH1 0x20 MSTORE PUSH1 0x40 PUSH1 0x0 KECCAK256 SWAP1 PUSH1 0x1 DUP1 PUSH1 0xA0 SHL SUB AND PUSH1 0x0 MSTORE PUSH1 0x20 MSTORE PUSH1 0x20 PUSH1 0xFF PUSH1 0x40 PUSH1 0x0 KECCAK256 SLOAD AND PUSH1 0x40 MLOAD SWAP1 ISZERO ISZERO DUP2 MSTORE RETURN JUMPDEST CALLVALUE PUSH2 0x1E9 JUMPI PUSH1 0x0 CALLDATASIZE PUSH1 0x3 NOT ADD SLT PUSH2 0x1E9 JUMPI PUSH1 0x20 PUSH1 0x40 MLOAD PUSH32 0xA49807205CE4D355092EF5A8A18F56E8913CF4A201FBE287825B095693C21775 DUP2 MSTORE RETURN JUMPDEST CALLVALUE PUSH2 0x1E9 JUMPI PUSH1 0x40 CALLDATASIZE PUSH1 0x3 NOT ADD SLT PUSH2 0x1E9 JUMPI PUSH1 0x4 CALLDATALOAD PUSH1 0x2 DUP2 LT ISZERO PUSH2 0x1E9 JUMPI PUSH2 0x107D PUSH2 0x1312 JUMP JUMPDEST PUSH2 0x1085 PUSH2 0x1387 JUMP JUMPDEST PUSH1 0x1 PUSH1 0x1 PUSH1 0xA0 SHL SUB AND SWAP1 DUP2 ISZERO PUSH2 0x10BF JUMPI PUSH2 0x109E DUP2 PUSH2 0x134B JUMP JUMPDEST PUSH1 0x0 SWAP1 DUP2 MSTORE PUSH1 0x5 PUSH1 0x20 MSTORE PUSH1 0x40 SWAP1 KECCAK256 DUP1 SLOAD PUSH1 0x1 PUSH1 0x1 PUSH1 0xA0 SHL SUB NOT AND SWAP1 SWAP2 OR SWAP1 SSTORE STOP JUMPDEST PUSH1 0x40 MLOAD PUSH3 0x461BCD PUSH1 0xE5 SHL DUP2 MSTORE PUSH1 0x20 PUSH1 0x4 DUP3 ADD MSTORE PUSH1 0xE PUSH1 0x24 DUP3 ADD MSTORE PUSH14 0x476563657273697A206164726573 PUSH1 0x90 SHL PUSH1 0x44 DUP3 ADD MSTORE PUSH1 0x64 SWAP1 REVERT JUMPDEST CALLVALUE PUSH2 0x1E9 JUMPI PUSH1 0x0 CALLDATASIZE PUSH1 0x3 NOT ADD SLT PUSH2 0x1E9 JUMPI PUSH1 0x20 PUSH1 0x40 MLOAD PUSH1 0x64 DUP2 MSTORE RETURN JUMPDEST CALLVALUE PUSH2 0x1E9 JUMPI PUSH1 0x40 CALLDATASIZE PUSH1 0x3 NOT ADD SLT PUSH2 0x1E9 JUMPI PUSH2 0x112A PUSH2 0x1312 JUMP JUMPDEST CALLER PUSH1 0x1 PUSH1 0x1 PUSH1 0xA0 SHL SUB DUP3 AND SUB PUSH2 0x1146 JUMPI PUSH2 0x267 SWAP1 PUSH1 0x4 CALLDATALOAD PUSH2 0x1742 JUMP JUMPDEST PUSH1 0x40 MLOAD PUSH3 0x461BCD PUSH1 0xE5 SHL DUP2 MSTORE PUSH1 0x20 PUSH1 0x4 DUP3 ADD MSTORE PUSH1 0x2F PUSH1 0x24 DUP3 ADD MSTORE PUSH32 0x416363657373436F6E74726F6C3A2063616E206F6E6C792072656E6F756E6365 PUSH1 0x44 DUP3 ADD MSTORE PUSH15 0x103937B632B9903337B91039B2B633 PUSH1 0x89 SHL PUSH1 0x64 DUP3 ADD MSTORE PUSH1 0x84 SWAP1 REVERT JUMPDEST CALLVALUE PUSH2 0x1E9 JUMPI PUSH1 0x40 CALLDATASIZE PUSH1 0x3 NOT ADD SLT PUSH2 0x1E9 JUMPI PUSH1 0x4 CALLDATALOAD PUSH2 0x11BF PUSH2 0x1312 JUMP JUMPDEST DUP2 PUSH1 0x0 MSTORE PUSH1 0x0 PUSH1 0x20 MSTORE PUSH2 0x11D9 PUSH1 0x1 PUSH1 0x40 PUSH1 0x0 KECCAK256 ADD SLOAD PUSH2 0x15B9 JUMP JUMPDEST DUP2 PUSH1 0x0 MSTORE PUSH1 0x0 PUSH1 0x20 MSTORE PUSH1 0x40 PUSH1 0x0 KECCAK256 SWAP1 PUSH1 0x1 DUP1 PUSH1 0xA0 SHL SUB AND SWAP1 DUP2 PUSH1 0x0 MSTORE PUSH1 0x20 MSTORE PUSH1 0xFF PUSH1 0x40 PUSH1 0x0 KECCAK256 SLOAD AND ISZERO PUSH2 0x1208 JUMPI STOP JUMPDEST DUP2 PUSH1 0x0 MSTORE PUSH1 0x0 PUSH1 0x20 MSTORE PUSH1 0x40 PUSH1 0x0 KECCAK256 DUP2 PUSH1 0x0 MSTORE PUSH1 0x20 MSTORE PUSH1 0x40 PUSH1 0x0 KECCAK256 PUSH1 0x1 PUSH1 0xFF NOT DUP3 SLOAD AND OR SWAP1 SSTORE CALLER SWAP2 PUSH32 0x2F8788117E7EFF1D82E926EC794901D17C78024A50270940304540A733656F0D PUSH1 0x0 DUP1 LOG4 STOP JUMPDEST CALLVALUE PUSH2 0x1E9 JUMPI PUSH1 0x20 CALLDATASIZE PUSH1 0x3 NOT ADD SLT PUSH2 0x1E9 JUMPI PUSH1 0x4 CALLDATALOAD PUSH1 0x0 MSTORE PUSH1 0x0 PUSH1 0x20 MSTORE PUSH1 0x20 PUSH1 0x1 PUSH1 0x40 PUSH1 0x0 KECCAK256 ADD SLOAD PUSH1 0x40 MLOAD SWAP1 DUP2 MSTORE RETURN JUMPDEST CALLVALUE PUSH2 0x1E9 JUMPI PUSH1 0x0 CALLDATASIZE PUSH1 0x3 NOT ADD SLT PUSH2 0x1E9 JUMPI PUSH1 0x20 PUSH1 0x40 MLOAD PUSH1 0x5 DUP2 MSTORE RETURN JUMPDEST CALLVALUE PUSH2 0x1E9 JUMPI PUSH1 0x0 CALLDATASIZE PUSH1 0x3 NOT ADD SLT PUSH2 0x1E9 JUMPI PUSH1 0x20 PUSH1 0x6 SLOAD PUSH1 0x40 MLOAD SWAP1 DUP2 MSTORE RETURN JUMPDEST CALLVALUE PUSH2 0x1E9 JUMPI PUSH1 0x20 CALLDATASIZE PUSH1 0x3 NOT ADD SLT PUSH2 0x1E9 JUMPI PUSH1 0x4 CALLDATALOAD SWAP1 PUSH4 0xFFFFFFFF PUSH1 0xE0 SHL DUP3 AND DUP1 SWAP3 SUB PUSH2 0x1E9 JUMPI PUSH1 0x20 SWAP2 PUSH4 0x7965DB0B PUSH1 0xE0 SHL DUP2 EQ SWAP1 DUP2 ISZERO PUSH2 0x1301 JUMPI JUMPDEST POP ISZERO ISZERO DUP2 MSTORE RETURN JUMPDEST PUSH4 0x1FFC9A7 PUSH1 0xE0 SHL EQ SWAP1 POP DUP4 PUSH2 0x12FA JUMP JUMPDEST PUSH1 0x24 CALLDATALOAD SWAP1 PUSH1 0x1 PUSH1 0x1 PUSH1 0xA0 SHL SUB DUP3 AND DUP3 SUB PUSH2 0x1E9 JUMPI JUMP JUMPDEST PUSH1 0x4 CALLDATALOAD SWAP1 PUSH1 0x1 PUSH1 0x1 PUSH1 0xA0 SHL SUB DUP3 AND DUP3 SUB PUSH2 0x1E9 JUMPI JUMP JUMPDEST SWAP1 PUSH1 0x3 DUP3 LT ISZERO PUSH2 0xE4A JUMPI MSTORE JUMP JUMPDEST PUSH1 0x2 GT ISZERO PUSH2 0xE4A JUMPI JUMP JUMPDEST DUP1 SLOAD DUP3 LT ISZERO PUSH2 0x1371 JUMPI PUSH1 0x0 MSTORE PUSH1 0x6 PUSH1 0x20 PUSH1 0x0 KECCAK256 SWAP2 MUL ADD SWAP1 PUSH1 0x0 SWAP1 JUMP JUMPDEST PUSH4 0x4E487B71 PUSH1 0xE0 SHL PUSH1 0x0 MSTORE PUSH1 0x32 PUSH1 0x4 MSTORE PUSH1 0x24 PUSH1 0x0 REVERT JUMPDEST CALLER PUSH1 0x0 SWAP1 DUP2 MSTORE PUSH32 0x7D7FFB7A348E1C6A02869081A26547B49160DD3DF72D1D75A570EB9B698292EC PUSH1 0x20 SWAP1 DUP2 MSTORE PUSH1 0x40 DUP1 DUP4 KECCAK256 SLOAD SWAP1 SWAP3 SWAP2 SWAP1 PUSH32 0xA49807205CE4D355092EF5A8A18F56E8913CF4A201FBE287825B095693C21775 SWAP1 PUSH1 0xFF AND ISZERO PUSH2 0x13ED JUMPI POP POP POP POP JUMP JUMPDEST PUSH2 0x13F6 CALLER PUSH2 0x17D4 JUMP JUMPDEST SWAP1 DUP5 MLOAD SWAP1 PUSH2 0x1403 DUP3 PUSH2 0x1704 JUMP JUMPDEST PUSH1 0x42 DUP3 MSTORE DUP4 DUP3 ADD SWAP5 PUSH1 0x60 CALLDATASIZE DUP8 CALLDATACOPY DUP3 MLOAD ISZERO PUSH2 0x15A5 JUMPI PUSH1 0x30 DUP7 MSTORE8 DUP3 MLOAD SWAP1 PUSH1 0x1 SWAP2 DUP3 LT ISZERO PUSH2 0x15A5 JUMPI SWAP1 PUSH1 0x78 PUSH1 0x21 DUP6 ADD MSTORE8 PUSH1 0x41 SWAP2 JUMPDEST DUP2 DUP4 GT PUSH2 0x1537 JUMPI POP POP POP PUSH2 0x14F5 JUMPI DUP5 PUSH2 0x14C3 PUSH1 0x48 PUSH2 0x14E7 SWAP4 PUSH1 0x44 SWAP8 SWAP9 MLOAD SWAP9 DUP10 SWAP2 PUSH2 0x14B4 DUP10 DUP5 ADD SWAP9 PUSH23 0x20B1B1B2B9B9A1B7B73A3937B61D1030B1B1B7BAB73A1 PUSH1 0x4D SHL DUP11 MSTORE PUSH2 0x148B DUP2 MLOAD DUP1 SWAP3 DUP14 PUSH1 0x37 DUP10 ADD SWAP2 ADD PUSH2 0x16C4 JUMP JUMPDEST DUP5 ADD SWAP2 PUSH17 0x1034B99036B4B9B9B4B733903937B6329 PUSH1 0x7D SHL PUSH1 0x37 DUP5 ADD MSTORE MLOAD DUP1 SWAP4 DUP7 DUP5 ADD SWAP1 PUSH2 0x16C4 JUMP JUMPDEST ADD SUB PUSH1 0x28 DUP2 ADD DUP10 MSTORE ADD DUP8 PUSH2 0x1720 JUMP JUMPDEST MLOAD SWAP5 DUP6 SWAP4 PUSH3 0x461BCD PUSH1 0xE5 SHL DUP6 MSTORE PUSH1 0x4 DUP6 ADD MSTORE MLOAD DUP1 SWAP3 DUP2 PUSH1 0x24 DUP7 ADD MSTORE DUP6 DUP6 ADD SWAP1 PUSH2 0x16C4 JUMP JUMPDEST PUSH1 0x1F ADD PUSH1 0x1F NOT AND DUP2 ADD SUB ADD SWAP1 REVERT JUMPDEST PUSH1 0x64 DUP4 DUP7 MLOAD SWAP1 PUSH3 0x461BCD PUSH1 0xE5 SHL DUP3 MSTORE DUP1 PUSH1 0x4 DUP4 ADD MSTORE PUSH1 0x24 DUP3 ADD MSTORE PUSH32 0x537472696E67733A20686578206C656E67746820696E73756666696369656E74 PUSH1 0x44 DUP3 ADD MSTORE REVERT JUMPDEST SWAP1 SWAP2 SWAP3 PUSH1 0xF DUP2 AND PUSH1 0x10 DUP2 LT ISZERO PUSH2 0x1591 JUMPI PUSH16 0x181899199A1A9B1B9C1CB0B131B232B3 PUSH1 0x81 SHL SWAP1 BYTE PUSH2 0x1567 DUP6 DUP8 PUSH2 0x17C3 JUMP JUMPDEST MSTORE8 PUSH1 0x4 SHR SWAP3 DUP1 ISZERO PUSH2 0x157D JUMPI PUSH1 0x0 NOT ADD SWAP2 SWAP1 PUSH2 0x1434 JUMP JUMPDEST PUSH4 0x4E487B71 PUSH1 0xE0 SHL DUP3 MSTORE PUSH1 0x11 PUSH1 0x4 MSTORE PUSH1 0x24 DUP3 REVERT JUMPDEST PUSH4 0x4E487B71 PUSH1 0xE0 SHL DUP4 MSTORE PUSH1 0x32 PUSH1 0x4 MSTORE PUSH1 0x24 DUP4 REVERT JUMPDEST PUSH4 0x4E487B71 PUSH1 0xE0 SHL DUP2 MSTORE PUSH1 0x32 PUSH1 0x4 MSTORE PUSH1 0x24 SWAP1 REVERT JUMPDEST PUSH1 0x0 DUP2 DUP2 MSTORE PUSH1 0x20 DUP2 DUP2 MSTORE PUSH1 0x40 SWAP3 DUP4 DUP4 KECCAK256 CALLER DUP5 MSTORE DUP3 MSTORE PUSH1 0xFF DUP5 DUP5 KECCAK256 SLOAD AND ISZERO PUSH2 0x15E0 JUMPI POP POP POP POP JUMP JUMPDEST PUSH2 0x15E9 CALLER PUSH2 0x17D4 JUMP JUMPDEST SWAP1 DUP5 MLOAD SWAP1 PUSH2 0x15F6 DUP3 PUSH2 0x1704 JUMP JUMPDEST PUSH1 0x42 DUP3 MSTORE DUP4 DUP3 ADD SWAP5 PUSH1 0x60 CALLDATASIZE DUP8 CALLDATACOPY DUP3 MLOAD ISZERO PUSH2 0x15A5 JUMPI PUSH1 0x30 DUP7 MSTORE8 DUP3 MLOAD SWAP1 PUSH1 0x1 SWAP2 DUP3 LT ISZERO PUSH2 0x15A5 JUMPI SWAP1 PUSH1 0x78 PUSH1 0x21 DUP6 ADD MSTORE8 PUSH1 0x41 SWAP2 JUMPDEST DUP2 DUP4 GT PUSH2 0x167E JUMPI POP POP POP PUSH2 0x14F5 JUMPI DUP5 PUSH2 0x14C3 PUSH1 0x48 PUSH2 0x14E7 SWAP4 PUSH1 0x44 SWAP8 SWAP9 MLOAD SWAP9 DUP10 SWAP2 PUSH2 0x14B4 DUP10 DUP5 ADD SWAP9 PUSH23 0x20B1B1B2B9B9A1B7B73A3937B61D1030B1B1B7BAB73A1 PUSH1 0x4D SHL DUP11 MSTORE PUSH2 0x148B DUP2 MLOAD DUP1 SWAP3 DUP14 PUSH1 0x37 DUP10 ADD SWAP2 ADD PUSH2 0x16C4 JUMP JUMPDEST SWAP1 SWAP2 SWAP3 PUSH1 0xF DUP2 AND PUSH1 0x10 DUP2 LT ISZERO PUSH2 0x1591 JUMPI PUSH16 0x181899199A1A9B1B9C1CB0B131B232B3 PUSH1 0x81 SHL SWAP1 BYTE PUSH2 0x16AE DUP6 DUP8 PUSH2 0x17C3 JUMP JUMPDEST MSTORE8 PUSH1 0x4 SHR SWAP3 DUP1 ISZERO PUSH2 0x157D JUMPI PUSH1 0x0 NOT ADD SWAP2 SWAP1 PUSH2 0x1627 JUMP JUMPDEST PUSH1 0x0 JUMPDEST DUP4 DUP2 LT PUSH2 0x16D7 JUMPI POP POP PUSH1 0x0 SWAP2 ADD MSTORE JUMP JUMPDEST DUP2 DUP2 ADD MLOAD DUP4 DUP3 ADD MSTORE PUSH1 0x20 ADD PUSH2 0x16C7 JUMP JUMPDEST PUSH2 0x120 DUP2 ADD SWAP1 DUP2 LT PUSH8 0xFFFFFFFFFFFFFFFF DUP3 GT OR PUSH2 0x484 JUMPI PUSH1 0x40 MSTORE JUMP JUMPDEST PUSH1 0x80 DUP2 ADD SWAP1 DUP2 LT PUSH8 0xFFFFFFFFFFFFFFFF DUP3 GT OR PUSH2 0x484 JUMPI PUSH1 0x40 MSTORE JUMP JUMPDEST SWAP1 PUSH1 0x1F DUP1 NOT SWAP2 ADD AND DUP2 ADD SWAP1 DUP2 LT PUSH8 0xFFFFFFFFFFFFFFFF DUP3 GT OR PUSH2 0x484 JUMPI PUSH1 0x40 MSTORE JUMP JUMPDEST SWAP1 PUSH1 0x0 SWAP2 DUP1 DUP4 MSTORE DUP3 PUSH1 0x20 MSTORE PUSH1 0x40 DUP4 KECCAK256 SWAP2 PUSH1 0x1 DUP1 PUSH1 0xA0 SHL SUB AND SWAP2 DUP3 DUP5 MSTORE PUSH1 0x20 MSTORE PUSH1 0xFF PUSH1 0x40 DUP5 KECCAK256 SLOAD AND PUSH2 0x1772 JUMPI POP POP POP JUMP JUMPDEST DUP1 DUP4 MSTORE DUP3 PUSH1 0x20 MSTORE PUSH1 0x40 DUP4 KECCAK256 DUP3 DUP5 MSTORE PUSH1 0x20 MSTORE PUSH1 0x40 DUP4 KECCAK256 PUSH1 0xFF NOT DUP2 SLOAD AND SWAP1 SSTORE PUSH32 0xF6391F5C32D9C69D2A47EA670B442974B53935D1EDC7FD64EB21E047A839171B CALLER SWAP4 DUP1 LOG4 JUMP JUMPDEST SWAP2 SWAP1 DUP3 ADD DUP1 SWAP3 GT PUSH2 0x8A6 JUMPI JUMP JUMPDEST SWAP1 DUP2 MLOAD DUP2 LT ISZERO PUSH2 0x1371 JUMPI ADD PUSH1 0x20 ADD SWAP1 JUMP JUMPDEST PUSH1 0x40 MLOAD SWAP1 PUSH1 0x60 DUP3 ADD DUP3 DUP2 LT PUSH8 0xFFFFFFFFFFFFFFFF DUP3 GT OR PUSH2 0x484 JUMPI PUSH1 0x40 MSTORE PUSH1 0x2A DUP3 MSTORE PUSH1 0x20 DUP3 ADD PUSH1 0x40 CALLDATASIZE DUP3 CALLDATACOPY DUP3 MLOAD ISZERO PUSH2 0x1371 JUMPI PUSH1 0x30 SWAP1 MSTORE8 DUP2 MLOAD PUSH1 0x1 SWAP1 DUP2 LT ISZERO PUSH2 0x1371 JUMPI PUSH1 0x78 PUSH1 0x21 DUP5 ADD MSTORE8 PUSH1 0x29 SWAP1 JUMPDEST DUP1 DUP3 GT PUSH2 0x1875 JUMPI POP POP PUSH2 0x1831 JUMPI SWAP1 JUMP JUMPDEST PUSH1 0x64 PUSH1 0x40 MLOAD PUSH3 0x461BCD PUSH1 0xE5 SHL DUP2 MSTORE PUSH1 0x20 PUSH1 0x4 DUP3 ADD MSTORE PUSH1 0x20 PUSH1 0x24 DUP3 ADD MSTORE PUSH32 0x537472696E67733A20686578206C656E67746820696E73756666696369656E74 PUSH1 0x44 DUP3 ADD MSTORE REVERT JUMPDEST SWAP1 SWAP2 PUSH1 0xF DUP2 AND PUSH1 0x10 DUP2 LT ISZERO PUSH2 0x18CE JUMPI PUSH16 0x181899199A1A9B1B9C1CB0B131B232B3 PUSH1 0x81 SHL SWAP1 BYTE PUSH2 0x18A4 DUP5 DUP7 PUSH2 0x17C3 JUMP JUMPDEST MSTORE8 PUSH1 0x4 SHR SWAP2 DUP1 ISZERO PUSH2 0x18B9 JUMPI PUSH1 0x0 NOT ADD SWAP1 PUSH2 0x1821 JUMP JUMPDEST PUSH1 0x24 PUSH1 0x0 PUSH4 0x4E487B71 PUSH1 0xE0 SHL DUP2 MSTORE PUSH1 0x11 PUSH1 0x4 MSTORE REVERT JUMPDEST PUSH1 0x24 PUSH1 0x0 PUSH4 0x4E487B71 PUSH1 0xE0 SHL DUP2 MSTORE PUSH1 0x32 PUSH1 0x4 MSTORE REVERT JUMPDEST SWAP1 DUP2 PUSH1 0x20 SWAP2 SUB SLT PUSH2 0x1E9 JUMPI MLOAD DUP1 ISZERO ISZERO DUP2 SUB PUSH2 0x1E9 JUMPI SWAP1 JUMP JUMPDEST DUP1 SLOAD SWAP1 PUSH1 0x1 PUSH1 0x40 SHL DUP3 LT ISZERO PUSH2 0x484 JUMPI PUSH1 0x1 DUP3 ADD DUP1 DUP3 SSTORE DUP3 LT ISZERO PUSH2 0x1371 JUMPI PUSH1 0x0 MSTORE PUSH1 0x20 PUSH1 0x0 KECCAK256 ADD SWAP1 PUSH1 0x1 DUP1 PUSH1 0xA0 SHL SUB AND PUSH12 0xFFFFFFFFFFFFFFFFFFFFFFFF PUSH1 0xA0 SHL DUP3 SLOAD AND OR SWAP1 SSTORE JUMP JUMPDEST PUSH1 0x3 DUP3 LT ISZERO PUSH2 0xE4A JUMPI MSTORE JUMP JUMPDEST PUSH1 0x2 PUSH1 0x1 SLOAD EQ PUSH2 0x195F JUMPI PUSH1 0x2 PUSH1 0x1 SSTORE JUMP JUMPDEST PUSH1 0x40 MLOAD PUSH3 0x461BCD PUSH1 0xE5 SHL DUP2 MSTORE PUSH1 0x20 PUSH1 0x4 DUP3 ADD MSTORE PUSH1 0x1F PUSH1 0x24 DUP3 ADD MSTORE PUSH32 0x5265656E7472616E637947756172643A207265656E7472616E742063616C6C00 PUSH1 0x44 DUP3 ADD MSTORE PUSH1 0x64 SWAP1 REVERT JUMPDEST PUSH1 0x0 NOT DUP2 EQ PUSH2 0x8A6 JUMPI PUSH1 0x1 ADD SWAP1 JUMP JUMPDEST ISZERO PUSH2 0x19BA JUMPI JUMP JUMPDEST PUSH1 0x40 MLOAD PUSH3 0x461BCD PUSH1 0xE5 SHL DUP2 MSTORE PUSH1 0x20 PUSH1 0x4 DUP3 ADD MSTORE PUSH1 0x12 PUSH1 0x24 DUP3 ADD MSTORE PUSH18 0x2A3930B739B332B9103130B9B0B934B9B4BD PUSH1 0x71 SHL PUSH1 0x44 DUP3 ADD MSTORE PUSH1 0x64 SWAP1 REVERT JUMPDEST SWAP2 PUSH1 0x0 SWAP4 PUSH1 0x6 SLOAD SWAP5 JUMPDEST DUP6 DUP2 LT PUSH2 0x1A7F JUMPI POP PUSH2 0x1A0E DUP6 PUSH2 0x19A4 JUMP JUMPDEST PUSH1 0x6 SSTORE DUP5 PUSH1 0x0 MSTORE PUSH1 0x2 PUSH1 0x20 MSTORE PUSH1 0x40 PUSH1 0x0 KECCAK256 SWAP2 PUSH1 0x3 DUP6 LT ISZERO PUSH2 0xE4A JUMPI PUSH1 0xA SWAP4 PUSH1 0xFF NOT SWAP6 PUSH1 0xFF DUP8 DUP7 SLOAD AND SWAP2 AND OR DUP5 SSTORE PUSH1 0x1 DUP5 ADD SSTORE PUSH1 0x2 DUP4 ADD SWAP2 PUSH2 0x1A4E DUP3 PUSH2 0x134B JUMP JUMPDEST PUSH1 0xFF PUSH2 0xFF00 DUP5 SLOAD SWAP3 PUSH2 0x1A5F DUP2 PUSH2 0x134B JUMP JUMPDEST PUSH1 0x8 SHL AND SWAP3 AND SWAP1 PUSH2 0xFFFF NOT AND OR OR SWAP1 SSTORE TIMESTAMP PUSH1 0x3 DUP3 ADD SSTORE ADD SWAP1 DUP2 SLOAD AND SWAP1 SSTORE SWAP1 JUMP JUMPDEST DUP1 PUSH1 0x0 MSTORE PUSH1 0x2 DUP1 PUSH1 0x20 MSTORE DUP3 PUSH1 0x40 PUSH1 0x0 KECCAK256 SWAP2 PUSH1 0xFF SWAP1 DUP2 PUSH1 0xA DUP6 ADD SLOAD AND ISZERO SWAP4 DUP5 PUSH2 0x1B2A JUMPI JUMPDEST DUP5 PUSH2 0x1B1C JUMPI JUMPDEST DUP5 PUSH2 0x1AFA JUMPI JUMPDEST DUP5 PUSH2 0x1AD3 JUMPI JUMPDEST POP POP POP POP PUSH2 0x1ACA JUMPI PUSH2 0x1AC5 SWAP1 PUSH2 0x19A4 JUMP JUMPDEST PUSH2 0x19FD JUMP JUMPDEST SWAP5 POP POP POP POP POP SWAP1 JUMP JUMPDEST SWAP1 SWAP2 SWAP3 SWAP4 POP ADD SLOAD PUSH1 0x8 SHR AND PUSH2 0x1AE7 DUP3 PUSH2 0x134B JUMP JUMPDEST PUSH2 0x1AF0 DUP2 PUSH2 0x134B JUMP JUMPDEST EQ DUP3 CODESIZE DUP1 DUP1 PUSH2 0x1AB4 JUMP JUMPDEST SWAP4 POP DUP7 DUP3 DUP3 DUP7 ADD SLOAD AND PUSH2 0x1B0C DUP3 PUSH2 0x134B JUMP JUMPDEST PUSH2 0x1B15 DUP2 PUSH2 0x134B JUMP JUMPDEST EQ SWAP4 PUSH2 0x1AAE JUMP JUMPDEST PUSH1 0x1 DUP2 ADD SLOAD DUP10 EQ SWAP5 POP PUSH2 0x1AA8 JUMP JUMPDEST DUP1 SLOAD SWAP1 SWAP5 POP DUP3 AND SWAP3 POP PUSH1 0x3 DUP1 DUP11 LT ISZERO PUSH2 0xE4A JUMPI DUP4 LT ISZERO PUSH2 0xE4A JUMPI DUP9 DUP7 SWAP4 EQ SWAP4 PUSH2 0x1AA2 JUMP INVALID LOG2 PUSH5 0x6970667358 0x22 SLT KECCAK256 0x2B SWAP7 PUSH17 0x9D9200FD9EA8DCF71AC92E868D3B9A7E0C CHAINID PUSH17 0x4ACBD81737D9F592D1CA64736F6C634300 ADDMOD EQ STOP CALLER 0x2F DUP8 DUP9 GT PUSH31 0x7EFF1D82E926EC794901D17C78024A50270940304540A733656F0D00000000 "},"methodIdentifiers":{"ADMIN_ROLE()":"75b238fc","COMMISSION_DENOMINATOR()":"3b1dbfcc","COMMISSION_RATE()":"1a454ea6","DEFAULT_ADMIN_ROLE()":"a217fddf","createPrediction(uint8,uint256,uint8,uint8,uint8,uint256)":"9a749db0","getPoolDetails(uint256)":"b8764c39","getRoleAdmin(bytes32)":"248a9ca3","getUserPoints(address)":"aeefe31f","getUserPredictions(address)":"c285f853","grantRole(bytes32,address)":"2f2ff15d","hasRole(bytes32,address)":"91d14854","nextPoolId()":"18e56131","pools(uint256)":"ac4afa38","renounceRole(bytes32,address)":"36568abe","resolvePool(uint256,uint256)":"a505f689","revokeRole(bytes32,address)":"d547741f","supportsInterface(bytes4)":"01ffc9a7","tokenAddresses(uint8)":"cf0d7437","updateTokenAddress(uint8,address)":"3de6f379","userPoints(address)":"f50ddbc7","userPredictions(address,uint256)":"f6c33179","withdrawCommission(uint8,uint256)":"9a78a858"}}}}}