{"src/contracts/PredictionMarket.sol":{"PredictionMarket":{"abi":[{"inputs":[{"internalType":"address","name":"_usdcAddress","type":"address"},{"internalType":"address","name":"_usdtAddress","type":"address"}],"stateMutability":"nonpayable","type":"constructor"},{"anonymous":false,"inputs":[{"indexed":true,"internalType":"bytes32","name":"role","type":"bytes32"},{"indexed":true,"internalType":"bytes32","name":"previousAdminRole","type":"bytes32"},{"indexed":true,"internalType":"bytes32","name":"newAdminRole","type":"bytes32"}],"name":"RoleAdminChanged","type":"event"},{"anonymous":false,"inputs":[{"indexed":true,"internalType":"bytes32","name":"role","type":"bytes32"},{"indexed":true,"internalType":"address","name":"account","type":"address"},{"indexed":true,"internalType":"address","name":"sender","type":"address"}],"name":"RoleGranted","type":"event"},{"anonymous":false,"inputs":[{"indexed":true,"internalType":"bytes32","name":"role","type":"bytes32"},{"indexed":true,"internalType":"address","name":"account","type":"address"},{"indexed":true,"internalType":"address","name":"sender","type":"address"}],"name":"RoleRevoked","type":"event"},{"inputs":[],"name":"ADMIN_ROLE","outputs":[{"internalType":"bytes32","name":"","type":"bytes32"}],"stateMutability":"view","type":"function"},{"inputs":[],"name":"COMMISSION_DENOMINATOR","outputs":[{"internalType":"uint256","name":"","type":"uint256"}],"stateMutability":"view","type":"function"},{"inputs":[],"name":"COMMISSION_RATE","outputs":[{"internalType":"uint256","name":"","type":"uint256"}],"stateMutability":"view","type":"function"},{"inputs":[],"name":"DEFAULT_ADMIN_ROLE","outputs":[{"internalType":"bytes32","name":"","type":"bytes32"}],"stateMutability":"view","type":"function"},{"inputs":[{"internalType":"bytes32","name":"","type":"bytes32"}],"name":"activePoolIds","outputs":[{"internalType":"uint256","name":"","type":"uint256"}],"stateMutability":"view","type":"function"},{"inputs":[{"internalType":"enum PredictionMarket.Asset","name":"_asset","type":"uint8"},{"internalType":"uint256","name":"_threshold","type":"uint256"},{"internalType":"enum PredictionMarket.Direction","name":"_direction","type":"uint8"},{"internalType":"enum PredictionMarket.TimeInterval","name":"_interval","type":"uint8"},{"internalType":"enum PredictionMarket.TokenType","name":"_tokenType","type":"uint8"},{"internalType":"uint256","name":"_amount","type":"uint256"}],"name":"createPrediction","outputs":[{"internalType":"uint256","name":"","type":"uint256"}],"stateMutability":"nonpayable","type":"function"},{"inputs":[{"internalType":"bytes32","name":"role","type":"bytes32"}],"name":"getRoleAdmin","outputs":[{"internalType":"bytes32","name":"","type":"bytes32"}],"stateMutability":"view","type":"function"},{"inputs":[{"internalType":"bytes32","name":"role","type":"bytes32"},{"internalType":"address","name":"account","type":"address"}],"name":"grantRole","outputs":[],"stateMutability":"nonpayable","type":"function"},{"inputs":[{"internalType":"bytes32","name":"role","type":"bytes32"},{"internalType":"address","name":"account","type":"address"}],"name":"hasRole","outputs":[{"internalType":"bool","name":"","type":"bool"}],"stateMutability":"view","type":"function"},{"inputs":[],"name":"nextPoolId","outputs":[{"internalType":"uint256","name":"","type":"uint256"}],"stateMutability":"view","type":"function"},{"inputs":[{"internalType":"uint256","name":"","type":"uint256"}],"name":"pools","outputs":[{"internalType":"enum PredictionMarket.Asset","name":"asset","type":"uint8"},{"internalType":"uint256","name":"threshold","type":"uint256"},{"internalType":"enum PredictionMarket.TimeInterval","name":"interval","type":"uint8"},{"internalType":"enum PredictionMarket.TokenType","name":"tokenType","type":"uint8"},{"internalType":"uint256","name":"timestamp","type":"uint256"},{"internalType":"uint256","name":"abovePool","type":"uint256"},{"internalType":"uint256","name":"belowPool","type":"uint256"},{"internalType":"bool","name":"resolved","type":"bool"},{"internalType":"uint256","name":"finalPrice","type":"uint256"}],"stateMutability":"view","type":"function"},{"inputs":[{"internalType":"bytes32","name":"role","type":"bytes32"},{"internalType":"address","name":"account","type":"address"}],"name":"renounceRole","outputs":[],"stateMutability":"nonpayable","type":"function"},{"inputs":[{"internalType":"uint256","name":"_poolId","type":"uint256"},{"internalType":"uint256","name":"_actualPrice","type":"uint256"}],"name":"resolvePool","outputs":[],"stateMutability":"nonpayable","type":"function"},{"inputs":[{"internalType":"bytes32","name":"role","type":"bytes32"},{"internalType":"address","name":"account","type":"address"}],"name":"revokeRole","outputs":[],"stateMutability":"nonpayable","type":"function"},{"inputs":[{"internalType":"bytes4","name":"interfaceId","type":"bytes4"}],"name":"supportsInterface","outputs":[{"internalType":"bool","name":"","type":"bool"}],"stateMutability":"view","type":"function"},{"inputs":[{"internalType":"enum PredictionMarket.TokenType","name":"","type":"uint8"}],"name":"tokenAddresses","outputs":[{"internalType":"address","name":"","type":"address"}],"stateMutability":"view","type":"function"},{"inputs":[{"internalType":"address","name":"","type":"address"}],"name":"userPoints","outputs":[{"internalType":"uint256","name":"","type":"uint256"}],"stateMutability":"view","type":"function"},{"inputs":[{"internalType":"address","name":"","type":"address"},{"internalType":"uint256","name":"","type":"uint256"}],"name":"userPredictions","outputs":[{"internalType":"address","name":"user","type":"address"},{"internalType":"enum PredictionMarket.Asset","name":"asset","type":"uint8"},{"internalType":"uint256","name":"threshold","type":"uint256"},{"internalType":"enum PredictionMarket.Direction","name":"direction","type":"uint8"},{"internalType":"enum PredictionMarket.TimeInterval","name":"interval","type":"uint8"},{"internalType":"enum PredictionMarket.TokenType","name":"tokenType","type":"uint8"},{"internalType":"uint256","name":"amount","type":"uint256"},{"internalType":"uint256","name":"timestamp","type":"uint256"},{"internalType":"uint256","name":"poolId","type":"uint256"}],"stateMutability":"view","type":"function"}],"evm":{"bytecode":{"linkReferences":{},"object":"6080346200017d576200174590601f38839003908101601f19168201906001600160401b038211838310176200018257808391604095869485528339810103126200017d576200004f8162000198565b6200005e602080930162000198565b9183600191828055826007556005600091828052828152838320338452815260ff84842054161562000146575b7fa49807205ce4d355092ef5a8a18f56e8913cf4a201fbe287825b095693c21775808452838252848420338552825260ff8585205416156200010d575b508280525281812080546001600160a01b039586166001600160a01b031991821617909155928152208054939092169216919091179055516115779081620001ae8239f35b80845283825284842033855282528484208660ff1982541617905533903390600080516020620017258339815191528680a438620000c8565b82805282815283832033845281528383208560ff19825416179055333384600080516020620017258339815191528180a46200008b565b600080fd5b634e487b7160e01b600052604160045260246000fd5b51906001600160a01b03821682036200017d5756fe608080604052600436101561001357600080fd5b60003560e01c90816301ffc9a714610e215750806318e5613114610e035780631a454ea614610de7578063248a9ca314610db85780632f2ff15d14610d0557806336568abe14610c735780633b1dbfcc14610c5757806375b238fc14610c1c57806391d1485414610bcf5780639a749db01461065a578063a217fddf1461063e578063a505f68914610359578063ac4afa38146102af578063cf0d743714610269578063d547741f14610228578063f50ddbc7146101ee578063f6c33179146101165763f9862a16146100e557600080fd5b346101115760203660031901126101115760043560005260066020526020604060002054604051908152f35b600080fd5b346101115760403660031901126101115761012f610e8a565b6024359060018060a01b03809116600052600360205260406000208054831015610111576101209261016091610ecd565b508054906001810154600282015460ff81169060ff808260081c169160101c16916003850154936101ad60056004880154970154976040519981168a5260ff60208b019160a01c16610ea0565b60408801526101bb81610ec3565b60608701526101c981610ec3565b60808601526101d781610ec3565b60a085015260c084015260e0830152610100820152f35b34610111576020366003190112610111576001600160a01b0361020f610e8a565b1660005260046020526020604060002054604051908152f35b3461011157604036600319011261011157610267600435610247610e74565b90806000526000602052610262600160406000200154610ee9565b611138565b005b346101115760203660031901126101115760043560028110156101115761028f81610ec3565b6000526005602052602060018060a01b0360406000205416604051908152f35b34610111576020366003190112610111576004356000526002602052610120604060002060ff81541690600181015490600281015460ff8082169160081c166003830154600484015491600585015493600b60ff600a880154169601549661031a604051809a610ea0565b602089015261032881610ec3565b604088015261033681610ec3565b6060870152608086015260a085015260c0840152151560e0830152610100820152f35b34610111576040366003190112610111573360009081527f7d7ffb7a348e1c6a02869081a26547b49160dd3df72d1d75a570eb9b698292ec60209081526040909120547fa49807205ce4d355092ef5a8a18f56e8913cf4a201fbe287825b095693c217759060ff161561049e57506103cf611320565b60043560005260028152604060002090600a82019182549260ff841661045957600160069460ff1916179055602435600b82015560ff81541661044260026001840154930154916104346040519384928784019660ff808460081c1693169188611407565b03601f1981018352826110ea565b519020600052526000604081205560018055600080f35b60405162461bcd60e51b815260048101849052601c60248201527f486176757a207a6174656e20736f6e75636c616e646972696c6d6973000000006044820152606490fd5b6104a7336111ca565b604051906104b4826110b8565b604282528382019260603685378251156106285760308453825160019081101561062857607860218501536041905b8082116105ce57505061058b57610587936105379361056f93610560604894604051978576020b1b1b2b9b9a1b7b73a3937b61d1030b1b1b7bab73a1604d1b8a978801528251928391603789019101611095565b8401917001034b99036b4b9b9b4b733903937b6329607d1b603784015251809386840190611095565b010360288101845201826110ea565b60405162461bcd60e51b81529182916004830161110c565b0390fd5b6064846040519062461bcd60e51b825280600483015260248201527f537472696e67733a20686578206c656e67746820696e73756666696369656e746044820152fd5b9091600f81166010811015610628576f181899199a1a9b1b9c1cb0b131b232b360811b901a6105fd84876111b9565b5360041c9180156106125760001901906104e3565b634e487b7160e01b600052601160045260246000fd5b634e487b7160e01b600052603260045260246000fd5b3461011157600036600319011261011157602060405160008152f35b346101115760c036600319011261011157600360043510156101115760026044351015610111576002606435101561011157600260843510156101115761069f611320565b60a43515610b8a576024803515610b4f576106bb608435610ec3565b608435600052600560205260018060a01b0360406000205416604051906323b872dd60e01b6020830152338383015230604483015260a4356064830152606482528160a081011067ffffffffffffffff60a084011117610a125760a0820160e083011067ffffffffffffffff60e084011117610a125760e08201604052602060a08301527f5361666545524332303a206c6f772d6c6576656c2063616c6c206661696c656460c083015260008083516020850182855af13d15610b40573d9067ffffffffffffffff8211610b2b5760a06107b994604051936107a76020601f19601f84011601866110ea565b84523d6000602086013e5b0192611376565b8051908115918215610b08575b505015610ab1576107e06084356064358335600435611447565b80600052600260205260406000206107f9604435610ec3565b604435610a50576004810161081160a43582546111ac565b90556008810190336000528160205260406000205415610a3c575b5033600052602052604060002061084660a43582546111ac565b90555b33600052600360205260406000209160405190610120820182811067ffffffffffffffff821117610a27576040523382526020820160043581526040830182358152606084019061089b604435610ec3565b604435825260808501906108b0606435610ec3565b606435825260a08601906108c5608435610ec3565b608435825260c087019460a435865260e088019642885261010089019a8a8c52805490600160401b821015610a12579061090491600182018155610ecd565b9990996109fd575189546001600160a01b039091166001600160a01b0319821681178b55925190929160038210156109e957509160209b9795939160059997959360ff60a01b9060a01b16916affffffffffffffffffffff60a81b161717895551600189015561ff006002890193519261097d84610ec3565b61098684610ec3565b60ff62ff0000865492519461099a86610ec3565b6109a386610ec3565b516109ad81610ec3565b6109b681610ec3565b60101b1694169062ffffff1916179160081b16171790555160038501555160048401555191015560018055604051908152f35b634e487b7160e01b60009081526021600452fd5b50634e487b7160e01b60005260006004526000fd5b82634e487b7160e01b60005260416004526000fd5b50634e487b7160e01b60009081526041600452fd5b610a4a9060063391016112d9565b8361082c565b60058101610a6160a43582546111ac565b90556009810190336000528160205260406000205415610a9d575b50336000526020526040600020610a9660a43582546111ac565b9055610849565b610aab9060073391016112d9565b83610a7c565b608490602a6040519162461bcd60e51b8352602060048401528201527f5361666545524332303a204552433230206f7065726174696f6e20646964206e6044820152691bdd081cdd58d8d9595960b21b6064820152fd5b8192509060209181010312610111576020015180151581036101115782806107c6565b84634e487b7160e01b60005260416004526000fd5b916107b99260a06060926107b2565b60649060146040519162461bcd60e51b8352602060048401528201527322b9b4b5903232b3b2b9349033b2b1b2b939b4bd60611b6044820152fd5b60405162461bcd60e51b815260206004820152601c60248201527f4d696b74617220736966697264616e20627579756b206f6c6d616c69000000006044820152606490fd5b3461011157604036600319011261011157610be8610e74565b600435600052600060205260406000209060018060a01b0316600052602052602060ff604060002054166040519015158152f35b346101115760003660031901126101115760206040517fa49807205ce4d355092ef5a8a18f56e8913cf4a201fbe287825b095693c217758152f35b3461011157600036600319011261011157602060405160648152f35b3461011157604036600319011261011157610c8c610e74565b336001600160a01b03821603610ca85761026790600435611138565b60405162461bcd60e51b815260206004820152602f60248201527f416363657373436f6e74726f6c3a2063616e206f6e6c792072656e6f756e636560448201526e103937b632b9903337b91039b2b63360891b6064820152608490fd5b3461011157604036600319011261011157600435610d21610e74565b816000526000602052610d3b600160406000200154610ee9565b81600052600060205260406000209060018060a01b0316908160005260205260ff6040600020541615610d6a57005b8160005260006020526040600020816000526020526040600020600160ff1982541617905533917f2f8788117e7eff1d82e926ec794901d17c78024a50270940304540a733656f0d600080a4005b346101115760203660031901126101115760043560005260006020526020600160406000200154604051908152f35b3461011157600036600319011261011157602060405160058152f35b34610111576000366003190112610111576020600754604051908152f35b34610111576020366003190112610111576004359063ffffffff60e01b821680920361011157602091637965db0b60e01b8114908115610e63575b5015158152f35b6301ffc9a760e01b14905083610e5c565b602435906001600160a01b038216820361011157565b600435906001600160a01b038216820361011157565b906003821015610ead5752565b634e487b7160e01b600052602160045260246000fd5b60021115610ead57565b8054821015610628576000526006602060002091020190600090565b6000818152602090808252604092838220338352835260ff848320541615610f115750505050565b610f1a336111ca565b845191610f26836110b8565b6042835284830193606036863783511561108157603085538351906001918210156110815790607860218601536041915b81831161101357505050610fd157610537938593610fbb93610fac6048946105879951988576020b1b1b2b9b9a1b7b73a3937b61d1030b1b1b7bab73a1604d1b8b978801528251928391603789019101611095565b010360288101855201836110ea565b5162461bcd60e51b81529182916004830161110c565b60648486519062461bcd60e51b825280600483015260248201527f537472696e67733a20686578206c656e67746820696e73756666696369656e746044820152fd5b909192600f8116601081101561106d576f181899199a1a9b1b9c1cb0b131b232b360811b901a61104385886111b9565b5360041c92801561105957600019019190610f57565b634e487b7160e01b82526011600452602482fd5b634e487b7160e01b83526032600452602483fd5b634e487b7160e01b81526032600452602490fd5b60005b8381106110a85750506000910152565b8181015183820152602001611098565b6080810190811067ffffffffffffffff8211176110d457604052565b634e487b7160e01b600052604160045260246000fd5b90601f8019910116810190811067ffffffffffffffff8211176110d457604052565b6040916020825261112c8151809281602086015260208686019101611095565b601f01601f1916010190565b9060009180835282602052604083209160018060a01b03169182845260205260ff60408420541661116857505050565b80835282602052604083208284526020526040832060ff1981541690557ff6391f5c32d9c69d2a47ea670b442974b53935d1edc7fd64eb21e047a839171b339380a4565b9190820180921161061257565b908151811015610628570160200190565b604051906060820182811067ffffffffffffffff8211176110d457604052602a82526020820160403682378251156106285760309053815160019081101561062857607860218401536029905b80821161126b5750506112275790565b606460405162461bcd60e51b815260206004820152602060248201527f537472696e67733a20686578206c656e67746820696e73756666696369656e746044820152fd5b9091600f811660108110156112c4576f181899199a1a9b1b9c1cb0b131b232b360811b901a61129a84866111b9565b5360041c9180156112af576000190190611217565b60246000634e487b7160e01b81526011600452fd5b60246000634e487b7160e01b81526032600452fd5b805490600160401b8210156110d45760018201808255821015610628576000526020600020019060018060a01b03166bffffffffffffffffffffffff60a01b825416179055565b600260015414611331576002600155565b60405162461bcd60e51b815260206004820152601f60248201527f5265656e7472616e637947756172643a207265656e7472616e742063616c6c006044820152606490fd5b919290156113d8575081511561138a575090565b3b156113935790565b60405162461bcd60e51b815260206004820152601d60248201527f416464726573733a2063616c6c20746f206e6f6e2d636f6e74726163740000006044820152606490fd5b8251909150156113eb5750805190602001fd5b60405162461bcd60e51b8152908190610587906004830161110c565b929093916003851015610ead5760239460f81b8452600184015261142a81610ec3565b60f81b602183015261143b81610ec3565b60f81b60228201520190565b9291926040516020810190611463816104348789888888611407565b5190209160009383855260066020526040852054806115375750600754956000198714611523576001870160075586865260026020526040862092600385101561150f579287969492600a926040979560ff199560ff878654169116178455600184015560028301916114d582610ec3565b60ff61ff008454926114e681610ec3565b60081b1692169061ffff1916171790554260038201550190815416905581526006602052205590565b634e487b7160e01b87526021600452602487fd5b634e487b7160e01b86526011600452602486fd5b955050505050509056fea26469706673582212203005512a4b8c0bf5cf89584fa6425a7e0d1bf09441ae5737c3e89b36b58988b764736f6c634300081400332f8788117e7eff1d82e926ec794901d17c78024a50270940304540a733656f0d","opcodes":"PUSH1 0x80 CALLVALUE PUSH3 0x17D JUMPI PUSH3 0x1745 SWAP1 PUSH1 0x1F CODESIZE DUP4 SWAP1 SUB SWAP1 DUP2 ADD PUSH1 0x1F NOT AND DUP3 ADD SWAP1 PUSH1 0x1 PUSH1 0x1 PUSH1 0x40 SHL SUB DUP3 GT DUP4 DUP4 LT OR PUSH3 0x182 JUMPI DUP1 DUP4 SWAP2 PUSH1 0x40 SWAP6 DUP7 SWAP5 DUP6 MSTORE DUP4 CODECOPY DUP2 ADD SUB SLT PUSH3 0x17D JUMPI PUSH3 0x4F DUP2 PUSH3 0x198 JUMP JUMPDEST PUSH3 0x5E PUSH1 0x20 DUP1 SWAP4 ADD PUSH3 0x198 JUMP JUMPDEST SWAP2 DUP4 PUSH1 0x1 SWAP2 DUP3 DUP1 SSTORE DUP3 PUSH1 0x7 SSTORE PUSH1 0x5 PUSH1 0x0 SWAP2 DUP3 DUP1 MSTORE DUP3 DUP2 MSTORE DUP4 DUP4 KECCAK256 CALLER DUP5 MSTORE DUP2 MSTORE PUSH1 0xFF DUP5 DUP5 KECCAK256 SLOAD AND ISZERO PUSH3 0x146 JUMPI JUMPDEST PUSH32 0xA49807205CE4D355092EF5A8A18F56E8913CF4A201FBE287825B095693C21775 DUP1 DUP5 MSTORE DUP4 DUP3 MSTORE DUP5 DUP5 KECCAK256 CALLER DUP6 MSTORE DUP3 MSTORE PUSH1 0xFF DUP6 DUP6 KECCAK256 SLOAD AND ISZERO PUSH3 0x10D JUMPI JUMPDEST POP DUP3 DUP1 MSTORE MSTORE DUP2 DUP2 KECCAK256 DUP1 SLOAD PUSH1 0x1 PUSH1 0x1 PUSH1 0xA0 SHL SUB SWAP6 DUP7 AND PUSH1 0x1 PUSH1 0x1 PUSH1 0xA0 SHL SUB NOT SWAP2 DUP3 AND OR SWAP1 SWAP2 SSTORE SWAP3 DUP2 MSTORE KECCAK256 DUP1 SLOAD SWAP4 SWAP1 SWAP3 AND SWAP3 AND SWAP2 SWAP1 SWAP2 OR SWAP1 SSTORE MLOAD PUSH2 0x1577 SWAP1 DUP2 PUSH3 0x1AE DUP3 CODECOPY RETURN JUMPDEST DUP1 DUP5 MSTORE DUP4 DUP3 MSTORE DUP5 DUP5 KECCAK256 CALLER DUP6 MSTORE DUP3 MSTORE DUP5 DUP5 KECCAK256 DUP7 PUSH1 0xFF NOT DUP3 SLOAD AND OR SWAP1 SSTORE CALLER SWAP1 CALLER SWAP1 PUSH1 0x0 DUP1 MLOAD PUSH1 0x20 PUSH3 0x1725 DUP4 CODECOPY DUP2 MLOAD SWAP2 MSTORE DUP7 DUP1 LOG4 CODESIZE PUSH3 0xC8 JUMP JUMPDEST DUP3 DUP1 MSTORE DUP3 DUP2 MSTORE DUP4 DUP4 KECCAK256 CALLER DUP5 MSTORE DUP2 MSTORE DUP4 DUP4 KECCAK256 DUP6 PUSH1 0xFF NOT DUP3 SLOAD AND OR SWAP1 SSTORE CALLER CALLER DUP5 PUSH1 0x0 DUP1 MLOAD PUSH1 0x20 PUSH3 0x1725 DUP4 CODECOPY DUP2 MLOAD SWAP2 MSTORE DUP2 DUP1 LOG4 PUSH3 0x8B JUMP JUMPDEST PUSH1 0x0 DUP1 REVERT JUMPDEST PUSH4 0x4E487B71 PUSH1 0xE0 SHL PUSH1 0x0 MSTORE PUSH1 0x41 PUSH1 0x4 MSTORE PUSH1 0x24 PUSH1 0x0 REVERT JUMPDEST MLOAD SWAP1 PUSH1 0x1 PUSH1 0x1 PUSH1 0xA0 SHL SUB DUP3 AND DUP3 SUB PUSH3 0x17D JUMPI JUMP INVALID PUSH1 0x80 DUP1 PUSH1 0x40 MSTORE PUSH1 0x4 CALLDATASIZE LT ISZERO PUSH2 0x13 JUMPI PUSH1 0x0 DUP1 REVERT JUMPDEST PUSH1 0x0 CALLDATALOAD PUSH1 0xE0 SHR SWAP1 DUP2 PUSH4 0x1FFC9A7 EQ PUSH2 0xE21 JUMPI POP DUP1 PUSH4 0x18E56131 EQ PUSH2 0xE03 JUMPI DUP1 PUSH4 0x1A454EA6 EQ PUSH2 0xDE7 JUMPI DUP1 PUSH4 0x248A9CA3 EQ PUSH2 0xDB8 JUMPI DUP1 PUSH4 0x2F2FF15D EQ PUSH2 0xD05 JUMPI DUP1 PUSH4 0x36568ABE EQ PUSH2 0xC73 JUMPI DUP1 PUSH4 0x3B1DBFCC EQ PUSH2 0xC57 JUMPI DUP1 PUSH4 0x75B238FC EQ PUSH2 0xC1C JUMPI DUP1 PUSH4 0x91D14854 EQ PUSH2 0xBCF JUMPI DUP1 PUSH4 0x9A749DB0 EQ PUSH2 0x65A JUMPI DUP1 PUSH4 0xA217FDDF EQ PUSH2 0x63E JUMPI DUP1 PUSH4 0xA505F689 EQ PUSH2 0x359 JUMPI DUP1 PUSH4 0xAC4AFA38 EQ PUSH2 0x2AF JUMPI DUP1 PUSH4 0xCF0D7437 EQ PUSH2 0x269 JUMPI DUP1 PUSH4 0xD547741F EQ PUSH2 0x228 JUMPI DUP1 PUSH4 0xF50DDBC7 EQ PUSH2 0x1EE JUMPI DUP1 PUSH4 0xF6C33179 EQ PUSH2 0x116 JUMPI PUSH4 0xF9862A16 EQ PUSH2 0xE5 JUMPI PUSH1 0x0 DUP1 REVERT JUMPDEST CALLVALUE PUSH2 0x111 JUMPI PUSH1 0x20 CALLDATASIZE PUSH1 0x3 NOT ADD SLT PUSH2 0x111 JUMPI PUSH1 0x4 CALLDATALOAD PUSH1 0x0 MSTORE PUSH1 0x6 PUSH1 0x20 MSTORE PUSH1 0x20 PUSH1 0x40 PUSH1 0x0 KECCAK256 SLOAD PUSH1 0x40 MLOAD SWAP1 DUP2 MSTORE RETURN JUMPDEST PUSH1 0x0 DUP1 REVERT JUMPDEST CALLVALUE PUSH2 0x111 JUMPI PUSH1 0x40 CALLDATASIZE PUSH1 0x3 NOT ADD SLT PUSH2 0x111 JUMPI PUSH2 0x12F PUSH2 0xE8A JUMP JUMPDEST PUSH1 0x24 CALLDATALOAD SWAP1 PUSH1 0x1 DUP1 PUSH1 0xA0 SHL SUB DUP1 SWAP2 AND PUSH1 0x0 MSTORE PUSH1 0x3 PUSH1 0x20 MSTORE PUSH1 0x40 PUSH1 0x0 KECCAK256 DUP1 SLOAD DUP4 LT ISZERO PUSH2 0x111 JUMPI PUSH2 0x120 SWAP3 PUSH2 0x160 SWAP2 PUSH2 0xECD JUMP JUMPDEST POP DUP1 SLOAD SWAP1 PUSH1 0x1 DUP2 ADD SLOAD PUSH1 0x2 DUP3 ADD SLOAD PUSH1 0xFF DUP2 AND SWAP1 PUSH1 0xFF DUP1 DUP3 PUSH1 0x8 SHR AND SWAP2 PUSH1 0x10 SHR AND SWAP2 PUSH1 0x3 DUP6 ADD SLOAD SWAP4 PUSH2 0x1AD PUSH1 0x5 PUSH1 0x4 DUP9 ADD SLOAD SWAP8 ADD SLOAD SWAP8 PUSH1 0x40 MLOAD SWAP10 DUP2 AND DUP11 MSTORE PUSH1 0xFF PUSH1 0x20 DUP12 ADD SWAP2 PUSH1 0xA0 SHR AND PUSH2 0xEA0 JUMP JUMPDEST PUSH1 0x40 DUP9 ADD MSTORE PUSH2 0x1BB DUP2 PUSH2 0xEC3 JUMP JUMPDEST PUSH1 0x60 DUP8 ADD MSTORE PUSH2 0x1C9 DUP2 PUSH2 0xEC3 JUMP JUMPDEST PUSH1 0x80 DUP7 ADD MSTORE PUSH2 0x1D7 DUP2 PUSH2 0xEC3 JUMP JUMPDEST PUSH1 0xA0 DUP6 ADD MSTORE PUSH1 0xC0 DUP5 ADD MSTORE PUSH1 0xE0 DUP4 ADD MSTORE PUSH2 0x100 DUP3 ADD MSTORE RETURN JUMPDEST CALLVALUE PUSH2 0x111 JUMPI PUSH1 0x20 CALLDATASIZE PUSH1 0x3 NOT ADD SLT PUSH2 0x111 JUMPI PUSH1 0x1 PUSH1 0x1 PUSH1 0xA0 SHL SUB PUSH2 0x20F PUSH2 0xE8A JUMP JUMPDEST AND PUSH1 0x0 MSTORE PUSH1 0x4 PUSH1 0x20 MSTORE PUSH1 0x20 PUSH1 0x40 PUSH1 0x0 KECCAK256 SLOAD PUSH1 0x40 MLOAD SWAP1 DUP2 MSTORE RETURN JUMPDEST CALLVALUE PUSH2 0x111 JUMPI PUSH1 0x40 CALLDATASIZE PUSH1 0x3 NOT ADD SLT PUSH2 0x111 JUMPI PUSH2 0x267 PUSH1 0x4 CALLDATALOAD PUSH2 0x247 PUSH2 0xE74 JUMP JUMPDEST SWAP1 DUP1 PUSH1 0x0 MSTORE PUSH1 0x0 PUSH1 0x20 MSTORE PUSH2 0x262 PUSH1 0x1 PUSH1 0x40 PUSH1 0x0 KECCAK256 ADD SLOAD PUSH2 0xEE9 JUMP JUMPDEST PUSH2 0x1138 JUMP JUMPDEST STOP JUMPDEST CALLVALUE PUSH2 0x111 JUMPI PUSH1 0x20 CALLDATASIZE PUSH1 0x3 NOT ADD SLT PUSH2 0x111 JUMPI PUSH1 0x4 CALLDATALOAD PUSH1 0x2 DUP2 LT ISZERO PUSH2 0x111 JUMPI PUSH2 0x28F DUP2 PUSH2 0xEC3 JUMP JUMPDEST PUSH1 0x0 MSTORE PUSH1 0x5 PUSH1 0x20 MSTORE PUSH1 0x20 PUSH1 0x1 DUP1 PUSH1 0xA0 SHL SUB PUSH1 0x40 PUSH1 0x0 KECCAK256 SLOAD AND PUSH1 0x40 MLOAD SWAP1 DUP2 MSTORE RETURN JUMPDEST CALLVALUE PUSH2 0x111 JUMPI PUSH1 0x20 CALLDATASIZE PUSH1 0x3 NOT ADD SLT PUSH2 0x111 JUMPI PUSH1 0x4 CALLDATALOAD PUSH1 0x0 MSTORE PUSH1 0x2 PUSH1 0x20 MSTORE PUSH2 0x120 PUSH1 0x40 PUSH1 0x0 KECCAK256 PUSH1 0xFF DUP2 SLOAD AND SWAP1 PUSH1 0x1 DUP2 ADD SLOAD SWAP1 PUSH1 0x2 DUP2 ADD SLOAD PUSH1 0xFF DUP1 DUP3 AND SWAP2 PUSH1 0x8 SHR AND PUSH1 0x3 DUP4 ADD SLOAD PUSH1 0x4 DUP5 ADD SLOAD SWAP2 PUSH1 0x5 DUP6 ADD SLOAD SWAP4 PUSH1 0xB PUSH1 0xFF PUSH1 0xA DUP9 ADD SLOAD AND SWAP7 ADD SLOAD SWAP7 PUSH2 0x31A PUSH1 0x40 MLOAD DUP1 SWAP11 PUSH2 0xEA0 JUMP JUMPDEST PUSH1 0x20 DUP10 ADD MSTORE PUSH2 0x328 DUP2 PUSH2 0xEC3 JUMP JUMPDEST PUSH1 0x40 DUP9 ADD MSTORE PUSH2 0x336 DUP2 PUSH2 0xEC3 JUMP JUMPDEST PUSH1 0x60 DUP8 ADD MSTORE PUSH1 0x80 DUP7 ADD MSTORE PUSH1 0xA0 DUP6 ADD MSTORE PUSH1 0xC0 DUP5 ADD MSTORE ISZERO ISZERO PUSH1 0xE0 DUP4 ADD MSTORE PUSH2 0x100 DUP3 ADD MSTORE RETURN JUMPDEST CALLVALUE PUSH2 0x111 JUMPI PUSH1 0x40 CALLDATASIZE PUSH1 0x3 NOT ADD SLT PUSH2 0x111 JUMPI CALLER PUSH1 0x0 SWAP1 DUP2 MSTORE PUSH32 0x7D7FFB7A348E1C6A02869081A26547B49160DD3DF72D1D75A570EB9B698292EC PUSH1 0x20 SWAP1 DUP2 MSTORE PUSH1 0x40 SWAP1 SWAP2 KECCAK256 SLOAD PUSH32 0xA49807205CE4D355092EF5A8A18F56E8913CF4A201FBE287825B095693C21775 SWAP1 PUSH1 0xFF AND ISZERO PUSH2 0x49E JUMPI POP PUSH2 0x3CF PUSH2 0x1320 JUMP JUMPDEST PUSH1 0x4 CALLDATALOAD PUSH1 0x0 MSTORE PUSH1 0x2 DUP2 MSTORE PUSH1 0x40 PUSH1 0x0 KECCAK256 SWAP1 PUSH1 0xA DUP3 ADD SWAP2 DUP3 SLOAD SWAP3 PUSH1 0xFF DUP5 AND PUSH2 0x459 JUMPI PUSH1 0x1 PUSH1 0x6 SWAP5 PUSH1 0xFF NOT AND OR SWAP1 SSTORE PUSH1 0x24 CALLDATALOAD PUSH1 0xB DUP3 ADD SSTORE PUSH1 0xFF DUP2 SLOAD AND PUSH2 0x442 PUSH1 0x2 PUSH1 0x1 DUP5 ADD SLOAD SWAP4 ADD SLOAD SWAP2 PUSH2 0x434 PUSH1 0x40 MLOAD SWAP4 DUP5 SWAP3 DUP8 DUP5 ADD SWAP7 PUSH1 0xFF DUP1 DUP5 PUSH1 0x8 SHR AND SWAP4 AND SWAP2 DUP9 PUSH2 0x1407 JUMP JUMPDEST SUB PUSH1 0x1F NOT DUP2 ADD DUP4 MSTORE DUP3 PUSH2 0x10EA JUMP JUMPDEST MLOAD SWAP1 KECCAK256 PUSH1 0x0 MSTORE MSTORE PUSH1 0x0 PUSH1 0x40 DUP2 KECCAK256 SSTORE PUSH1 0x1 DUP1 SSTORE PUSH1 0x0 DUP1 RETURN JUMPDEST PUSH1 0x40 MLOAD PUSH3 0x461BCD PUSH1 0xE5 SHL DUP2 MSTORE PUSH1 0x4 DUP2 ADD DUP5 SWAP1 MSTORE PUSH1 0x1C PUSH1 0x24 DUP3 ADD MSTORE PUSH32 0x486176757A207A6174656E20736F6E75636C616E646972696C6D697300000000 PUSH1 0x44 DUP3 ADD MSTORE PUSH1 0x64 SWAP1 REVERT JUMPDEST PUSH2 0x4A7 CALLER PUSH2 0x11CA JUMP JUMPDEST PUSH1 0x40 MLOAD SWAP1 PUSH2 0x4B4 DUP3 PUSH2 0x10B8 JUMP JUMPDEST PUSH1 0x42 DUP3 MSTORE DUP4 DUP3 ADD SWAP3 PUSH1 0x60 CALLDATASIZE DUP6 CALLDATACOPY DUP3 MLOAD ISZERO PUSH2 0x628 JUMPI PUSH1 0x30 DUP5 MSTORE8 DUP3 MLOAD PUSH1 0x1 SWAP1 DUP2 LT ISZERO PUSH2 0x628 JUMPI PUSH1 0x78 PUSH1 0x21 DUP6 ADD MSTORE8 PUSH1 0x41 SWAP1 JUMPDEST DUP1 DUP3 GT PUSH2 0x5CE JUMPI POP POP PUSH2 0x58B JUMPI PUSH2 0x587 SWAP4 PUSH2 0x537 SWAP4 PUSH2 0x56F SWAP4 PUSH2 0x560 PUSH1 0x48 SWAP5 PUSH1 0x40 MLOAD SWAP8 DUP6 PUSH23 0x20B1B1B2B9B9A1B7B73A3937B61D1030B1B1B7BAB73A1 PUSH1 0x4D SHL DUP11 SWAP8 DUP9 ADD MSTORE DUP3 MLOAD SWAP3 DUP4 SWAP2 PUSH1 0x37 DUP10 ADD SWAP2 ADD PUSH2 0x1095 JUMP JUMPDEST DUP5 ADD SWAP2 PUSH17 0x1034B99036B4B9B9B4B733903937B6329 PUSH1 0x7D SHL PUSH1 0x37 DUP5 ADD MSTORE MLOAD DUP1 SWAP4 DUP7 DUP5 ADD SWAP1 PUSH2 0x1095 JUMP JUMPDEST ADD SUB PUSH1 0x28 DUP2 ADD DUP5 MSTORE ADD DUP3 PUSH2 0x10EA JUMP JUMPDEST PUSH1 0x40 MLOAD PUSH3 0x461BCD PUSH1 0xE5 SHL DUP2 MSTORE SWAP2 DUP3 SWAP2 PUSH1 0x4 DUP4 ADD PUSH2 0x110C JUMP JUMPDEST SUB SWAP1 REVERT JUMPDEST PUSH1 0x64 DUP5 PUSH1 0x40 MLOAD SWAP1 PUSH3 0x461BCD PUSH1 0xE5 SHL DUP3 MSTORE DUP1 PUSH1 0x4 DUP4 ADD MSTORE PUSH1 0x24 DUP3 ADD MSTORE PUSH32 0x537472696E67733A20686578206C656E67746820696E73756666696369656E74 PUSH1 0x44 DUP3 ADD MSTORE REVERT JUMPDEST SWAP1 SWAP2 PUSH1 0xF DUP2 AND PUSH1 0x10 DUP2 LT ISZERO PUSH2 0x628 JUMPI PUSH16 0x181899199A1A9B1B9C1CB0B131B232B3 PUSH1 0x81 SHL SWAP1 BYTE PUSH2 0x5FD DUP5 DUP8 PUSH2 0x11B9 JUMP JUMPDEST MSTORE8 PUSH1 0x4 SHR SWAP2 DUP1 ISZERO PUSH2 0x612 JUMPI PUSH1 0x0 NOT ADD SWAP1 PUSH2 0x4E3 JUMP JUMPDEST PUSH4 0x4E487B71 PUSH1 0xE0 SHL PUSH1 0x0 MSTORE PUSH1 0x11 PUSH1 0x4 MSTORE PUSH1 0x24 PUSH1 0x0 REVERT JUMPDEST PUSH4 0x4E487B71 PUSH1 0xE0 SHL PUSH1 0x0 MSTORE PUSH1 0x32 PUSH1 0x4 MSTORE PUSH1 0x24 PUSH1 0x0 REVERT JUMPDEST CALLVALUE PUSH2 0x111 JUMPI PUSH1 0x0 CALLDATASIZE PUSH1 0x3 NOT ADD SLT PUSH2 0x111 JUMPI PUSH1 0x20 PUSH1 0x40 MLOAD PUSH1 0x0 DUP2 MSTORE RETURN JUMPDEST CALLVALUE PUSH2 0x111 JUMPI PUSH1 0xC0 CALLDATASIZE PUSH1 0x3 NOT ADD SLT PUSH2 0x111 JUMPI PUSH1 0x3 PUSH1 0x4 CALLDATALOAD LT ISZERO PUSH2 0x111 JUMPI PUSH1 0x2 PUSH1 0x44 CALLDATALOAD LT ISZERO PUSH2 0x111 JUMPI PUSH1 0x2 PUSH1 0x64 CALLDATALOAD LT ISZERO PUSH2 0x111 JUMPI PUSH1 0x2 PUSH1 0x84 CALLDATALOAD LT ISZERO PUSH2 0x111 JUMPI PUSH2 0x69F PUSH2 0x1320 JUMP JUMPDEST PUSH1 0xA4 CALLDATALOAD ISZERO PUSH2 0xB8A JUMPI PUSH1 0x24 DUP1 CALLDATALOAD ISZERO PUSH2 0xB4F JUMPI PUSH2 0x6BB PUSH1 0x84 CALLDATALOAD PUSH2 0xEC3 JUMP JUMPDEST PUSH1 0x84 CALLDATALOAD PUSH1 0x0 MSTORE PUSH1 0x5 PUSH1 0x20 MSTORE PUSH1 0x1 DUP1 PUSH1 0xA0 SHL SUB PUSH1 0x40 PUSH1 0x0 KECCAK256 SLOAD AND PUSH1 0x40 MLOAD SWAP1 PUSH4 0x23B872DD PUSH1 0xE0 SHL PUSH1 0x20 DUP4 ADD MSTORE CALLER DUP4 DUP4 ADD MSTORE ADDRESS PUSH1 0x44 DUP4 ADD MSTORE PUSH1 0xA4 CALLDATALOAD PUSH1 0x64 DUP4 ADD MSTORE PUSH1 0x64 DUP3 MSTORE DUP2 PUSH1 0xA0 DUP2 ADD LT PUSH8 0xFFFFFFFFFFFFFFFF PUSH1 0xA0 DUP5 ADD GT OR PUSH2 0xA12 JUMPI PUSH1 0xA0 DUP3 ADD PUSH1 0xE0 DUP4 ADD LT PUSH8 0xFFFFFFFFFFFFFFFF PUSH1 0xE0 DUP5 ADD GT OR PUSH2 0xA12 JUMPI PUSH1 0xE0 DUP3 ADD PUSH1 0x40 MSTORE PUSH1 0x20 PUSH1 0xA0 DUP4 ADD MSTORE PUSH32 0x5361666545524332303A206C6F772D6C6576656C2063616C6C206661696C6564 PUSH1 0xC0 DUP4 ADD MSTORE PUSH1 0x0 DUP1 DUP4 MLOAD PUSH1 0x20 DUP6 ADD DUP3 DUP6 GAS CALL RETURNDATASIZE ISZERO PUSH2 0xB40 JUMPI RETURNDATASIZE SWAP1 PUSH8 0xFFFFFFFFFFFFFFFF DUP3 GT PUSH2 0xB2B JUMPI PUSH1 0xA0 PUSH2 0x7B9 SWAP5 PUSH1 0x40 MLOAD SWAP4 PUSH2 0x7A7 PUSH1 0x20 PUSH1 0x1F NOT PUSH1 0x1F DUP5 ADD AND ADD DUP7 PUSH2 0x10EA JUMP JUMPDEST DUP5 MSTORE RETURNDATASIZE PUSH1 0x0 PUSH1 0x20 DUP7 ADD RETURNDATACOPY JUMPDEST ADD SWAP3 PUSH2 0x1376 JUMP JUMPDEST DUP1 MLOAD SWAP1 DUP2 ISZERO SWAP2 DUP3 ISZERO PUSH2 0xB08 JUMPI JUMPDEST POP POP ISZERO PUSH2 0xAB1 JUMPI PUSH2 0x7E0 PUSH1 0x84 CALLDATALOAD PUSH1 0x64 CALLDATALOAD DUP4 CALLDATALOAD PUSH1 0x4 CALLDATALOAD PUSH2 0x1447 JUMP JUMPDEST DUP1 PUSH1 0x0 MSTORE PUSH1 0x2 PUSH1 0x20 MSTORE PUSH1 0x40 PUSH1 0x0 KECCAK256 PUSH2 0x7F9 PUSH1 0x44 CALLDATALOAD PUSH2 0xEC3 JUMP JUMPDEST PUSH1 0x44 CALLDATALOAD PUSH2 0xA50 JUMPI PUSH1 0x4 DUP2 ADD PUSH2 0x811 PUSH1 0xA4 CALLDATALOAD DUP3 SLOAD PUSH2 0x11AC JUMP JUMPDEST SWAP1 SSTORE PUSH1 0x8 DUP2 ADD SWAP1 CALLER PUSH1 0x0 MSTORE DUP2 PUSH1 0x20 MSTORE PUSH1 0x40 PUSH1 0x0 KECCAK256 SLOAD ISZERO PUSH2 0xA3C JUMPI JUMPDEST POP CALLER PUSH1 0x0 MSTORE PUSH1 0x20 MSTORE PUSH1 0x40 PUSH1 0x0 KECCAK256 PUSH2 0x846 PUSH1 0xA4 CALLDATALOAD DUP3 SLOAD PUSH2 0x11AC JUMP JUMPDEST SWAP1 SSTORE JUMPDEST CALLER PUSH1 0x0 MSTORE PUSH1 0x3 PUSH1 0x20 MSTORE PUSH1 0x40 PUSH1 0x0 KECCAK256 SWAP2 PUSH1 0x40 MLOAD SWAP1 PUSH2 0x120 DUP3 ADD DUP3 DUP2 LT PUSH8 0xFFFFFFFFFFFFFFFF DUP3 GT OR PUSH2 0xA27 JUMPI PUSH1 0x40 MSTORE CALLER DUP3 MSTORE PUSH1 0x20 DUP3 ADD PUSH1 0x4 CALLDATALOAD DUP2 MSTORE PUSH1 0x40 DUP4 ADD DUP3 CALLDATALOAD DUP2 MSTORE PUSH1 0x60 DUP5 ADD SWAP1 PUSH2 0x89B PUSH1 0x44 CALLDATALOAD PUSH2 0xEC3 JUMP JUMPDEST PUSH1 0x44 CALLDATALOAD DUP3 MSTORE PUSH1 0x80 DUP6 ADD SWAP1 PUSH2 0x8B0 PUSH1 0x64 CALLDATALOAD PUSH2 0xEC3 JUMP JUMPDEST PUSH1 0x64 CALLDATALOAD DUP3 MSTORE PUSH1 0xA0 DUP7 ADD SWAP1 PUSH2 0x8C5 PUSH1 0x84 CALLDATALOAD PUSH2 0xEC3 JUMP JUMPDEST PUSH1 0x84 CALLDATALOAD DUP3 MSTORE PUSH1 0xC0 DUP8 ADD SWAP5 PUSH1 0xA4 CALLDATALOAD DUP7 MSTORE PUSH1 0xE0 DUP9 ADD SWAP7 TIMESTAMP DUP9 MSTORE PUSH2 0x100 DUP10 ADD SWAP11 DUP11 DUP13 MSTORE DUP1 SLOAD SWAP1 PUSH1 0x1 PUSH1 0x40 SHL DUP3 LT ISZERO PUSH2 0xA12 JUMPI SWAP1 PUSH2 0x904 SWAP2 PUSH1 0x1 DUP3 ADD DUP2 SSTORE PUSH2 0xECD JUMP JUMPDEST SWAP10 SWAP1 SWAP10 PUSH2 0x9FD JUMPI MLOAD DUP10 SLOAD PUSH1 0x1 PUSH1 0x1 PUSH1 0xA0 SHL SUB SWAP1 SWAP2 AND PUSH1 0x1 PUSH1 0x1 PUSH1 0xA0 SHL SUB NOT DUP3 AND DUP2 OR DUP12 SSTORE SWAP3 MLOAD SWAP1 SWAP3 SWAP2 PUSH1 0x3 DUP3 LT ISZERO PUSH2 0x9E9 JUMPI POP SWAP2 PUSH1 0x20 SWAP12 SWAP8 SWAP6 SWAP4 SWAP2 PUSH1 0x5 SWAP10 SWAP8 SWAP6 SWAP4 PUSH1 0xFF PUSH1 0xA0 SHL SWAP1 PUSH1 0xA0 SHL AND SWAP2 PUSH11 0xFFFFFFFFFFFFFFFFFFFFFF PUSH1 0xA8 SHL AND OR OR DUP10 SSTORE MLOAD PUSH1 0x1 DUP10 ADD SSTORE PUSH2 0xFF00 PUSH1 0x2 DUP10 ADD SWAP4 MLOAD SWAP3 PUSH2 0x97D DUP5 PUSH2 0xEC3 JUMP JUMPDEST PUSH2 0x986 DUP5 PUSH2 0xEC3 JUMP JUMPDEST PUSH1 0xFF PUSH3 0xFF0000 DUP7 SLOAD SWAP3 MLOAD SWAP5 PUSH2 0x99A DUP7 PUSH2 0xEC3 JUMP JUMPDEST PUSH2 0x9A3 DUP7 PUSH2 0xEC3 JUMP JUMPDEST MLOAD PUSH2 0x9AD DUP2 PUSH2 0xEC3 JUMP JUMPDEST PUSH2 0x9B6 DUP2 PUSH2 0xEC3 JUMP JUMPDEST PUSH1 0x10 SHL AND SWAP5 AND SWAP1 PUSH3 0xFFFFFF NOT AND OR SWAP2 PUSH1 0x8 SHL AND OR OR SWAP1 SSTORE MLOAD PUSH1 0x3 DUP6 ADD SSTORE MLOAD PUSH1 0x4 DUP5 ADD SSTORE MLOAD SWAP2 ADD SSTORE PUSH1 0x1 DUP1 SSTORE PUSH1 0x40 MLOAD SWAP1 DUP2 MSTORE RETURN JUMPDEST PUSH4 0x4E487B71 PUSH1 0xE0 SHL PUSH1 0x0 SWAP1 DUP2 MSTORE PUSH1 0x21 PUSH1 0x4 MSTORE REVERT JUMPDEST POP PUSH4 0x4E487B71 PUSH1 0xE0 SHL PUSH1 0x0 MSTORE PUSH1 0x0 PUSH1 0x4 MSTORE PUSH1 0x0 REVERT JUMPDEST DUP3 PUSH4 0x4E487B71 PUSH1 0xE0 SHL PUSH1 0x0 MSTORE PUSH1 0x41 PUSH1 0x4 MSTORE PUSH1 0x0 REVERT JUMPDEST POP PUSH4 0x4E487B71 PUSH1 0xE0 SHL PUSH1 0x0 SWAP1 DUP2 MSTORE PUSH1 0x41 PUSH1 0x4 MSTORE REVERT JUMPDEST PUSH2 0xA4A SWAP1 PUSH1 0x6 CALLER SWAP2 ADD PUSH2 0x12D9 JUMP JUMPDEST DUP4 PUSH2 0x82C JUMP JUMPDEST PUSH1 0x5 DUP2 ADD PUSH2 0xA61 PUSH1 0xA4 CALLDATALOAD DUP3 SLOAD PUSH2 0x11AC JUMP JUMPDEST SWAP1 SSTORE PUSH1 0x9 DUP2 ADD SWAP1 CALLER PUSH1 0x0 MSTORE DUP2 PUSH1 0x20 MSTORE PUSH1 0x40 PUSH1 0x0 KECCAK256 SLOAD ISZERO PUSH2 0xA9D JUMPI JUMPDEST POP CALLER PUSH1 0x0 MSTORE PUSH1 0x20 MSTORE PUSH1 0x40 PUSH1 0x0 KECCAK256 PUSH2 0xA96 PUSH1 0xA4 CALLDATALOAD DUP3 SLOAD PUSH2 0x11AC JUMP JUMPDEST SWAP1 SSTORE PUSH2 0x849 JUMP JUMPDEST PUSH2 0xAAB SWAP1 PUSH1 0x7 CALLER SWAP2 ADD PUSH2 0x12D9 JUMP JUMPDEST DUP4 PUSH2 0xA7C JUMP JUMPDEST PUSH1 0x84 SWAP1 PUSH1 0x2A PUSH1 0x40 MLOAD SWAP2 PUSH3 0x461BCD PUSH1 0xE5 SHL DUP4 MSTORE PUSH1 0x20 PUSH1 0x4 DUP5 ADD MSTORE DUP3 ADD MSTORE PUSH32 0x5361666545524332303A204552433230206F7065726174696F6E20646964206E PUSH1 0x44 DUP3 ADD MSTORE PUSH10 0x1BDD081CDD58D8D95959 PUSH1 0xB2 SHL PUSH1 0x64 DUP3 ADD MSTORE REVERT JUMPDEST DUP2 SWAP3 POP SWAP1 PUSH1 0x20 SWAP2 DUP2 ADD SUB SLT PUSH2 0x111 JUMPI PUSH1 0x20 ADD MLOAD DUP1 ISZERO ISZERO DUP2 SUB PUSH2 0x111 JUMPI DUP3 DUP1 PUSH2 0x7C6 JUMP JUMPDEST DUP5 PUSH4 0x4E487B71 PUSH1 0xE0 SHL PUSH1 0x0 MSTORE PUSH1 0x41 PUSH1 0x4 MSTORE PUSH1 0x0 REVERT JUMPDEST SWAP2 PUSH2 0x7B9 SWAP3 PUSH1 0xA0 PUSH1 0x60 SWAP3 PUSH2 0x7B2 JUMP JUMPDEST PUSH1 0x64 SWAP1 PUSH1 0x14 PUSH1 0x40 MLOAD SWAP2 PUSH3 0x461BCD PUSH1 0xE5 SHL DUP4 MSTORE PUSH1 0x20 PUSH1 0x4 DUP5 ADD MSTORE DUP3 ADD MSTORE PUSH20 0x22B9B4B5903232B3B2B9349033B2B1B2B939B4BD PUSH1 0x61 SHL PUSH1 0x44 DUP3 ADD MSTORE REVERT JUMPDEST PUSH1 0x40 MLOAD PUSH3 0x461BCD PUSH1 0xE5 SHL DUP2 MSTORE PUSH1 0x20 PUSH1 0x4 DUP3 ADD MSTORE PUSH1 0x1C PUSH1 0x24 DUP3 ADD MSTORE PUSH32 0x4D696B74617220736966697264616E20627579756B206F6C6D616C6900000000 PUSH1 0x44 DUP3 ADD MSTORE PUSH1 0x64 SWAP1 REVERT JUMPDEST CALLVALUE PUSH2 0x111 JUMPI PUSH1 0x40 CALLDATASIZE PUSH1 0x3 NOT ADD SLT PUSH2 0x111 JUMPI PUSH2 0xBE8 PUSH2 0xE74 JUMP JUMPDEST PUSH1 0x4 CALLDATALOAD PUSH1 0x0 MSTORE PUSH1 0x0 PUSH1 0x20 MSTORE PUSH1 0x40 PUSH1 0x0 KECCAK256 SWAP1 PUSH1 0x1 DUP1 PUSH1 0xA0 SHL SUB AND PUSH1 0x0 MSTORE PUSH1 0x20 MSTORE PUSH1 0x20 PUSH1 0xFF PUSH1 0x40 PUSH1 0x0 KECCAK256 SLOAD AND PUSH1 0x40 MLOAD SWAP1 ISZERO ISZERO DUP2 MSTORE RETURN JUMPDEST CALLVALUE PUSH2 0x111 JUMPI PUSH1 0x0 CALLDATASIZE PUSH1 0x3 NOT ADD SLT PUSH2 0x111 JUMPI PUSH1 0x20 PUSH1 0x40 MLOAD PUSH32 0xA49807205CE4D355092EF5A8A18F56E8913CF4A201FBE287825B095693C21775 DUP2 MSTORE RETURN JUMPDEST CALLVALUE PUSH2 0x111 JUMPI PUSH1 0x0 CALLDATASIZE PUSH1 0x3 NOT ADD SLT PUSH2 0x111 JUMPI PUSH1 0x20 PUSH1 0x40 MLOAD PUSH1 0x64 DUP2 MSTORE RETURN JUMPDEST CALLVALUE PUSH2 0x111 JUMPI PUSH1 0x40 CALLDATASIZE PUSH1 0x3 NOT ADD SLT PUSH2 0x111 JUMPI PUSH2 0xC8C PUSH2 0xE74 JUMP JUMPDEST CALLER PUSH1 0x1 PUSH1 0x1 PUSH1 0xA0 SHL SUB DUP3 AND SUB PUSH2 0xCA8 JUMPI PUSH2 0x267 SWAP1 PUSH1 0x4 CALLDATALOAD PUSH2 0x1138 JUMP JUMPDEST PUSH1 0x40 MLOAD PUSH3 0x461BCD PUSH1 0xE5 SHL DUP2 MSTORE PUSH1 0x20 PUSH1 0x4 DUP3 ADD MSTORE PUSH1 0x2F PUSH1 0x24 DUP3 ADD MSTORE PUSH32 0x416363657373436F6E74726F6C3A2063616E206F6E6C792072656E6F756E6365 PUSH1 0x44 DUP3 ADD MSTORE PUSH15 0x103937B632B9903337B91039B2B633 PUSH1 0x89 SHL PUSH1 0x64 DUP3 ADD MSTORE PUSH1 0x84 SWAP1 REVERT JUMPDEST CALLVALUE PUSH2 0x111 JUMPI PUSH1 0x40 CALLDATASIZE PUSH1 0x3 NOT ADD SLT PUSH2 0x111 JUMPI PUSH1 0x4 CALLDATALOAD PUSH2 0xD21 PUSH2 0xE74 JUMP JUMPDEST DUP2 PUSH1 0x0 MSTORE PUSH1 0x0 PUSH1 0x20 MSTORE PUSH2 0xD3B PUSH1 0x1 PUSH1 0x40 PUSH1 0x0 KECCAK256 ADD SLOAD PUSH2 0xEE9 JUMP JUMPDEST DUP2 PUSH1 0x0 MSTORE PUSH1 0x0 PUSH1 0x20 MSTORE PUSH1 0x40 PUSH1 0x0 KECCAK256 SWAP1 PUSH1 0x1 DUP1 PUSH1 0xA0 SHL SUB AND SWAP1 DUP2 PUSH1 0x0 MSTORE PUSH1 0x20 MSTORE PUSH1 0xFF PUSH1 0x40 PUSH1 0x0 KECCAK256 SLOAD AND ISZERO PUSH2 0xD6A JUMPI STOP JUMPDEST DUP2 PUSH1 0x0 MSTORE PUSH1 0x0 PUSH1 0x20 MSTORE PUSH1 0x40 PUSH1 0x0 KECCAK256 DUP2 PUSH1 0x0 MSTORE PUSH1 0x20 MSTORE PUSH1 0x40 PUSH1 0x0 KECCAK256 PUSH1 0x1 PUSH1 0xFF NOT DUP3 SLOAD AND OR SWAP1 SSTORE CALLER SWAP2 PUSH32 0x2F8788117E7EFF1D82E926EC794901D17C78024A50270940304540A733656F0D PUSH1 0x0 DUP1 LOG4 STOP JUMPDEST CALLVALUE PUSH2 0x111 JUMPI PUSH1 0x20 CALLDATASIZE PUSH1 0x3 NOT ADD SLT PUSH2 0x111 JUMPI PUSH1 0x4 CALLDATALOAD PUSH1 0x0 MSTORE PUSH1 0x0 PUSH1 0x20 MSTORE PUSH1 0x20 PUSH1 0x1 PUSH1 0x40 PUSH1 0x0 KECCAK256 ADD SLOAD PUSH1 0x40 MLOAD SWAP1 DUP2 MSTORE RETURN JUMPDEST CALLVALUE PUSH2 0x111 JUMPI PUSH1 0x0 CALLDATASIZE PUSH1 0x3 NOT ADD SLT PUSH2 0x111 JUMPI PUSH1 0x20 PUSH1 0x40 MLOAD PUSH1 0x5 DUP2 MSTORE RETURN JUMPDEST CALLVALUE PUSH2 0x111 JUMPI PUSH1 0x0 CALLDATASIZE PUSH1 0x3 NOT ADD SLT PUSH2 0x111 JUMPI PUSH1 0x20 PUSH1 0x7 SLOAD PUSH1 0x40 MLOAD SWAP1 DUP2 MSTORE RETURN JUMPDEST CALLVALUE PUSH2 0x111 JUMPI PUSH1 0x20 CALLDATASIZE PUSH1 0x3 NOT ADD SLT PUSH2 0x111 JUMPI PUSH1 0x4 CALLDATALOAD SWAP1 PUSH4 0xFFFFFFFF PUSH1 0xE0 SHL DUP3 AND DUP1 SWAP3 SUB PUSH2 0x111 JUMPI PUSH1 0x20 SWAP2 PUSH4 0x7965DB0B PUSH1 0xE0 SHL DUP2 EQ SWAP1 DUP2 ISZERO PUSH2 0xE63 JUMPI JUMPDEST POP ISZERO ISZERO DUP2 MSTORE RETURN JUMPDEST PUSH4 0x1FFC9A7 PUSH1 0xE0 SHL EQ SWAP1 POP DUP4 PUSH2 0xE5C JUMP JUMPDEST PUSH1 0x24 CALLDATALOAD SWAP1 PUSH1 0x1 PUSH1 0x1 PUSH1 0xA0 SHL SUB DUP3 AND DUP3 SUB PUSH2 0x111 JUMPI JUMP JUMPDEST PUSH1 0x4 CALLDATALOAD SWAP1 PUSH1 0x1 PUSH1 0x1 PUSH1 0xA0 SHL SUB DUP3 AND DUP3 SUB PUSH2 0x111 JUMPI JUMP JUMPDEST SWAP1 PUSH1 0x3 DUP3 LT ISZERO PUSH2 0xEAD JUMPI MSTORE JUMP JUMPDEST PUSH4 0x4E487B71 PUSH1 0xE0 SHL PUSH1 0x0 MSTORE PUSH1 0x21 PUSH1 0x4 MSTORE PUSH1 0x24 PUSH1 0x0 REVERT JUMPDEST PUSH1 0x2 GT ISZERO PUSH2 0xEAD JUMPI JUMP JUMPDEST DUP1 SLOAD DUP3 LT ISZERO PUSH2 0x628 JUMPI PUSH1 0x0 MSTORE PUSH1 0x6 PUSH1 0x20 PUSH1 0x0 KECCAK256 SWAP2 MUL ADD SWAP1 PUSH1 0x0 SWAP1 JUMP JUMPDEST PUSH1 0x0 DUP2 DUP2 MSTORE PUSH1 0x20 SWAP1 DUP1 DUP3 MSTORE PUSH1 0x40 SWAP3 DUP4 DUP3 KECCAK256 CALLER DUP4 MSTORE DUP4 MSTORE PUSH1 0xFF DUP5 DUP4 KECCAK256 SLOAD AND ISZERO PUSH2 0xF11 JUMPI POP POP POP POP JUMP JUMPDEST PUSH2 0xF1A CALLER PUSH2 0x11CA JUMP JUMPDEST DUP5 MLOAD SWAP2 PUSH2 0xF26 DUP4 PUSH2 0x10B8 JUMP JUMPDEST PUSH1 0x42 DUP4 MSTORE DUP5 DUP4 ADD SWAP4 PUSH1 0x60 CALLDATASIZE DUP7 CALLDATACOPY DUP4 MLOAD ISZERO PUSH2 0x1081 JUMPI PUSH1 0x30 DUP6 MSTORE8 DUP4 MLOAD SWAP1 PUSH1 0x1 SWAP2 DUP3 LT ISZERO PUSH2 0x1081 JUMPI SWAP1 PUSH1 0x78 PUSH1 0x21 DUP7 ADD MSTORE8 PUSH1 0x41 SWAP2 JUMPDEST DUP2 DUP4 GT PUSH2 0x1013 JUMPI POP POP POP PUSH2 0xFD1 JUMPI PUSH2 0x537 SWAP4 DUP6 SWAP4 PUSH2 0xFBB SWAP4 PUSH2 0xFAC PUSH1 0x48 SWAP5 PUSH2 0x587 SWAP10 MLOAD SWAP9 DUP6 PUSH23 0x20B1B1B2B9B9A1B7B73A3937B61D1030B1B1B7BAB73A1 PUSH1 0x4D SHL DUP12 SWAP8 DUP9 ADD MSTORE DUP3 MLOAD SWAP3 DUP4 SWAP2 PUSH1 0x37 DUP10 ADD SWAP2 ADD PUSH2 0x1095 JUMP JUMPDEST ADD SUB PUSH1 0x28 DUP2 ADD DUP6 MSTORE ADD DUP4 PUSH2 0x10EA JUMP JUMPDEST MLOAD PUSH3 0x461BCD PUSH1 0xE5 SHL DUP2 MSTORE SWAP2 DUP3 SWAP2 PUSH1 0x4 DUP4 ADD PUSH2 0x110C JUMP JUMPDEST PUSH1 0x64 DUP5 DUP7 MLOAD SWAP1 PUSH3 0x461BCD PUSH1 0xE5 SHL DUP3 MSTORE DUP1 PUSH1 0x4 DUP4 ADD MSTORE PUSH1 0x24 DUP3 ADD MSTORE PUSH32 0x537472696E67733A20686578206C656E67746820696E73756666696369656E74 PUSH1 0x44 DUP3 ADD MSTORE REVERT JUMPDEST SWAP1 SWAP2 SWAP3 PUSH1 0xF DUP2 AND PUSH1 0x10 DUP2 LT ISZERO PUSH2 0x106D JUMPI PUSH16 0x181899199A1A9B1B9C1CB0B131B232B3 PUSH1 0x81 SHL SWAP1 BYTE PUSH2 0x1043 DUP6 DUP9 PUSH2 0x11B9 JUMP JUMPDEST MSTORE8 PUSH1 0x4 SHR SWAP3 DUP1 ISZERO PUSH2 0x1059 JUMPI PUSH1 0x0 NOT ADD SWAP2 SWAP1 PUSH2 0xF57 JUMP JUMPDEST PUSH4 0x4E487B71 PUSH1 0xE0 SHL DUP3 MSTORE PUSH1 0x11 PUSH1 0x4 MSTORE PUSH1 0x24 DUP3 REVERT JUMPDEST PUSH4 0x4E487B71 PUSH1 0xE0 SHL DUP4 MSTORE PUSH1 0x32 PUSH1 0x4 MSTORE PUSH1 0x24 DUP4 REVERT JUMPDEST PUSH4 0x4E487B71 PUSH1 0xE0 SHL DUP2 MSTORE PUSH1 0x32 PUSH1 0x4 MSTORE PUSH1 0x24 SWAP1 REVERT JUMPDEST PUSH1 0x0 JUMPDEST DUP4 DUP2 LT PUSH2 0x10A8 JUMPI POP POP PUSH1 0x0 SWAP2 ADD MSTORE JUMP JUMPDEST DUP2 DUP2 ADD MLOAD DUP4 DUP3 ADD MSTORE PUSH1 0x20 ADD PUSH2 0x1098 JUMP JUMPDEST PUSH1 0x80 DUP2 ADD SWAP1 DUP2 LT PUSH8 0xFFFFFFFFFFFFFFFF DUP3 GT OR PUSH2 0x10D4 JUMPI PUSH1 0x40 MSTORE JUMP JUMPDEST PUSH4 0x4E487B71 PUSH1 0xE0 SHL PUSH1 0x0 MSTORE PUSH1 0x41 PUSH1 0x4 MSTORE PUSH1 0x24 PUSH1 0x0 REVERT JUMPDEST SWAP1 PUSH1 0x1F DUP1 NOT SWAP2 ADD AND DUP2 ADD SWAP1 DUP2 LT PUSH8 0xFFFFFFFFFFFFFFFF DUP3 GT OR PUSH2 0x10D4 JUMPI PUSH1 0x40 MSTORE JUMP JUMPDEST PUSH1 0x40 SWAP2 PUSH1 0x20 DUP3 MSTORE PUSH2 0x112C DUP2 MLOAD DUP1 SWAP3 DUP2 PUSH1 0x20 DUP7 ADD MSTORE PUSH1 0x20 DUP7 DUP7 ADD SWAP2 ADD PUSH2 0x1095 JUMP JUMPDEST PUSH1 0x1F ADD PUSH1 0x1F NOT AND ADD ADD SWAP1 JUMP JUMPDEST SWAP1 PUSH1 0x0 SWAP2 DUP1 DUP4 MSTORE DUP3 PUSH1 0x20 MSTORE PUSH1 0x40 DUP4 KECCAK256 SWAP2 PUSH1 0x1 DUP1 PUSH1 0xA0 SHL SUB AND SWAP2 DUP3 DUP5 MSTORE PUSH1 0x20 MSTORE PUSH1 0xFF PUSH1 0x40 DUP5 KECCAK256 SLOAD AND PUSH2 0x1168 JUMPI POP POP POP JUMP JUMPDEST DUP1 DUP4 MSTORE DUP3 PUSH1 0x20 MSTORE PUSH1 0x40 DUP4 KECCAK256 DUP3 DUP5 MSTORE PUSH1 0x20 MSTORE PUSH1 0x40 DUP4 KECCAK256 PUSH1 0xFF NOT DUP2 SLOAD AND SWAP1 SSTORE PUSH32 0xF6391F5C32D9C69D2A47EA670B442974B53935D1EDC7FD64EB21E047A839171B CALLER SWAP4 DUP1 LOG4 JUMP JUMPDEST SWAP2 SWAP1 DUP3 ADD DUP1 SWAP3 GT PUSH2 0x612 JUMPI JUMP JUMPDEST SWAP1 DUP2 MLOAD DUP2 LT ISZERO PUSH2 0x628 JUMPI ADD PUSH1 0x20 ADD SWAP1 JUMP JUMPDEST PUSH1 0x40 MLOAD SWAP1 PUSH1 0x60 DUP3 ADD DUP3 DUP2 LT PUSH8 0xFFFFFFFFFFFFFFFF DUP3 GT OR PUSH2 0x10D4 JUMPI PUSH1 0x40 MSTORE PUSH1 0x2A DUP3 MSTORE PUSH1 0x20 DUP3 ADD PUSH1 0x40 CALLDATASIZE DUP3 CALLDATACOPY DUP3 MLOAD ISZERO PUSH2 0x628 JUMPI PUSH1 0x30 SWAP1 MSTORE8 DUP2 MLOAD PUSH1 0x1 SWAP1 DUP2 LT ISZERO PUSH2 0x628 JUMPI PUSH1 0x78 PUSH1 0x21 DUP5 ADD MSTORE8 PUSH1 0x29 SWAP1 JUMPDEST DUP1 DUP3 GT PUSH2 0x126B JUMPI POP POP PUSH2 0x1227 JUMPI SWAP1 JUMP JUMPDEST PUSH1 0x64 PUSH1 0x40 MLOAD PUSH3 0x461BCD PUSH1 0xE5 SHL DUP2 MSTORE PUSH1 0x20 PUSH1 0x4 DUP3 ADD MSTORE PUSH1 0x20 PUSH1 0x24 DUP3 ADD MSTORE PUSH32 0x537472696E67733A20686578206C656E67746820696E73756666696369656E74 PUSH1 0x44 DUP3 ADD MSTORE REVERT JUMPDEST SWAP1 SWAP2 PUSH1 0xF DUP2 AND PUSH1 0x10 DUP2 LT ISZERO PUSH2 0x12C4 JUMPI PUSH16 0x181899199A1A9B1B9C1CB0B131B232B3 PUSH1 0x81 SHL SWAP1 BYTE PUSH2 0x129A DUP5 DUP7 PUSH2 0x11B9 JUMP JUMPDEST MSTORE8 PUSH1 0x4 SHR SWAP2 DUP1 ISZERO PUSH2 0x12AF JUMPI PUSH1 0x0 NOT ADD SWAP1 PUSH2 0x1217 JUMP JUMPDEST PUSH1 0x24 PUSH1 0x0 PUSH4 0x4E487B71 PUSH1 0xE0 SHL DUP2 MSTORE PUSH1 0x11 PUSH1 0x4 MSTORE REVERT JUMPDEST PUSH1 0x24 PUSH1 0x0 PUSH4 0x4E487B71 PUSH1 0xE0 SHL DUP2 MSTORE PUSH1 0x32 PUSH1 0x4 MSTORE REVERT JUMPDEST DUP1 SLOAD SWAP1 PUSH1 0x1 PUSH1 0x40 SHL DUP3 LT ISZERO PUSH2 0x10D4 JUMPI PUSH1 0x1 DUP3 ADD DUP1 DUP3 SSTORE DUP3 LT ISZERO PUSH2 0x628 JUMPI PUSH1 0x0 MSTORE PUSH1 0x20 PUSH1 0x0 KECCAK256 ADD SWAP1 PUSH1 0x1 DUP1 PUSH1 0xA0 SHL SUB AND PUSH12 0xFFFFFFFFFFFFFFFFFFFFFFFF PUSH1 0xA0 SHL DUP3 SLOAD AND OR SWAP1 SSTORE JUMP JUMPDEST PUSH1 0x2 PUSH1 0x1 SLOAD EQ PUSH2 0x1331 JUMPI PUSH1 0x2 PUSH1 0x1 SSTORE JUMP JUMPDEST PUSH1 0x40 MLOAD PUSH3 0x461BCD PUSH1 0xE5 SHL DUP2 MSTORE PUSH1 0x20 PUSH1 0x4 DUP3 ADD MSTORE PUSH1 0x1F PUSH1 0x24 DUP3 ADD MSTORE PUSH32 0x5265656E7472616E637947756172643A207265656E7472616E742063616C6C00 PUSH1 0x44 DUP3 ADD MSTORE PUSH1 0x64 SWAP1 REVERT JUMPDEST SWAP2 SWAP3 SWAP1 ISZERO PUSH2 0x13D8 JUMPI POP DUP2 MLOAD ISZERO PUSH2 0x138A JUMPI POP SWAP1 JUMP JUMPDEST EXTCODESIZE ISZERO PUSH2 0x1393 JUMPI SWAP1 JUMP JUMPDEST PUSH1 0x40 MLOAD PUSH3 0x461BCD PUSH1 0xE5 SHL DUP2 MSTORE PUSH1 0x20 PUSH1 0x4 DUP3 ADD MSTORE PUSH1 0x1D PUSH1 0x24 DUP3 ADD MSTORE PUSH32 0x416464726573733A2063616C6C20746F206E6F6E2D636F6E7472616374000000 PUSH1 0x44 DUP3 ADD MSTORE PUSH1 0x64 SWAP1 REVERT JUMPDEST DUP3 MLOAD SWAP1 SWAP2 POP ISZERO PUSH2 0x13EB JUMPI POP DUP1 MLOAD SWAP1 PUSH1 0x20 ADD REVERT JUMPDEST PUSH1 0x40 MLOAD PUSH3 0x461BCD PUSH1 0xE5 SHL DUP2 MSTORE SWAP1 DUP2 SWAP1 PUSH2 0x587 SWAP1 PUSH1 0x4 DUP4 ADD PUSH2 0x110C JUMP JUMPDEST SWAP3 SWAP1 SWAP4 SWAP2 PUSH1 0x3 DUP6 LT ISZERO PUSH2 0xEAD JUMPI PUSH1 0x23 SWAP5 PUSH1 0xF8 SHL DUP5 MSTORE PUSH1 0x1 DUP5 ADD MSTORE PUSH2 0x142A DUP2 PUSH2 0xEC3 JUMP JUMPDEST PUSH1 0xF8 SHL PUSH1 0x21 DUP4 ADD MSTORE PUSH2 0x143B DUP2 PUSH2 0xEC3 JUMP JUMPDEST PUSH1 0xF8 SHL PUSH1 0x22 DUP3 ADD MSTORE ADD SWAP1 JUMP JUMPDEST SWAP3 SWAP2 SWAP3 PUSH1 0x40 MLOAD PUSH1 0x20 DUP2 ADD SWAP1 PUSH2 0x1463 DUP2 PUSH2 0x434 DUP8 DUP10 DUP9 DUP9 DUP9 PUSH2 0x1407 JUMP JUMPDEST MLOAD SWAP1 KECCAK256 SWAP2 PUSH1 0x0 SWAP4 DUP4 DUP6 MSTORE PUSH1 0x6 PUSH1 0x20 MSTORE PUSH1 0x40 DUP6 KECCAK256 SLOAD DUP1 PUSH2 0x1537 JUMPI POP PUSH1 0x7 SLOAD SWAP6 PUSH1 0x0 NOT DUP8 EQ PUSH2 0x1523 JUMPI PUSH1 0x1 DUP8 ADD PUSH1 0x7 SSTORE DUP7 DUP7 MSTORE PUSH1 0x2 PUSH1 0x20 MSTORE PUSH1 0x40 DUP7 KECCAK256 SWAP3 PUSH1 0x3 DUP6 LT ISZERO PUSH2 0x150F JUMPI SWAP3 DUP8 SWAP7 SWAP5 SWAP3 PUSH1 0xA SWAP3 PUSH1 0x40 SWAP8 SWAP6 PUSH1 0xFF NOT SWAP6 PUSH1 0xFF DUP8 DUP7 SLOAD AND SWAP2 AND OR DUP5 SSTORE PUSH1 0x1 DUP5 ADD SSTORE PUSH1 0x2 DUP4 ADD SWAP2 PUSH2 0x14D5 DUP3 PUSH2 0xEC3 JUMP JUMPDEST PUSH1 0xFF PUSH2 0xFF00 DUP5 SLOAD SWAP3 PUSH2 0x14E6 DUP2 PUSH2 0xEC3 JUMP JUMPDEST PUSH1 0x8 SHL AND SWAP3 AND SWAP1 PUSH2 0xFFFF NOT AND OR OR SWAP1 SSTORE TIMESTAMP PUSH1 0x3 DUP3 ADD SSTORE ADD SWAP1 DUP2 SLOAD AND SWAP1 SSTORE DUP2 MSTORE PUSH1 0x6 PUSH1 0x20 MSTORE KECCAK256 SSTORE SWAP1 JUMP JUMPDEST PUSH4 0x4E487B71 PUSH1 0xE0 SHL DUP8 MSTORE PUSH1 0x21 PUSH1 0x4 MSTORE PUSH1 0x24 DUP8 REVERT JUMPDEST PUSH4 0x4E487B71 PUSH1 0xE0 SHL DUP7 MSTORE PUSH1 0x11 PUSH1 0x4 MSTORE PUSH1 0x24 DUP7 REVERT JUMPDEST SWAP6 POP POP POP POP POP POP SWAP1 JUMP INVALID LOG2 PUSH5 0x6970667358 0x22 SLT KECCAK256 ADDRESS SDIV MLOAD 0x2A 0x4B DUP13 SIGNEXTEND CREATE2 0xCF DUP10 PC 0x4F 0xA6 TIMESTAMP GAS PUSH31 0xD1BF09441AE5737C3E89B36B58988B764736F6C634300081400332F878811 PUSH31 0x7EFF1D82E926EC794901D17C78024A50270940304540A733656F0D00000000 "},"methodIdentifiers":{"ADMIN_ROLE()":"75b238fc","COMMISSION_DENOMINATOR()":"3b1dbfcc","COMMISSION_RATE()":"1a454ea6","DEFAULT_ADMIN_ROLE()":"a217fddf","activePoolIds(bytes32)":"f9862a16","createPrediction(uint8,uint256,uint8,uint8,uint8,uint256)":"9a749db0","getRoleAdmin(bytes32)":"248a9ca3","grantRole(bytes32,address)":"2f2ff15d","hasRole(bytes32,address)":"91d14854","nextPoolId()":"18e56131","pools(uint256)":"ac4afa38","renounceRole(bytes32,address)":"36568abe","resolvePool(uint256,uint256)":"a505f689","revokeRole(bytes32,address)":"d547741f","supportsInterface(bytes4)":"01ffc9a7","tokenAddresses(uint8)":"cf0d7437","userPoints(address)":"f50ddbc7","userPredictions(address,uint256)":"f6c33179"}}}}}